:020000040800F2
:10500000C05B0020955200081B5F00089555000802
:10501000195F0008ED540008A95F000800000000B7
:10502000000000000000000000000000D551000852
:105030007955000800000000315200087D5F00082B
:10504000AF520008AF520008AF520008AF5200083C
:10505000AF520008AF520008AF520008AF5200082C
:10506000AF520008AF520008AF520008F1540008D8
:10507000AF520008AF520008AF520008AF5200080C
:10508000AF520008AF520008AF520008AF520008FC
:10509000AF520008AF520008AF520008AF520008EC
:1050A000AF520008AF520008AF520008AF520008DC
:1050B000AF520008AF520008AF520008AF520008CC
:1050C000AF520008AF520008AF520008AF520008BC
:1050D000AF520008AF520008AF520008AF520008AC
:1050E000AF520008AF520008AF520008AF5200089C
:1050F000AF520008AF520008AF520008AF5200088C
:10510000AF520008AF520008AF520008AF5200087B
:10511000AF520008AF520008AF520008AF5200086B
:10512000AF520008AF520008AF520008AF5200085B
:1051300000F002F800F03EF80AA090E8000C82446B
:105140008344AAF10107DA4501D100F033F8AFF248
:10515000090EBAE80F0013F0010F18BFFB1A43F055
:10516000010318474863000068630000103A24BF39
:1051700078C878C1FAD8520724BF30C830C144BFBC
:1051800004680C60704700000023002400250026FE
:10519000103A28BF78C1FBD8520728BF30C148BF9A
:1051A0000B6070471FB505F0BBFD00F003F91FBD94
:1051B00010B510BD00F042F91146FFF7F3FF04F0FF
:1051C00041FB00F060F903B4FFF7F2FF03BC00F00D
:1051D00063F900002C4B19680868B0E8F04F80F3C1
:1051E0000988BFF36F8F4FF0000080F3118870477C
:1051F0000000000008480068006880F308884FF04D
:10520000000080F3148862B661B6BFF34F8FBFF31E
:105210006F8F00DF00BF00BF08ED00E0DFF80C007B
:10522000016841F470010160704700BF88ED00E043
:10523000EFF30980BFF36F8F134B1A681EF0100F46
:1052400008BF20ED108A20E9F04F106009B44FF03C
:10525000BF0080F31188BFF34F8FBFF36F8F05F04E
:1052600099FA4FF0000080F3118809BC19680868AA
:10527000B0E8F04F1EF0100F08BFB0EC108A80F3BA
:105280000988BFF36F8F7047A8000020EFF30580F7
:10529000704700000948804709480047FEE7FEE7DD
:1052A000FEE7FEE7FEE7FEE7FEE7FEE7FEE7FEE7D6
:1052B00004480549054A064B704700003160000864
:1052C00031510008C0530020C05B0020C0570020AF
:1052D000C0570020032A40F2308010F0030C00F089
:1052E000158011F8013BBCF1020F624498BF11F820
:1052F00001CB00F8013B38BF11F8013BA2F10402D9
:1053000098BF00F801CB38BF00F8013B11F0030350
:1053100000F06280083AC0F0088051F8043B083A77
:1053200051F804CBA0E80810F5E7121D5CBF51F856
:10533000043B40F8043BAFF30080D20724BF11F8D0
:10534000013B11F801CB48BF11F8012B24BF00F835
:10535000013B00F801CB48BF00F8012B70474FF02C
:10536000000200B5134694469646203922BFA0E8B5
:105370000C50A0E80C50B1F12001BFF4F7AF0907C1
:1053800028BFA0E80C5048BF0CC05DF804EB8900B2
:1053900028BF40F8042B08BF704748BF20F8022BF5
:1053A00011F0804F18BF00F8012B7047704770470D
:1053B0007047000070B5064C7C44064D7D4403E008
:1053C000206820448047241DAC42F9D170BD000004
:1053D000106100001861000010B5203AC0F00B8089
:1053E000B1E81850203AA0E81850B1E81850A0E8E9
:1053F0001850BFF4F5AF5FEA027C24BFB1E8185043
:10540000A0E8185044BF18C918C0BDE810405FEAB2
:10541000827C24BF51F8043B40F8043B08BF70472E
:10542000D20728BF31F8023B48BF11F8012B28BF33
:1054300020F8023B48BF00F8012B7047754600F08A
:1054400031F8AE4605006946534620F00700854610
:1054500018B020B5FFF72CFFBDE820404FF0000644
:105460004FF000074FF000084FF0000B21F007014C
:10547000AC46ACE8C009ACE8C009ACE8C009ACE88F
:10548000C0098D46704710B50446AFF30080204632
:10549000BDE81040FFF797BE01491820ABBEFEE7FC
:1054A00026000200004870475C53002070472DE939
:1054B000F04106460C461746B7F5806F14D872B611
:1054C00004F018F9304604F0BBF8002507E0218805
:1054D000304604F055F8A41CB61C6D1CADB2BD429C
:1054E000F5D304F099F862B6BDE8F081FEE700005C
:1054F00010B51D4C02220021204603F0AAFF01280E
:1055000031D102220021204603F09DFF1749184C9B
:10551000606A888001F12000164A81899184C189DE
:105520009187018A118301891186418811808188C0
:10553000A2F860108189A2F84810C189A2F854101D
:1055400001889181408A1146A1F86C00084601F05B
:1055500014FB00F0ABFB0549606AC880BDE8104051
:10556000084601F0CCBC10BD000002407042002093
:1055700000100040303900207047B7EE002AF0EEEE
:10558000401A32EE602A22EE011AB0EE410A01EE14
:10559000A00A7047FEE77047704700002DE9F04110
:1055A00088B0012004F040FB4FF4A06004F0F2FB4F
:1055B000834C0021204603F0C5FE8248019040152F
:1055C000029081480390E0140490052005904FF468
:1055D0004050069000208DF81C0001218DF81D1010
:1055E0008DF81E0001AA0021204603F0D7FE0021FD
:1055F000204603F095FE02220021204603F011FF11
:10560000002211460B2004F033F940F2096004F047
:10561000C1FB40F20A6004F0BDFB6A4E4C3E3046CE
:1056200003F052FD694F384603F04EFD4FF4C0259C
:10563000284603F0B3FD4FF48078012241463046FE
:1056400003F000FE01224146384603F0FBFD2A46E6
:105650000121304603F08DFD4FF4602201213846D0
:1056600003F087FD0021304603F0E3FD00213846BA
:1056700003F0DFFD0021304603F01AFD002138461B
:1056800003F016FD05220121304603F0F4FC05224B
:105690000121384603F0EFFC01230E2200213046A1
:1056A00003F088FD012302221946304603F082FDF3
:1056B000012303220221304603F07CFD01230A224C
:1056C0000321304603F076FD01231A4604213046BB
:1056D00003F070FD012304220021384603F06AFD27
:1056E00001230D221946384603F064FD01230B22E5
:1056F0000221384603F05EFD01230C2203213846C7
:1057000003F058FD01230F220421384603F052FD17
:1057100001221146304603F010FD012211463846A1
:1057200003F00BFD2A4D022304220021284604F039
:1057300001F804231A460021284603F0FBFF082342
:1057400004220021284603F0F5FFDFF888800123BA
:1057500004220021404603F0EDFF10230422002123
:10576000404603F0E7FF102304220021284603F0FF
:10577000E1FF04231A460021404603F0DBFF20230B
:1057800004220021404603F0D5FF304603F0CDFC53
:1057900000F01CFD304603F05FFC384603F0C5FC0A
:1057A00000F014FD384603F057FC304603F0B8FC17
:1057B0000021204603F0A2FD08B0BDE8F081000002
:1057C000000002404C24014090420020002801408B
:1057D00000080140001001401FB54FF4C06004F004
:1057E000D9FA4FF4A06004F091F840F2047004F08C
:1057F000D1FA114C204604F0E3FC0021ADF8001072
:10580000ADF80210ADF80410ADF806104FF6FF72B7
:1058100002928DF80C106946204604F045FD0021E7
:10582000204604F0CBFC204604F038FD9FED030A2F
:10583000034880ED000A1FBD001000407D3F553F2A
:105840007042002070B540F2026004F0A3FA40F20A
:10585000036004F09FFA40F2046004F09BFA4FF4F6
:10586000C06004F097FA0121154803F0BDFF154C04
:1058700001231A461021204603F05CFF124D042339
:1058800001222821284603F055FF23150122282153
:10589000284603F04FFFE31401222821284603F095
:1058A00049FF4FF400452B4601221021204603F00A
:1058B00041FF29462046BDE8704003F037BF000095
:1058C0000002300000080140000C01402DE9F04FBB
:1058D0008BB04FF4E06004F05DFA4FF0804004F0CC
:1058E0006FFC0024ADF81C40ADF81E40ADF8204020
:1058F000ADF8224041F26F7009908DF8284007A959
:105900004FF0804004F0D0FC4FF0804004F03CFDAC
:1059100000214FF0804004F03CFD00214FF080401A
:1059200004F04CFC2021480604F010FD0120ADF8E5
:105930001000ADF81240ADF81440ADF81640ADF8C7
:105940001840ADF81A4004AA0121800704F0BCFAFF
:10595000022104AA480704F0B7FA0121C8228807E7
:1059600004F0F2FB0221C822480704F0EDFB0121FC
:105970007022880704F0BEFB02217022480704F061
:10598000B9FB40F20B6004F005FAC24804F018FCC1
:10599000ADF81C404026ADF81E60ADF82040ADF8D3
:1059A000224040F2EE2709978DF8284007A9B94810
:1059B00004F07AFC0021B74804F000FC0021B5484F
:1059C00004F0CCFC0421B34804F0D6FC1021B1480B
:1059D00004F0B4FCADF81040ADF81240ADF814403E
:1059E000ADF81640ADF81840ADF81A4004AA0021F1
:1059F000A84804F069FA04AA0121A64804F064FA50
:105A00004FF47A720021A34804F09EFB4FF47A729F
:105A10000121A04804F098FB042200219D4804F0D5
:105A20003FFB042201219B4804F03AFB7022002135
:105A3000984804F05FFB60220121964804F05AFB6D
:105A400008220021934804F08FFB0822012191488D
:105A500004F08AFB4FF40068ADF80080ADF8024016
:105A60004FF03009ADF80490ADF806403502ADF8BE
:105A70000850ADF80A40ADF80C406946854804F07E
:105A800013FA40F2026004F085F940F2036004F07A
:105A900081F9DFF804A2AB1101221821504603F06E
:105AA00049FE6B1101221821504603F043FEDFF836
:105AB000ECA16B1001221821504603F03BFE2B464F
:105AC00001221821504603F035FE40F20D6004F02B
:105AD00061F9DFF8CCB1584604F072FBADF81C4018
:105AE000ADF81E60ADF82040ADF8224009978DF862
:105AF000284007A9584604F0D7FB0021584604F077
:105B00005DFB0021584604F029FC0421584604F0AE
:105B100033FC1021584604F011FCADF81040ADF8EC
:105B20001240ADF81440ADF81640ADF81840ADF88D
:105B30001A4004AA0121584604F0C6F94FF47A72BB
:105B40000121584604F000FB04220121584604F0CC
:105B5000A7FA60220121584604F0CCFA082201215C
:105B6000584604F001FBADF80080ADF80240ADF8F6
:105B70000490ADF80640ADF80850ADF80A40ADF815
:105B80000C406946584604F08FF940F2036004F077
:105B900001F940F2046004F0FDF88023042218218A
:105BA000404803F0C7FD012304221821504603F0AA
:105BB000C1FD40F2027004F0EDF83B4D284604F0C0
:105BC000FFFAADF81C40ADF81E40ADF82040ADF82E
:105BD00022404FF4965009908DF8284007A9284696
:105BE00004F062FB0021284604F0E8FAADF810400A
:105BF000ADF81240ADF81440ADF81640ADF81840BD
:105C0000ADF81A4004AA0221284604F05DF904AA5E
:105C10000321284604F058F900220221284604F006
:105C200093FA60220221284604F064FA0822022135
:105C3000284604F099FA00220321284604F084FA49
:105C400060220321284604F055FA08220321284641
:105C500004F08AFA40F2036004F09CF8AB150122CC
:105C60001821504603F066FD6B150122182150469D
:105C700003F060FD074804F011FBE80404F00EFB9C
:105C8000284604F00BFB584604F008FB0BB0BDE8B7
:105C9000F08F0000002C014000080140000C014082
:105CA00000340140001001400008004070B54C482D
:105CB00001F018F84A48D0ED080A90ED0E0A49485C
:105CC00001F060FF484CD4F8840101688968884776
:105CD000204603F09BF894F88C01444A4449C006DE
:105CE000A2F104034FF000041ED5086820F0100054
:105CF0000860086820F0400008601460086820F020
:105D000001000860086820F0040008601C60394841
:105D1000016821F010010160016821F0400101607B
:105D200034481830046029E02E4EB6F8C800B6F9A1
:105D3000CC5048B115600A6842F010020A600A6847
:105D400042F040020A6008E00D6825F010050D6081
:105D50000D6825F040050D601460B6F9CA2040F2C8
:105D6000EE25012812D0022825D0086820F0010075
:105D70000860086820F0040008601C601E4801F0FC
:105D800033FABDE870401D4801F0D2B9A2F2EE220C
:105D9000504200B2A84201D9284602E0002800DAA9
:105DA00000201860086840F001000860086840F0B2
:105DB00004000860E2E7A2F20632504200B2A842B4
:105DC00001D9284602E0002800DA0020186008689F
:105DD00040F001000860086820F004000860CDE78A
:105DE000303900200C3B00204C340020382C01407E
:105DF000202C014020340140E8390020543F00208D
:105E00000B2003F02AFD384804F0DAF94FF0804007
:105E100004F0D6F9354804F0D3F9354804F0D0F948
:105E2000344804F0CDF9344804F0CAF9334804F09A
:105E3000C7F9334803F048F9324803F045F9324CCA
:105E40000021204603F07EFA0321204603F07AFA6F
:105E50002E4804F0F3FA4FF4C06003F08DFF40F2D7
:105E6000026003F089FF40F2036003F085FF40F217
:105E7000046003F081FF40F20B6003F07DFF4FF4FC
:105E8000E06003F079FF40F2017003F075FF40F22B
:105E9000027003F071FF40F2037003F06DFF40F2F7
:105EA000047003F069FF40F20D6003F065FF4FF4EA
:105EB000A06003F061FF40F2096003F05DFF40F273
:105EC0000A6003F059FF40F20E6003F055FFBFF384
:105ED0004F8F0F4801680F4A01F4E06111430160E0
:105EE000BFF34F8FFEE70000002C0140000400408C
:105EF00000080040000C0040001000400034014049
:105F00000024014000280140000002400038014008
:105F10000CED00E00400FA05FEE770472DE9F047BC
:105F20000546DDF820900E46174698461248007840
:105F3000002801D100F0F2F80F49032D19D2EFF338
:105F40001180202282F3118805EB450201EBC20487
:105F5000183435B126606760C4F8088000212161DB
:105F6000E160C4F81490C0B280F311880020BDE84D
:105F7000F0874FF0FF30FAE7A442002010B5BF20B1
:105F800080F31188BFF34F8FBFF36F8F04F08EFD46
:105F900018B104494FF080500860002080F3118848
:105FA00010BD000004ED00E0FEE7000010B5064C57
:105FB0002021204603F0BAFB204620230122BDE821
:105FC0001040282103F0B6BB000C014010B5094871
:105FD000C06F094988420CDA084C202301221021A5
:105FE000204603F0A7FB2046BDE81040202103F027
:105FF0009FBB10BDE839002000000C42000C01409E
:10600000000100CCCCCCCC0000000000000000005F
:10601000010000CCCCCCCC0000000000000000004F
:1060200001CCCCCCCCCCCC000000000000000000A7
:1060300082B01648016841F470010160144801689B
:1060400041F001010160416841F08001416000239D
:10605000019344F6206102E0019A521C0192019AD8
:106060008A42F9D3416821F0030141600168094A7D
:10607000114001604FF41F018160016821F480210B
:1060800001604360C36202B003F00CBF88ED00E022
:1060900000100240FFFFF6FEFEB51948042200F191
:1060A0005401CDE9002102900023D20115A1184826
:1060B00004F0E0FC0024174E174F032504EBC40046
:1060C00006EBC003002211460120009504F0A6FB58
:1060D00004EB440107EB81018860641CA4B2042C2A
:1060E000ECD30C4B0022483B11460120009504F0F4
:1060F00095FB0949091F0860BDE8FE4004F00ABB92
:10610000902A00207374617274207461736B0000B4
:106110001D6300082C3300200400002010B5134C30
:10612000A8212046FFF71BF903202061606110A021
:10613000A06104F1A800E0614FF4805020620020CB
:10614000A0626062E0620AA121660C4961661021CA
:10615000A1662067E06660670949C0F10F028A5CAA
:106160002254401C1028F8D310BD0000A442002087
:106170005465726D696E616C000000004C53002024
:1061800084B4000830B5002100200B4600224AF2FA
:10619000010480EA0305ED0702D084EA500000E024
:1061A00040085B08521C92B2082AF2D3054A22F832
:1061B0001100491C89B2FF29E6D903490120088052
:1061C00030BD00003037002034000020002002499C
:1061D000401C8842FCD3704740420F00134DDFF84B
:1061E0005080144C4FF0FF364FF400573146E86AA8
:1061F00004F086FB0128F9D1208820B139464046B9
:1062000003F096FA03E03946404603F08FFA2088FF
:1062100050B1002222800848026C521C0264022AFB
:10622000E4D101214180E1E70122F3E704000020ED
:1062300000100140EA0000204C3400200C4C4FF0CC
:10624000FF352946A06804F05BFB0128F9D1094815
:1062500002F022F8074802F053FB064802F032F839
:10626000054801F0BDFE054801F088F9E9E70000A6
:10627000040000204C3400200C3B0020BC3C0020DB
:106280000C4D0D4C4FF0FF363146686904F038FB79
:106290000128F9D1D4F8840101684A68904706487A
:1062A00002F02EFA054801F097F8044801F020F8B2
:1062B000EAE70000040000204C340020E839002008
:1062C0000024124EDFF84880124D671E3946306AAE
:1062D00004F016FB0128F9D1641C052C0FDB002407
:1062E000288820B10121404603F022FA03E0012171
:1062F000404603F01BFA288828B100202880064871
:1063000002F086FDE2E70120F8E70000040000202B
:1063100000080140E80000204C3400200EB50225A2
:106320008023434A43A101200095FFF7F7FD45482C
:1063300002F018FDFFF750FAFFF784FAFFF72EF985
:10634000FFF7C4FA4049414801F0CEFE3F4CA18816
:106350003F4800F085FCA28800213E4801F004F986
:10636000E1883B4800F0A8FCE2880121394801F0AF
:10637000FBF82189364800F047FC22890221354884
:1063800001F0F2F86189324800F054FC628903217F
:10639000304801F0E9F8A1892D4800F077FCA28986
:1063A00004212C4801F0E0F8E189294800F016FCAE
:1063B000E2890521274801F0D7F82748052200F196
:1063C0005401CDE900212C0202900023224623A192
:1063D000254804F04FFB2548032300F15401CDE983
:1063E000003102900023224621A1244804F042FB00
:1063F0002348029000F15401CDE9005100232246C8
:1064000020A1234804F036FB2248012200F1540168
:10641000CDE900210290002322461FA1204804F06C
:1064200029FB204CED1E2946206804F069FAFAE7A2
:10643000B03600204A53636F70655F693269326914
:10644000326932004C34002000F80308BC410020BF
:1064500030390020BC3C002040090020326D732000
:106460007461736B000000003D620008941100200D
:1064700031306D73207461736B000000816200081D
:10648000E81900203130306D73207461736B0000A7
:10649000C16200083C2200203173207461736B00DC
:1064A000DD610008000000200180426080ED020AEA
:1064B000704710B5C189D0ED020A426800290AD19F
:1064C00092ED001A31EE201AB4EEC01AF1EE10FA75
:1064D00001DD81813BE003881C465B1E8B420DD1B0
:1064E000A41E02EB840494ED001A31EE601AB4EE9F
:1064F000C01AF1EE10FA01D2818128E04C1E02EBA5
:10650000840494ED001A31EE601AB4EEC01AF1EE74
:1065100010FA0CD202EB810494ED001A71EE200AFD
:10652000F4EEC00AF1EE10FA01DD81810FE00021E6
:106530000AE002EB8104D4ED000AF4EEC00AF1EEA9
:1065400010FA03DC491C89B28B42F2DC818181891B
:10655000C18110BD00218181C181704790ED071A72
:10656000F7EE000AD0ED001A70EEC10A60EEA10A43
:1065700041EE000AC0ED000A90ED031A90ED020A08
:1065800000EE801A80ED031A90ED050AB4EEC01AF1
:10659000F1EE10FA02DD80ED030A08E0D0ED061AF4
:1065A000B4EEE11AF1EE10FA01D2C0ED031A90ED4B
:1065B000031AD0ED011A01EEA01A80ED041AB4EE10
:1065C000C01AF1EE10FA02DD80ED040A08E090ED49
:1065D000060AB4EEC01AF1EE10FA01D280ED040AF8
:1065E00090ED040A704780ED050A704780ED060AB9
:1065F000704780ED010AC0ED020A80ED051AC0ED7A
:10660000061A80ED072A704780ED030A70470000E4
:106610009FED0A0A80ED000A80ED010A80ED020A72
:1066200080ED050A80ED060A80ED030A80ED040A7C
:10663000B7EE000A80ED070A704700000000000076
:1066400001F021BE10B504462DED028BB0EE408A5C
:10665000204601F013FE88B1DFED151A9FED151AE3
:1066600068EE210A80EE810A71EEC00A124910EE2E
:10667000900A884207DDF0EE610A0BE0BDEC028B68
:106680009FED0E0A10BD10EE900A0D49884201DA06
:10669000DFED0C0AB2EE041A20EE011A81EE200A98
:1066A000BDEC028B2046BDE8104001F0ACBD0000FF
:1066B0003333534000008045333353400000000023
:1066C0006F12833A6F12833A01F0E1BD10EE101A97
:1066D0004160084A914204DD9FED070A80ED010AFE
:1066E0007047B1F1804FFBDAB0EE000A80ED010A8D
:1066F0007047000000001644000016449FED0C0A8D
:1067000080ED0D0A002180F82E10DFED0A0AC0EDA1
:10671000030A4A1E8261DFED080AC0ED010A4161E9
:1067200080ED080AB2EE040A80ED090A81857047FF
:106730000000A0420000000000001644F0B503462F
:10674000C3ED000A93ED011AF4EEC10AF1EE10FA5E
:1067500002DD052083F82E0093F82E00724C734D55
:106760000021D8B102264A1EB7EE002A012817D010
:106770000127DFED6F1A022828D0032826D004282D
:1067800024D005287CD01846FFF7B8FF586BA842E4
:1067900077DD9FED680A83ED0D0AB9E09985F5E78D
:1067A000DFED650AC3ED030A9A61C3ED040A988D13
:1067B00018B930EE420A83ED0D0A0A2802D39985F2
:1067C00083F82E60988D401C9885DFE793ED031ABF
:1067D00030EEC11A83ED041AB0EEC11A11EE100AA0
:1067E000B0F1804F03DBC3ED030A596106E0F0EE20
:1067F000000AC3ED040A5869401C5861D3ED040A2D
:10680000F5EEC00AF1EE10FA02D2986940429861A2
:106810009869002803DD032083F82E0001E083F847
:106820002E605869642805DB642058619A61042051
:1068300083F82E00F0EEE00A60EEA10AC3ED070A2D
:1068400010EE900AB0F17E5F02DD83ED072A08E0CA
:1068500010EE900A3949884203DADFED390AC3EDB8
:10686000070A93F82E0004280CD0D3ED060A93ED06
:10687000071AF8EEE00A01EE200A83ED0D0A85E71B
:1068800031E03FE010EE100AB1EE041AA0420CDD38
:10689000D3ED0D0A10EE900AA04206DD30EE412A3B
:1068A000F4EEC20AF1EE10FA00D29F6110EE100A67
:1068B000A8420CDAD3ED0D0A10EE900AA84206DACF
:1068C00030EE010AF4EEC00AF1EE10FA00DD9A6132
:1068D000D3ED060A93ED0D0AF8EEE00A00EEA10AE8
:1068E00083ED0D0A52E7F4EEC10AF1EE10FA02D27E
:1068F00083F82E704AE730EE210A83ED0D0AC3EDCE
:10690000030A43E7A04203DAB2EE040A83ED0D0A5C
:1069100093F82E0000EE100AB8EE400A83ED0C0A40
:1069200093ED0D0AF0BD0000000020410000A042E0
:10693000CDCCCC3D0000A04200000000CDCC4C3EB0
:10694000CDCC4C3E90F82E10002952D110EE101AEA
:10695000294A1144B1F1C07F4BD880ED0A0ADFED1E
:10696000270A60EE200AC0ED080A10EE901A244BA8
:106970009FED241A5242F2EE041A994202DD80ED94
:10698000081A05E010EE901A914201DAC0ED081ADB
:10699000DFED1D0A60EE200AC0ED090A10EE901A24
:1069A000994202DD80ED091A05E010EE901A91423D
:1069B00001DAC0ED091AF7EE000A30EE600A80ED48
:1069C0000D0AD0ED080AB4EEE00AF1EE10FA02DD8D
:1069D000C0ED0D0A08E0D0ED090AB4EEE00AF1EED0
:1069E00010FA01D2C0ED0D0A012180F82E1001200D
:1069F00070470020704700000000E0BE9A99993F60
:106A00000000A0420000A042CDCCCC3E00B5034621
:106A10001846FFF773FE184600BD000010B52DEDB7
:106A20000A8B72B69FED3E0A80ED030A9FED3D0A88
:106A300080ED040ADFED3C0AC0ED050A80ED060A90
:106A4000C0ED070A9FED390A80ED080A62B69FED96
:106A5000388ADFED388A9FED389ADFED389AB0EE4C
:106A6000482AF0EE681AB2EE081AF0EE490AB0EEC3
:106A7000690A3348FFF7BDFD9FED32AADFED32AA68
:106A80009FED32BADFED32BA2D48B0EE482AF0EE73
:106A90004A1AB0EE6A1AF0EE4B0AB0EE6B0A2030DA
:106AA000FFF7A7FD9FED2CCA2548B0EE482AFAEE65
:106AB000081AB2EE081ADFED270AB0EE4C0A403091
:106AC000FFF797FDB0EE482AF0EE681AB2EE081A0A
:106AD000F0EE490AB0EE690A2048FFF78AFD1F4828
:106AE000B0EE482AF0EE4A1AB0EE6A1AF0EE4B0AFF
:106AF000B0EE6B0A2030FFF77CFDB0EE482AB0EE16
:106B00004C0ABDEC0A8BFAEE081AB2EE081A1348CA
:106B1000BDE81040DFED120A4030FFF76ABD00000B
:106B200066661E3C6B5F7F32D1445834DA032D34E5
:106B30008E8E0E3FCDCCCCBD52499D3860E5503E87
:106B4000343B0020C3F5E8BFC3F5E83FBA03E9379B
:106B5000F99E113BAC1D1536CF48803F0C3C002000
:106B60004FFB143670470888A0F6B860B0F5247F54
:106B700002D94FF480500880704730B5B0F87A10D1
:106B8000012929D0B0F87810491C89B2A0F87810F2
:106B9000B1F5804F20D350F87C1F41F38F318180B5
:106BA000026942F38F3282827C38A1F26C714FF419
:106BB000967501234FF40064A94203D9A0F89230DE
:106BC000A0F88040A2F26C72AA4203D9A0F89230D9
:106BD000A0F89040A0F87A3030BD000003B502461E
:106BE00001A91046FFF7BFFFBDF80410DFED050A4D
:106BF00000EE101AB8EE400A20EE200A82ED010ADB
:106C00000CBD00006B5F7F2B03B5024601A9104647
:106C1000FFF7A9FFBDF80410DFED050A00EE101A1A
:106C2000B8EE400A20EE200A82ED190A0CBD0000E1
:106C3000DA032D2E03B5024601A91046FFF793FF94
:106C4000BDF80410DFED050A00EE101AB8EE400A98
:106C500020EE200A82ED070A0CBD00006B5F7F2C3E
:106C600003B5024601A91046FFF77DFFBDF80410E9
:106C7000DFED050A00EE101AB8EE400A20EE200AF9
:106C800082ED0D0A0CBD0000D144582E03B502461A
:106C900001A91046FFF767FFBDF80410DFED050AF4
:106CA00000EE101AB8EE400A20EE200A82ED0A0A21
:106CB0000CBD00006B5F7F2C03B5024601A9104696
:106CC000FFF751FFBDF80410DFED050A00EE101AC2
:106CD000B8EE400A20EE200A82ED100A0CBD00003A
:106CE000D144582E754991ED050ADFED750A30EE55
:106CF000200A81ED050A10EE102A724B9A4205DD3A
:106D0000DFED710A30EE600A81ED050AB0F924204A
:106D1000D0ED0A0A00EE102AB8EEC00A20EE200AD2
:106D200080ED0B0AB0F93C20D0ED100A00EE102ADD
:106D3000B8EEC00A20EE200A80ED110AB0F9182042
:106D4000D0ED070A00EE102AB8EEC00A20EE200AA5
:106D500080ED080AB0F93020D0ED0D0A00EE102ABF
:106D6000B8EEC00A20EE200A80ED0E0AB0F900202D
:106D7000D0ED010A00EE102AB8EEC00A20EE200A7B
:106D800080ED020AB0F96020D0ED190A00EE102A59
:106D9000B8EEC00A20EE200A80ED1A0AB0F94820A9
:106DA000D0ED130A00EE102AB8EEC00A20EE200A39
:106DB00080ED140AB0F95420D0ED160A00EE102A26
:106DC000B8EEC00A20EE200A80ED170AB0F90C20B8
:106DD000D0ED040A00EE102AB8EEC00A20EE200A18
:106DE00080ED050AB0F96C20D0ED1C0A00EE102AE7
:106DF000B8EEC00A20EE200A80ED1D0A3348D0ED1F
:106E0000080AB2EE040A60EE800AFDEEE00A10EE17
:106E1000902A4A80D0ED0E0A60EE800AFDEEE00A6C
:106E200010EE902A0A80D0ED020A60EE800AFDEE94
:106E3000E00A10EE902A4A81D0ED1A0A60EE800A2C
:106E4000FDEEE00A10EE902A0A81D0ED140A60EE01
:106E5000800AFDEEE00A10EE902A0A82D0ED170AB1
:106E600060EE800AFDEEE00A10EE902A4A82184A8F
:106E7000D2ED220A60EE800AFDEEE00A10EE903AB2
:106E80008B81D0ED110A60EE800AFDEEE00A10EE73
:106E9000903A8B80D0ED0B0A60EE800AFDEEE00A9E
:106EA00010EE900AC880D2ED260A20EE800ABDEED0
:106EB000C00A10EE100AC881704700008C00002044
:106EC000FCAD803CDA0FC940DA0FC94030390020F0
:106ED000E839002000215430C1848184B7EE000AD3
:106EE00000ED110A80ED070A816201638163C187A9
:106EF0004FF4006181858186818754387047C1884D
:106F00008288891A89B20181C2685318C360028AD3
:106F1000521C92B20282B2F5804F11D39A0B426199
:106F200000EE102AD0ED000AB8EE400A20EE200A4A
:106F3000BCEEC00A10EE102A82830022C2600282D8
:106F4000826991420DD900EE101A8161D0ED000ADC
:106F5000B8EE400A20EE200ABCEEC00A10EE101A6D
:106F6000C18370470021C160018241618161704726
:106F700030B50346B3F83201904200D80246587942
:106F8000022801D0002030BD00245C71002004E004
:106F90001D18AD790D54401C80B29042F8D31046B4
:106FA000A3F8324130BD30B587B0044620680028D0
:106FB0007DD0002525716571A4F8325184F83451D3
:106FC000008802F0E7FE2068408802F0E3FE2068B7
:106FD000808802F0DFFE2068C08802F0DBFE4FF4FC
:106FE000C06002F0D7FE2068806803F027FA2068AE
:106FF000016A806803F0DCF92068C169806803F0E9
:1070000070FA20680169806803F087FA2068816956
:10701000806803F074FA20684169806803F000FA20
:1070200020680421806803F064FA20688021806869
:1070300003F04CFA2068806803F04EFA20680122C1
:107040001821836A406A02F075FB206801224821FA
:10705000036BC06A02F06EFB2068C06B10B10121A7
:1070600002F0C2FB2068B0F8400002F093FE2068F6
:1070700090F84810406C02F065F92068C06C0090F0
:1070800001950295039502200490C00205908DF8A9
:10709000185001208DF819008DF81A0020686A46F2
:1070A00090F84810406C02F079F9206800E00EE09A
:1070B000C08802F06FFE206801221021836B406BB4
:1070C00002F038FB2068816B406B02F02FFB07B0A9
:1070D00030BD70B504460E4615462079012826D0ED
:1070E0002068816B406B02F023FB2068324690F8E9
:1070F0004810406C02F0D3F920682A4690F84810F6
:10710000406C02F0E9F92068012290F84810406CC8
:1071100002F035F920680821806803F0F8F920684A
:1071200090F84810406C02F0E9F80120207170BD21
:1071300070B504462068816809688DB290F84810DF
:10714000406C022202F021F90026012819D16806BC
:1071500017D5267120680021806803F0D8F92068CF
:10716000012290F84810406C02F009F9206890F86C
:107170004810406C02F0B0F82068816B406B02F060
:10718000D5FAA80615D56079022801D1A4F8326194
:107190000120607184F834612068806803F049F947
:1071A000B4F83221A11D5054B4F83201401CA4F8A7
:1071B000320194F83401401CC0B284F834012168D3
:1071C00002228989884205D384F83411B4F8320147
:1071D00000B16271B4F83201B0F5967F00D36271EC
:1071E00070BD00210160704770B504462DED028B23
:1071F0003D4D95ED080AD4ED000A30EE200A84EDED
:10720000000A95ED0E0AD4ED010A30EE200A84ED55
:10721000010A95ED020AD4ED020A30EE200A84ED4F
:10722000020A95ED1A0AD4ED030A30EE200A84ED25
:10723000030A95ED140AD4ED040A30EE200A84ED19
:10724000040A95ED170AD4ED050A30EE200A84ED04
:10725000050A95ED0E0AD5ED080A94ED061A00EE22
:10726000201A84ED061A95ED0B0AD4ED090A30EECA
:10727000200A84ED090A95ED110AD4ED0A0A30EED0
:10728000200A84ED0A0A95ED110AD5ED0B0A94ED5A
:107290000B1A00EE201A84ED0B1A208C401C20845F
:1072A00095ED050A9FED118A94ED271AF0EE480A34
:1072B000FEF763F984ED270A95ED1D0A94ED281A6F
:1072C000F0EE480AFEF759F984ED280A95ED020A16
:1072D00094ED2C1AF0EE480AFEF74FF984ED2C0AD3
:1072E000BDEC028B70BD0000303900200AD7233C72
:1072F00010B504462DED028BB7EE000AB4F8580025
:1073000000EE900AB8EE601AC0EE010A94ED0E0A83
:1073100020EE200A84ED1C0A94ED0F0A20EE200ACC
:1073200084ED1D0A94ED100A20EE200A84ED1E0A59
:1073300094ED110A20EE200A84ED1F0A94ED120A42
:1073400020EE200A84ED200A94ED130A20EE200A94
:1073500084ED210A94ED140A20EE200A84ED220A1D
:1073600094ED181A21EE201A84ED241A94ED191ABE
:1073700021EE201A84ED251A94ED1B1A21EE201A15
:1073800084ED261A94ED151A61EE200AC4ED230A45
:107390009FED108A94ED2B1AF0EE480AFEF7EDF8F7
:1073A00084ED2B0A94ED291A94ED1D0AF0EE480A9B
:1073B000FEF7E3F884ED290A94ED2A1A94ED1C0AED
:1073C000F0EE480AFEF7D9F884ED2A0ABDEC028BEC
:1073D00010BD0000CDCC4C3D90ED000A80ED0E0AB2
:1073E00090ED010A80ED0F0A90ED020A80ED100A7F
:1073F00090ED030A80ED110A90ED040A80ED120A67
:1074000090ED050A80ED130A90ED060A80ED140A4E
:1074100090ED090A80ED180A90ED0A0A80ED190A2C
:1074200090ED0B0A80ED1B0A90ED070A80ED150A1E
:10743000018CA0F858109FED0F0A80ED000A80ED36
:10744000010A80ED020A80ED030A80ED040A80ED56
:10745000050A80ED060A80ED090A80ED0A0A80ED32
:107460000B0A80ED0C0A80ED070A80ED0D0A002161
:1074700001847047000000009FED120A80ED000AB1
:1074800080ED010A80ED020A80ED030A80ED040A16
:1074900080ED050A80ED060A0021018480ED090ACD
:1074A00080ED0A0A80ED0B0A80ED270A80ED280A9C
:1074B00080ED290A80ED2B0A80ED2C0A80ED2A0A46
:1074C0007047000000000000D1ED000AF4EEC00A91
:1074D000F1EE10FA0CD2B1F90A3042681A44426057
:1074E000B1F908108A4202DB416001210180704736
:1074F000D1ED010AF4EEC00AF1EE10FAF7DDB1F9B0
:107500000C104268511A41600029F0DC00214160F2
:1075100001807047D1ED000AF4EEC00AF1EE10FAD6
:107520000CDDB1F90A3042681A444260B1F9081022
:107530008A4202DB4160012101807047D1ED010ADE
:10754000F4EEC00AF1EE10FAF7D2B1F90C1042686D
:10755000511A41600029F0DC002141600180704730
:107560000021018041607047062905D200EB4100EF
:10757000A0F87222A0F87E22704700002DE9F05F8B
:1075800004460026B4F84A02401C80B2A4F84A021D
:107590004FF00109192801D9A4F84C9204F526707E
:1075A0004FF4807204F580718046FFF7E1FCA4F887
:1075B0000002062810D90027A4F84A72A4F84C72D9
:1075C00094F80011DF4D5A2903D194F80111A5292F
:1075D00004D02868401C2860BDE8F09F94F8021190
:1075E000C02901D0A12903D194F80311E02903D0C7
:1075F0002868401C2860EFE7001F81B204F5817005
:1076000001F048FE0146B4F8000204F1FE02835C7A
:10761000521C805C43EA0020814203D02868401C51
:107620002860D9E75A202070A52002226070E0204F
:10763000A07094F802010423E07094F80401052579
:10764000207194F8051194F806C141EA0C214FF01D
:10765000060C4FF00A0B4FF00C0A07287DD007DC10
:10766000072821D2DFE800F013212A49535D660084
:10767000E0286ED006DC08286CD00F286BD0A0283C
:1076800012D19DE0E12867D0F028F9D13BE184F8E0
:1076900005C0A771E771277284F80990A77284F872
:1076A0000B900D252773012636E184F80590A7710C
:1076B00094F83C020825E07101262DE184F805B01C
:1076C000A771B4F80402E071000A2072B4F806024F
:1076D0006072000AA072B4F80802E072000A207317
:1076E000B4F814026073000AA073B4F86202E07385
:1076F000000A1125207401260EE16271A771B4F809
:107700001802E071000A09252072012604E1627165
:10771000A771B4F81C02E071000A09252072012645
:10772000FAE084F80590A77194F846020825E07104
:107730000126F1E019B194F80701A4F82A0284F8AF
:107740000590A77194F82C020825E0710126E3E06A
:1077500003E08DE021E0CCE0B3E079B194F80701DB
:1077600094F8081140EA0120A4F86E0294F8090187
:1077700094F80A1140EA0120A4F870026371A7711D
:10778000B4F86E02E071000A2072B4F87002607200
:10779000000A0B25A0720126BEE039B194F807015A
:1077A00094F8081140EA0120A4F86C026271A771F4
:1077B000B4F86C02E071000A092520720126ABE0E2
:1077C0001F2004F8050F6770B4F8FF01A070000ACD
:1077D000E070B4F801022071000A6071B4F805028B
:1077E000A071000AE071B4F809022072000A607208
:1077F000B4F80F02A072000AE072B4F857022073C6
:10780000000A6073B4F85902A073000AE073B4F878
:107810005B022074000A6074B4F85D02A074000A70
:10782000E074B4F807022075000A6075B4F80B0222
:10783000A075000AE075B4F813022076000A60769D
:1078400094F83702A07694F83802E07694F83B0278
:107850002077B4F839026077000AA077B4F83D02C7
:10786000E077000A262584F82000641F012653E0F3
:1078700079B194F8070106280BD294F8081194F80E
:10788000092104EB400041EA0221A0F87212A4F899
:10789000969284F805A00725A771002004EB40020A
:1078A000691C92F87E3289B26355B2F87E22130ABF
:1078B0004A1C95B26354401C80B20628EED30126C0
:1078C0002AE084F805A00725A771002004EB4002F8
:1078D000691C92F88A3289B26355B2F88A22130A77
:1078E0004A1C95B26354401C80B20628EED3012690
:1078F00012E084F8479284F80590A771082584F86F
:107900000790012608E084F8489284F80590A77152
:10791000082584F807900126002E3FF46CAEA81EBF
:1079200081B2A01C01F0B6FC691C89B26055030A43
:10793000481C82B2635421464046BDE8F05FFFF721
:10794000C8BB0000A4000020C0F8981200F5267003
:10795000FFF729BB10B500F52670FFF742FCA0F534
:10796000267000F20E20002120F80E1C8183782260
:1079700002844FF4117343844FF416738385818717
:107980000123C38702814FF49662A0F85E2040F283
:107990003F22A0F86020DC22A0F8622080F8381096
:1079A000A0F20E2010BD00007CB50520009001243F
:1079B000ADF80640ADF80440114E0421304601F008
:1079C0000BFF0546A102304601F006FF0543E10228
:1079D000304601F001FF05430A4945B14A681019D4
:1079E0004860052802DB009848600C807CBD486830
:1079F000001B48600028F9DC0020486008807CBD3E
:107A0000000C0140843400202DE9F0412DED028B63
:107A100084B01E26ADF808600125ADF80C500A2789
:107A2000ADF80A709FED4C0A8DED000A9FED4B0AF0
:107A30008DED010A4A4C94ED1F0A69464948FFF74B
:107A400043FD4FF49670ADF80800ADF80C50ADF85A
:107A50000A709FED450A8DED000A9FED440A8DEDF9
:107A6000010A94ED1D0A3F4869461030FFF72CFDCE
:107A7000B2EE020A8DED000AB2EE068A8DED018AA1
:107A800094ED1D0A374869461830FFF743FDB1EE03
:107A9000040A8DED000A8DED018A40F6B830ADF88C
:107AA00008006427ADF80C70ADF80A6094ED1D0A6B
:107AB00069462F48FFF72EFD94ED250A2C486946AC
:107AC0000830FFF727FDADF80870ADF80C504FF007
:107AD0000308ADF80A80B2EE0C0A8DED000AB2EE92
:107AE000080A8DED010A94ED1C0AB0EEC00A1D488B
:107AF00069462030FFF7E8FCADF80870ADF80C508F
:107B0000ADF80A80B3EE098A8DED008AB3EE060A5D
:107B10008DED010A94ED1E0AB0EEC00A11486946C7
:107B20002830FFF7D1FCADF80860ADF80C50ADF887
:107B30000A808DED008A9FED0F0A8DED010A94ED0C
:107B40001F0A084869460830FFF7E4FC04B0BDECA2
:107B5000028BBDE8F0810000000068420000664230
:107B6000E83900205C3400200000A042000096426A
:107B70006035002000000C420149016070470000A0
:107B8000A0B400082DE9F04104462DED048BF0EE81
:107B9000609A9FEDF19A10EE100A08EE100A10EEAE
:107BA000100AC4F8C400ED48D0ED1A1A18EE100AF5
:107BB000EB4AEC49904202DD9FEDEB8A05E018EEBE
:107BC000100A884201DAB2EE028AE848C06F01EE7C
:107BD000100AE74B11EE100AE64A984202DD9FEDCB
:107BE000E61A05E011EE100A904201DA9FEDE31A61
:107BF00011EE900AE24B0025984200DD25712079B4
:107C000004F14806DFEDDF8A48B301287DD16079B1
:107C1000DD4FE0B302283AD0012806D0032875D002
:107C2000B0EE490A84ED250A657194ED251A94EDAC
:107C3000290AB4EEC01AF1EE10FA01D8B0EE410AEA
:107C400010EE100A84ED250AD049D14AF2EE080A56
:107C5000BAEE082A88426EDDC4ED250AC0E0C4F8F9
:107C6000C05084ED239A84ED279A84ED2B9A11EE6F
:107C7000100A904220DD10EE100A88421CDDB4EE9E
:107C8000C18AF1EE10FA06DD81EE080A00E046E056
:107C900084ED2C0A07E088EE010AF0EE000A30EECF
:107CA000C00A84ED2C0A94ED2C0ADFEDBA0A30EEFE
:107CB000600A84ED2C0A01E084ED2C9A94ED2C0AE4
:107CC000B54910EE100A884204DD9FEDB40A84ED38
:107CD0002C0A06E0B5EEC00AF1EE10FA01D284EDEE
:107CE0002C9A24F8C85F6580A58004ED259A04EDE0
:107CF000249A04ED1D9A04ED1C9A04ED159A04EDE6
:107D0000149A14ED060A304601E004E03DE0FEF767
:107D10007BFC44ED088ABDEC048BBDE8F08194ED5A
:107D2000270A30EE610A9E4910EE100A884203DDF0
:107D3000B1EE040A07E04FE010EE100A99498842BC
:107D400001D9B9EE040AD4ED220A70EE600AF0EE11
:107D5000E00A10EE900AB84201DD84ED220A04F137
:107D6000680094ED220A8046FEF7F8FB84ED260AAF
:107D700094ED290A4046FEF736FC94ED290A404668
:107D8000B1EE400AFEF732FC4FE7D4ED230A30EEA5
:107D9000600A854910EE100A884202DD9FED830AD1
:107DA00006E010EE100A8249884201D99FED810A4F
:107DB00004F128008046FEF7D1FB84ED250A94EDFE
:107DC000290A4046FEF70FFC94ED290A4046B1EE21
:107DD000400AFEF70BFC28E7904201D984ED252AE2
:107DE0009FED750AD4ED251A80EE081AB4EEE11A5B
:107DF000F1EE10FA01DBB0EE611A84ED251AB0EE57
:107E0000490A39EEC00A31EE400A10EE100A8842E3
:107E100002DDB0EE600A05E010EE100A904201D9D2
:107E2000B0EE420AD4ED240A70EE600AF0EEE00AE9
:107E300010EE900AB84201DD84ED240A94ED240A84
:107E40003046FEF78BFB10EE100A5C49DFED5C0A52
:107E50005C4A9FED5D1A884202DDB0EE600A05E0E3
:107E600010EE100A904201D9B0EE410A20680128B4
:107E70000CD1D4F8B400884202DDC4ED2D0A03E031
:107E8000904201D984ED2D1A94ED2D0A84ED2B0A30
:107E9000DFED4E0A60EE200AFDEEE00AC4ED2F0A87
:107EA0000220A4F8C800D4ED2A0AF5EEC00AF1EECB
:107EB00010FA05DDB7EE001A70EEC10AC4ED2A0A09
:107EC000B5EEC00AF1EE10FA05D8A834A584658491
:107ED000C4ED008A1FE710EE100A3D49DFED3D0AB0
:107EE000884215DA20EE200ABDEEC00A10EE100A14
:107EF000A4F8CC0094ED2A0AB5EEC00AF1EE10FA0F
:107F000003DD7020A4F8CA0005E7A4F8CA5002E710
:107F100084ED2A9A9FED301A30EE410ADFED2F1AD8
:107F200070EE218A18EE900A884202DDF0EE418A56
:107F300006E0F5EEC08AF1EE10FA01D2F0EE498AC1
:107F4000CA3440F2A320608028EEA00ABDEEC00A29
:107F500010EE100A2080DEE600000000303900201C
:107F60000000A042000010410000A042E8390020BB
:107F70000000664200000C420000664200000C4215
:107F800000007C4200409C460AD7233C0000404150
:107F9000000040C19A99993E3333B33F3333B33F26
:107FA0000000A0400000A0C00000964200009642E1
:107FB000000096C2000096C2000016446666E63FC6
:107FC0006666E63F6666E6BF6666E6BF0000C842D4
:107FD0006666663F00803B446666663F6E12033D00
:107FE00090ED260A80ED250A7047000010B5083094
:107FF000FEF70EFB08382830FEF70AFB2838483019
:10800000FEF706FB48386830FEF702FB68389FED44
:108010000A0A80ED280AB2EE080A80ED290A9FEDCF
:10802000070A80ED310A0021417180ED2B0A0160C1
:1080300080ED2D0A10BD0000000066420000000027
:1080400010B50168072300204FF6FF720AE031F8EF
:108050001040944204D1441C31F81440944203D09F
:10806000401C80B29842F2D310BD70B505462C1D5D
:10807000002241F2481040F6B86134F812308342D1
:1080800002D924F8120003E08B4201D224F8121026
:10809000521C92B2062AF0D30C21281D01F0FAF8E6
:1080A00028820722291D2868BDE87040FDF7FFB926
:1080B0000A4600F10E0100F09AB80A4600F10801E4
:1080C00000F095B80A4600F10A0100F090B80A469F
:1080D000011D00F08CB80A4600F10C0100F087B8D1
:1080E0000A46811D00F083B82DE9F05F04468B46F7
:1080F000C4F800B02046FFF7A3FF80464FF6FF719B
:1081000001EA48090726D4F800A0251D4FF480573E
:10811000B8F1070F17D0B8F1000F51D0A9F1020242
:108120005946201DFDF7D6F8A9F102091FFA89F179
:10813000201D01F0AFF8A8F101083AF818108142AB
:1081400028D0002024E00E225946201DFDF7C2F859
:108150000C21201D01F09EF8218A814245D000208B
:10816000761E03E025F81070401C80B2B042F9DBA7
:108170000C21201D01F08EF820820722211D20688D
:10818000BDE8F05FFDF793B925F81070401C80B290
:108190004045F9DB1FFA88F0761E03E025F81070E1
:1081A000401C80B2B042F9DB0C21201D01F072F8B6
:1081B00020820722211D2068BDE8F05FFDF777B916
:1081C0000020761E03E025F81070401C80B2B042FB
:1081D000F9DB0C21201D01F05DF820820722211D12
:1081E0002068BDE8F05FFDF762B9BDE8F09F0020B0
:1081F000A2F6B863B3F5247F02D94FF48052012070
:108200000A807047704730B500230288511E89B23A
:10821000446804EB8105D5ED000AF4EEC00AF1EEE6
:1082200010FA01D2114619E0D4ED000AF4EEC00AAA
:10823000F1EE10FA10DD002110E05A18520804EB9C
:108240008205D5ED000AF4EEC00AF1EE10FA01DD68
:10825000114601E0521C93B29942EED88068042284
:1082600002EBC102024400EBC100D2ED000A90ED26
:10827000001A40EE010AB0EE600A30BD0088002806
:1082800000D0012070470180426083607047002168
:10829000018081604160704772B690F86C20D0F820
:1082A0008C1162F3000190F8502162F3C30190F841
:1082B000382062F30411027E62F34511C0F88C117C
:1082C00062B670472DE9F04104462DED028BDFF8D0
:1082D000EC8398ED1D0AB2EE048AF94D20EE080AEF
:1082E000BCEEC00A10EE100AA5F80402F54A92EDA1
:1082F000290A20EE080ABCEEC00A10EE100AA5F802
:108300000C024146F2EE040A91ED1C0A94F8E800D2
:10831000002720EE200A0228BCEEC00A7BD0A5F878
:108320001472A5F8087294F8E800022872D0A5F833
:108330000A7298ED1F0A60EE080AFCEEE00A10EEE1
:10834000900AA5F85C0294F8E800022878D0A5F815
:108350006072A5F85E72DC48D0ED190A9FEDDB0A69
:1083600005F5067500EE880ABDEEC00A10EE100A8B
:10837000A5F84A0014F8201F288861F3000020F0B7
:108380000200288094F8801161F3820020F0080038
:10839000288094F84C1061F3041020F040002880ED
:1083A000217C61F3C7102880217E203C61F30820E6
:1083B0002880688AA5F50675810701D5C00754D0C5
:1083C000D4F88C0140F00200C4F88C0105F22A2593
:1083D000288820F002002880688820F0020040F001
:1083E00001006880EF86A5F22A25B5F85E02B5F88F
:1083F00070129FEDB70A884253D9401A0A2849DD06
:1084000094ED510ADFEDB30A30EE600A84ED510AB3
:108410004DE000E00FE010EE100AA5F80802D8EDDC
:10842000220A60EE880AFCEEE00A10EE900AA5F837
:10843000140278E704E010EE100AA5F80A0278E7C3
:10844000D8ED1E0A20EE881ABCEEC11A11EE100AF1
:10845000A5F85E0220EE200A20EE080ABCEEC00A53
:1084600010EE100AA5F8600275E7D4F88C0120F030
:108470000200C4F88C01B5F82A0220F00100A5F82A
:108480002A02B5F82C0240F0020020F00100A5F805
:108490002C02AAE7D4ED510A30EEC00A84ED510A4D
:1084A00005E0D4ED510A30EE800A84ED510A94EDD6
:1084B000510A894910EE100A884204DDB2EE080A1A
:1084C00084ED510A08E0B5EEC00AF1EE10FA03D2CD
:1084D0009FED820A84ED510AB5F86E0200EE100A93
:1084E000B8EE400ADFED7E0A20EE200A82ED280A6F
:1084F00010EE100A7B49884204DD9FED7B0A82ED75
:10850000280A08E010EE100A7849884203DAB3EE30
:10851000090A82ED280A94F8E80085F83C027448BC
:1085200090ED0C0ABCEEC00A10EE101A85F83D1250
:1085300090ED0D0A20EE080ABDEEC00A10EE100AFA
:10854000A5F83E0295F84802A8B1B4F8E600401C30
:1085500080B2A4F8E600D4F88C1141F00401C4F80C
:108560008C1105280FD36348012101704170C806A2
:10857000FDF746FC07E0A4F8E670D4F88C0120F083
:108580000400C4F88C01B5F896025B4E012835D181
:1085900005F2722530462988FFF799FDB1885748C2
:1085A000FEF75EFB69883046FFF79AFDF188534875
:1085B000FEF782FBA9883046FFF77FFD31894F48DF
:1085C000FEF722FBE9883046FFF77CFD71894B48B6
:1085D000FEF730FB29893046FFF77DFDB18947481A
:1085E000FEF754FB69893046FFF762FDF189434885
:1085F000FEF7F4FA0220A884A5F27225B5F89602D7
:10860000022807D194F8E80020B93B48FFF72DFD78
:10861000A5F89672B08805F27E252880F0886880DB
:108620003089A8807089E880B0892881F0896881C4
:10863000D8ED1D0AB6EE000AB0EE401A00EE881A18
:10864000FCEEC10A10EE900AA881D8ED250AB0EE22
:10865000401A00EE881AFCEEC10A10EE900AE8817A
:10866000D8ED1F0AB0EE401A00EE881AFCEEC10ADF
:1086700010EE900A2882D8ED1C0AB0EE401A00EEE7
:10868000881AFCEEC10A10EE900A6882D8ED240A1E
:10869000B0EE401A00EE881AFCEEC10A10EE900A05
:1086A000A882D8ED1E0A00EE880ABCEEC00A10EEC1
:1086B000100AE882BDEC028BBDE8F081E8390020A9
:1086C000BC3C00200C3B00204C3400200000C84380
:1086D0006F12833A0BD7A33B00004041000000001B
:1086E000CDCCCC3D00006842000068420000C8418B
:1086F0009C3A002000BF0020BC41002030390020FF
:1087000070B504462DED028B84B07449D1F89C00FD
:10871000734A01260025904202DC724A904206DA32
:10872000A4F8AE60B3EE090A84ED190A09E0A4F8D2
:10873000AE5091ED270A04F14C00FDF783FF84ED64
:10874000190ADFED690ACDED000A9FED681A8DED7B
:10875000011A4FF41670ADF808003C21ADF80A106C
:10876000ADF80C6094ED198AF4EEC80AF1EE10FA37
:1087700008D2226F11442167814212DB2067A4F8DE
:108780006C600EE0B0EE480AB4EEC01AF1EE10FADA
:1087900007DD216F881B2067002802DC2567A4F80D
:1087A0006C50B0EE480A04F17400FDF782FEB0EEA2
:1087B000480A04F19400FDF77CFE4D48007928BB7F
:1087C000B4F86C00012821D0B4F8A800401C80B295
:1087D000A4F8A80041F27071884203D3A4F8A8104D
:1087E000A4F8AA50B4F8AA004249A0B1B4F8800095
:1087F000B4F8A82012B1022800D3022091F8452233
:10880000824200D91046A4F8AC0008E0A4F8A850B1
:10881000A4F8AA60E6E791F84502A4F8AC00364A4D
:10882000B4F8AC3034482032062B43D2DFE803F0F2
:10883000030D18232E3981F8465241F2C1210368F5
:1088400043F480530360116034E0142381F846320E
:108850004FF42261036843F480530360116029E000
:108860001E2381F846324FF4B461036843F4805309
:10887000036011601EE0282381F846324FF4347102
:10888000036843F480530360116013E0322381F8DE
:1088900046324FF4F071036843F480530360116073
:1088A00008E05A2381F846320021036843F48053DC
:1088B00003601160B4F8A00005280AD20F4901EB4B
:1088C000800090ED000A84ED290A04B0BDEC028B13
:1088D00070BDB5EE000A84ED290AF6E7E8390020FC
:1088E00000D040450000C8420000C8420000964247
:1088F0000C3B0020BC3C00202008004070B4000865
:108900002DE9F04704462DED068B208C4100208E8A
:1089100041EA8000C4F89001218A228F41EA420195
:10892000C4F89811B4F86C20B4F8AE3042EA4302AF
:10893000C4F89C21002801D101B90AB1012000E04E
:108940000020C4F8A00194F8E8100025F44E022994
:1089500000D03560D4F88C118A079FEDF28A00D4DC
:1089600008B184ED518A890701D584F8E850218D3A
:1089700019B184F8E850A4F8FC5020B1042084F820
:10898000E800A4F8FC5094F8E800E74F4FF0020923
:10899000B0B1022839D0042807D084F8E850E04864
:1089A0000571BDEC068BBDE8F087A4F8FC50DC48EF
:1089B0000571D4F8A0010028F3D184F8E850F0E75D
:1089C00034F8FC0F401C2080D5480021017134F898
:1089D000FC09B0F57A7FE4D994F88C018007E0D4E3
:1089E0009FEDD20AFC3484ED0C0A356084ED0E0A4A
:1089F000A587CF48FDF782FE258097ED1D0A04ED7F
:108A0000040A04F8149C7571CBE770794FF0030ADF
:108A100068B9D4F8EC00A0F18341B1F5701F04D916
:108A2000C4490844B0F51C0F01D886F805A0D4ED60
:108A3000510AC6ED290A7079B0EE00AADFEDBEAA90
:108A4000DFEDBE9ADFF8F882B2EE089ADFEDBD8A5C
:108A500020B1032853D0022851D0EAE097ED1D0A37
:108A600094ED3B1A31EE4A1AB4EEC10AF1EE10FA57
:108A700009D897ED1C0A30EE6A0A84ED4D0A41F2DE
:108A80008830A4F83801B4F8380110B1401EA4F8B9
:108A90003801B4F8380128B994ED4D0A30EE280AAF
:108AA00084ED4D0A94ED4D0A10EE100A404502DDAA
:108AB00084ED4D9A06E0B5EEC00AF1EE10FA01D24F
:108AC00084ED4D8A94ED4D0AF4EEC00AF1EE10FAF1
:108AD00001D9F0EE400A10EE900AC6ED290AB0F175
:108AE000824F04DDB2EE000A86ED290AA1E0F5EE20
:108AF000C00AF1EE10FA01D286ED298A99E094EDD0
:108B00003B0A8B48FDF71EFFB4F80001401C80B201
:108B1000A4F8000132280AD3A4F80051D7ED220AA4
:108B200097ED1D0A8248FDF709FE86ED230A97EDB1
:108B30001F0AD6ED280AB4EEE00AF1EE10FA10DDB5
:108B4000B0EE480A7A48FDF7C1FD86F80590786FC7
:108B50007D49884205DA97ED1C0A30EE6A0A84EDF9
:108B60004D0A97ED1F0AD6ED280A70EECA0AB4EE38
:108B7000E00AF1EE10FA06D2B0EE690A6C48FDF791
:108B8000A5FD86F805A0786FB0F1834F16DB6F491D
:108B9000884213DC96ED290A6D4910EE100A8842CE
:108BA00004DDB2EE0E0A86ED290A21E0B5EEC00A18
:108BB000F1EE10FA1CD286ED298A19E05D4949428E
:108BC000884215DB6349884212DC96ED290A624926
:108BD00010EE100A884204DDB2EE040A86ED290A7E
:108BE00006E0B5EEC00AF1EE10FA01D286ED298A50
:108BF00094ED4D0A30EE280A84ED4D0A10EE100A6D
:108C0000404502DD84ED4D9A06E0B5EEC00AF1EE76
:108C100010FA01D284ED4D8A96ED290AD4ED4D0A61
:108C2000B4EEE00AF1EE10FA01D9B0EE600A86ED7A
:108C3000290A97ED220AD4ED290A60EEA90AB4EEBA
:108C4000E00AF1EE10FA06DD94ED520A30EE680A01
:108C500084ED520A05E094ED520A30EE280A84EDC4
:108C6000520A94ED520A10EE100A404502DD84EDDE
:108C7000529A06E0B5EEC00AF1EE10FA01D284ED88
:108C8000528A96ED290AD4ED520AB4EEE00AF1EECA
:108C900010FA01D9B0EE600A86ED290AD4ED4B0A2C
:108CA00070EEA80AC4ED4B0A97ED1C1AF7EE001AF5
:108CB00031EE211AB4EEE01AF1EE10FA02D284ED90
:108CC0004B1A06E0F5EEC00AF1EE10FA01D284ED7F
:108CD0004B8AD4ED4B0AB4EEE00AF1EE10FA01D95A
:108CE000B0EE600A86ED290A96ED280A1B4910EEBF
:108CF000100A884204DD9FED1A0A86ED280A06E074
:108D0000B5EEC00AF1EE10FA01D286ED288A96ED92
:108D1000280A86ED270A02480121017141E6000078
:108D20000C3B002000000000E8390020CDCC4C3F77
:108D30009C3A00200000FCBDCDCC4C3E0000164407
:108D4000000040416F12833A000030410000BC41F6
:108D5000000070410000A042000020410000664277
:108D60000000664210B504469FED200A2048F0EE50
:108D7000400AFDF753FE1F491F48FEF7E5FD1F4B54
:108D80001F4A922104F15800FDF75AFC1B4B1C4A64
:108D9000922104F14C00FDF753FCB0EE000A194A91
:108DA000062104F17400FDF77FFB164A9FED160AB9
:108DB000083A032104F18400FDF776FB114B0421EE
:108DC0002433A3F1100204F5B270FFF75CFA0D4AE8
:108DD000B0EE000A4C32052104F19400FDF764FB6B
:108DE000B7EE000A84ED290A10BD00000000000063
:108DF000C439002038000020BC3C002074AF0008BB
:108E00002CAD000814B40008CDCC4C3D70470000D8
:108E100070B50446002594F880010726062811D273
:108E2000DFE800F003171F253137D4F8900150B167
:108E3000D4F8940138B11948C06FB0F1834F01DD07
:108E400084F8806170BD012084F88001A4F882510B
:108E500070BDFDF7BBF8022084F88001A4F88251B0
:108E600070BDFDF7A3F8032084F8800170BDB4F84D
:108E70008201401C80B2A4F882010428F6D30420A9
:108E800084F8800170BDFCF787FB052084F8800121
:108E900070BDFCF780FB84F8806170BDE83900206C
:108EA00010B50830FEF75CFB08381030FEF758FBB1
:108EB00010381830FEF754FB18382030FEF750FBFE
:108EC00020382830FEF74CFB28383030FEF748FBBE
:108ED00030383830FEF744FB38384C30FDF7F4FBBF
:108EE0004C385830FDF7F0FB58386C30FEF738FB43
:108EF0006C387430FDF72EFB74388430FDF72AFB94
:108F000084389430FDF726FB9438B430FEF728FB04
:108F1000B438BC30FEF724FBBC38C430FEF720FB6D
:108F2000C438CC30FEF71CFBCC38D430FEF718FB2D
:108F3000D438DC30FEF714FBDC3800F58A70FEF71D
:108F40000FFBA0F58A7000F58E70FEF709FBA0F507
:108F50008E7000F5A870FEF703FBA0F5A87000F571
:108F6000AC70FEF7FDFAA0F5AC7000F5B270FFF73B
:108F70008EF9A0F5B27000F5B870FEF7F1FAA0F521
:108F8000B87000F5BC70FEF7EBFAA0F5BC700021DC
:108F90000C3020F80A1C4163018701224287C187F7
:108FA000818780F87C11A0F8D8100B4AC0F878218E
:108FB00080F87411042280F8DC209FED080A80ED0F
:108FC0004A0A80ED4E0AB2EE080A80ED4F0AA0F878
:108FD0002C110C3810BD000088000020000000009B
:108FE00010B51248FDF776FF10489430FDF7BAFD32
:108FF0000E48B830FEF740FA0D48FEF7BDFD0D48AB
:10900000FDF704FD0B483830FDF700FD09487030CE
:10901000FEF7ECFF0848FEF7E9FF0748D830FEF7F7
:1090200099FCBDE810400548FFF7ECB83039002046
:10903000880000209C3A0020E43B0020BC41002036
:109040000148FFF72DBF00004C3400200148FDF718
:1090500089BF000070420020816841F008018160F2
:1090600081680907FCD4816841F00401816081684E
:109070004907FCD47047521E01290DD002290AD19C
:10908000816B21F440118163816B4FF4401303EA3B
:109090000252114381637047C16A21F47001C162B9
:1090A000C16A4FF4700303EA02521143C162704770
:1090B000002904D0816841F40061816070478168B3
:1090C00021F400618160704710B5144940180FD039
:1090D000B0F5806F16D0B0F5C05F1DD140F20F34EF
:1090E000204600F073FE2046BDE8104000F060BE50
:1090F00040F20934204600F069FE2046BDE81040E9
:1091000000F056BE40F20A34204600F05FFE2046D2
:10911000BDE8104000F04CBE10BD000000DCFEBFFA
:10912000816841F48071816070478168C90703D10B
:10913000816841F0010181607047002A0CD0CA07A4
:1091400003D0826842F480128260890703D5816867
:1091500041F4004181607047CA0703D0826822F45D
:10916000801282608907F6D5816821F40041816010
:109170007047012909D0022906D1816821F4E04114
:1091800081608168114381607047816821F46021AA
:1091900081608168114381607047000004490A685A
:1091A00022F470220A600A6802430A6070470000D5
:1091B0000424014030B51F24062909D2456B01EB78
:1091C00081018C40A54302FA01F42C43446318E06A
:1091D0000C290AD2056B891F01EB81018C40A54344
:1091E00002FA01F42C4304630BE0102909D2C56A8A
:1091F0000C3901EB81018C40A54302FA01F42C43A8
:10920000C46207250A2A08D2046902EB42018D4094
:10921000AC438B402343036130BD122AFCD2C468A7
:109220000A3A02EB42018D40AC438B402343C360BA
:1092300030BD50F8802F22F44052026002680A4389
:1092400002607047002A12D0CA0503D5426842F472
:10925000807242604A0503D5426842F480624260EF
:10926000890703D5816841F0020181607047CA0512
:1092700003D5426822F4807242604A0503D54268F1
:1092800022F4806242608907F0D5816821F00201F2
:109290008160704770B504460E460D48008800286E
:1092A00001D1FCF76FFF4FF6FF70002C0FD00022AA
:1092B00008490AE014F8013B80EA0305EBB231F8F3
:1092C000133083EA1020521C92B2B242F2D370BD26
:1092D000340000203037002070B505460C4621468A
:1092E000284600F0EDF840B104EB840005EB800067
:1092F000816821F00101816070BDFEE770B505460F
:109300000C462146284600F0DBF840B104EB84000F
:1093100005EB8000816841F00101816070BDFEE7CE
:1093200070B505460C462146284600F0C9F840B104
:1093300004EB840005EB8000816841F0200181602E
:1093400070BDFEE770B504460D462946204600F084
:10935000B7F898B105EB850004EB8002906820F027
:109360000100906000209060D060106150616068E2
:10937000AA000F2191400843606070BDFEE743687A
:1093800089008A40134343607047006889008A401F
:10939000104201D0012070470020704770B506468A
:1093A0000D4614462946304600F08AF848B305EBCE
:1093B000850006EB800022680261A1684161218A74
:1093C00089B2C160816821F47C52E3686168194305
:1093D0006369134319438160217E012912D081689A
:1093E00021F040018160617E012910D0816821F067
:1093F00080018160A17E79B1816841F010018160B6
:1094000070BDFEE7816841F040018160EBE7816853
:1094100041F080018160EDE7816821F010018160F9
:1094200070BD70B506460C4615462146304600F024
:1094300047F838B104EB840006EB800081682943CB
:10944000816070BDFEE7436889008A401343436032
:10945000704710B58C001346A24001EB810100EB70
:109460008101022B04D0042B08D0082B0CD0FEE77E
:1094700000681040896801F002010AE000681040AD
:10948000896801F0040104E000681040896801F077
:10949000080110B109B1012010BD002010BD70B548
:1094A00006460C4615462146304600F009F828B11C
:1094B00004EB840006EB8000456170BDFEE7000010
:1094C00002460120034B9A4202D1042900D9002010
:1094D000704700000004024070B506460C46154671
:1094E00021463046FFF7ECFF30B104EB840106EB78
:1094F0008101A8B2C86070BDFEE700B5034600F068
:1095000009F85B1E012801D1002BF8D1012800D1F8
:10951000042000BD00200849CA68D20701D00120FC
:109520007047CA68D20601D503207047C968490749
:10953000FBD50220704700000020024000B5034622
:1095400000F00AF85B1E012801D1002BF8D1012898
:1095500000D1042000BD000000200849CA6CD207D9
:1095600001D001207047CA6CD20601D50320704794
:10957000C96C4907FBD5022070470000002002405B
:10958000F0B504460D462048204E214F0088B0F526
:10959000007F26D91F48844211D23846FFF7ADFF1D
:1095A00000280BD1306940F0010030612580384639
:1095B000FFF7A3FF316921F001013161F0BD3846A9
:1095C000FFF7BCFF0028F9D1306D40F00100306595
:1095D00025803846FFF7B2FF316D21F0010131657A
:1095E000F0BD3846FFF789FF0028F9D1306940F017
:1095F0000100306125803846FFF77FFF316921F097
:1096000001013161F0BD0000E0F7FF1F00200240C2
:109610000000FF0FFFFF07080748016941F08001C4
:10962000016106490988B1F5007F03D9016D41F058
:10963000800101657047000000200240E0F7FF1F35
:1096400070B504462748284D284E0088B0F5007FA5
:1096500032D92748844215D23046FFF74EFF002802
:109660000FD1286940F0020028616C61286940F040
:10967000400028613046FFF740FF296921F00201D0
:10968000296170BD3046FFF759FF0028F9D1286DD8
:1096900040F0020028656C65E869800700D56C61C0
:1096A000286D40F0400028653046FFF747FF296DE0
:1096B00021F00201296570BD3046FFF71EFF00282A
:1096C000F9D1286940F0020028616C61286940F0F6
:1096D000400028613046FFF710FF296921F00201A0
:1096E000296170BDE0F7FF1F002002400000FF0F5E
:1096F000FFFF070809480169094A0B06094901D516
:1097000042604160084B1B88B3F5007F04D9036DAC
:109710001B0601D5426441647047000000200240EE
:1097200023016745AB89EFCDE0F7FF1F416170472B
:10973000016170472DE9F04301F00F04CD0602D519
:10974000042A18D0144300224FF00F0C012707FA07
:1097500002F51D401AD0D0F8009096000CFA06F8D9
:1097600029EA080904FA06F848EA0908282908D06D
:10977000482908D008E044F00304C26B1A43C263CE
:10978000E1E7456100E00561C0F80080521C92B23B
:10979000082ADCD3082207FA02F51D4016D0D0F8BB
:1097A0000490A2F10806B6000CFA06F829EA0809A6
:1097B00004FA06F848EA0908282902D0482902D004
:1097C00002E0456100E00561C0F80480521C92B2DD
:1097D000102AE0D3BDE8F0838068084201D0012060
:1097E0007047002070470000F0B5154C002801DAE2
:1097F000E36900E06368C0F30346420D120185B2DD
:10980000C0F301579540032F07D0C2020CD50322A5
:10981000B240934343F0E06209E023F0E062636802
:1098200023F0E063636002E0AB4343F0E06201B128
:109830002A43002801DAE261F0BD6260F0BD000059
:109840000000014010B54FF4A0414FF0006000F05F
:1098500067F8FCF721FC002010BD00F01F02012179
:1098600091404009800000F1E020C0F8801170476D
:1098700070B505460E460023002423480168C1F355
:109880000221072932D00168C1F3022106292FD015
:109890000168C1F3022105292DD00168C1F302211D
:1098A00004292BD00068C0F30220032829D04FF4EC
:1098B000A06000F02BF802230224C3F104008640CC
:1098C000C4F104010F20C84010403043000105F1ED
:1098D000E02181F8000405F01F010120884069099A
:1098E000890001F1E021C1F8000170BD0424E4E722
:1098F00001230324E1E702230224DEE703230124FA
:10990000DBE70423D9E700000CED00E0024908433F
:1099100002490860704700000000FA050CED00E005
:10992000034A1140014303480160BFF34F8F704762
:1099300080FFFF1F08ED00E070B50446124EB568C9
:109940003068001D00F0F1FD38B93068012190F851
:109950002C008140F0688843F0602C4430684460FB
:10996000AC4206D23168B06B091DBDE8704000F012
:109970002BBE3168706B091D00F026FE706A8442B0
:1099800000D2746270BD0000A800002070B50446CB
:1099900000F03EFE1C4D6868401C6860286810B1ED
:1099A000286938B10CE02C606868012808D100F003
:1099B0009DF805E02868E16AC06A884200D82C60FA
:1099C000286A401C2862E06A0121EA68814011434C
:1099D000E9600E4900EB800001EB8000211D00F0E2
:1099E0000BFE00F023FE286900280CD02868E16AED
:1099F000C06A884207D206494FF080500860BFF322
:109A00004F8FBFF36F8F70BDA8000020D0410020A2
:109A100004ED00E07047416A002904D0006B006843
:109A2000C0F105007047002070470000074E4FF05E
:109A30008054074DFFF7EEFF30680128FAD92C60FB
:109A4000BFF34F8FBFF36F8FF4E70000D0410020CA
:109A500004ED00E003460098002905D00260C363CE
:109A60000164012100F0E4BE0060F8E72DE9F04751
:109A70008246DDE908570A9C9946521E206B00EB8E
:109A8000820020F00708002600290CD000202318AF
:109A90000A5C83F834200A5C12B1401C1028F6D30B
:109AA00084F8436001E084F83460052D00D3042578
:109AB000E5626564A664201D00F083FD04F11800D2
:109AC00000F07FFD2461C5F10500A0616462E664D9
:109AD00084F850604A465146404600F093F82060B2
:109AE000002F00D03C60BDE8F087000070B5002476
:109AF0000E4D04EB840005EB800000F057FD641C64
:109B0000052CF6D30948643000F050FD0748783042
:109B100000F04CFD05488C3000F048FD0349044836
:109B2000643141631431816370BD0000D041002075
:109B3000A800002010B5044600F06AFDA06B20B11B
:109B4000002400F073FD204610BD0124F9E7000059
:109B50000648416B0968002904D0416BC96809684F
:109B6000416270474FF0FF3141627047A80000200A
:109B7000BF2080F31188BFF34F8FBFF36F8FFEE7D5
:109B80002DE9F041044600F043FD94F9455004F1FD
:109B9000240609E0606A48B1304601F033F808B1A4
:109BA00000F064FD6D1E6DB2002DF3DC4FF0FF364A
:109BB00084F8456000F03AFD00F02AFD94F9445025
:109BC00004F1100709E0206948B1384601F01AF89D
:109BD00008B100F04BFD6D1E6DB2002DF3DC84F872
:109BE0004460BDE8F04100F021BD00000449086870
:109BF000002803D00868826C521C82640868704791
:109C0000A800002024384FF08073036221F0010186
:109C1000C1610449816142606FF0020140F820197E
:109C200070470000719B000810B5124B5968124A2A
:109C30001140DA6A22F000520C2817D2DFE800F057
:109C400006060606160916091010101041EA8031A2
:109C50000CE020F0040041EA803040F0805105E043
:109C600020F00C0041EA803142F000525960DA6283
:109C700010BD000000100240FF3FFFEF70B588B03C
:109C80000346002035A104AE91E83400C96834C60B
:109C9000079133A106C9CDE9021231A106C9CDE968
:109CA0000012324C6168C1F38101314A002930D081
:109CB00001292ED002292CD1616801F48031B1F53F
:109CC000803F11D052106168C1F3834165682D0156
:109CD00001D541F0100165686D0001D541F020010A
:109CE0000F290ED2891C13E0E16A01F0804101B115
:109CF000204A616801F40031B1F5003FE3D1520818
:109D0000E1E7A1F10F052F2D01D8491C00E03F210B
:109D10004A436168C1F3031104AD695C22FA01F1A1
:109D20006568C5F3022502AE755D21FA05F5646824
:109D3000C4F3C2241DF8044021FA04F443B1012BFA
:109D400008D0022B08D0032B00D1204608B070BDEC
:109D50001046FBE70846F9E72846F7E70000000051
:109D60000000000001020304060708090010024079
:109D700000127A00006CDC02054901EB90110A68C0
:109D800000F01F030120984082430A6070470000E2
:109D900000100240054901EB90110A6800F01F0312
:109DA0000120984002430A60704700000010024002
:109DB000054901EB90110A6800F01F03012098404B
:109DC00082430A607047000000100240054901EB21
:109DD00090110A6800F01F030120984002430A60B6
:109DE000704700000010024000212A48026842F437
:109DF000803202604FF6FF73491C026802F40032A1
:109E00000AB99942F8D10168890300D4FEE7C16913
:109E100041F08051C16120490A6842F440420A6021
:109E20004268426042684260426842F48062426036
:109E3000426822F440324260426842F4403242605A
:109E40004268164B1A4042604268154B1A43426002
:109E5000026842F08072026002689201FCD50A68D2
:109E600042F480320A604A68D203FCD50A6842F4A0
:109E700000320A604A689203FCD5416821F0030170
:109E80004160416841F00201416041680907FCD529
:109E9000704700000010024000700040FFFFC3B791
:109EA00000003408FFF7A0BF10B50A884B88CC88A3
:109EB0001A438B8823431A430B891A434B89898998
:109EC0001A430A43426410BD30B5734B734C0029EA
:109ED00029D0012960D002297ED0032922D1016A2C
:109EE00021F480510162C16921F44071C161016AAC
:109EF000158841EA05310162016A21F400510162CD
:109F0000016A958841EA05310162984201D0A04278
:109F100008D1416821F4804141604168128941EAD9
:109F20008211416030BD016A21F001010162816945
:109F300021F003018161016A158829430162016AE8
:109F400021F002010162016A958829430162984269
:109F500001D0A042E6D1016A21F004010162016A48
:109F6000538819430162016A21F008010162016A04
:109F7000D38819430162416821F4807141604168CE
:109F8000138919434160416821F4007141604168BF
:109F900052891143416030BD016A21F01001016214
:109FA000816921F440718161016A158841EA0511D6
:109FB0000162016A21F020010162016A958841EA8B
:109FC00005110162984201D0A042E4D1016A21F05A
:109FD00040010162016A00E01FE0538841EA031179
:109FE0000162016A21F080010162016AD38841EABD
:109FF00003110162416821F4806141604168138965
:10A0000041EA83014160416821F400614160416897
:10A01000528941EA8201416030BD016A21F48071B8
:10A020000162C16921F00301C161016A158841EA39
:10A0300005210162016A21F400710162016A9588BB
:10A0400041EA05210162984201D0A042E4D1016AAF
:10A0500021F480610162016A538841EA03210162AF
:10A06000016A21F400610162016AD38841EA032197
:10A070000162416821F4805141604168138941EADD
:10A0800003114160416821F40051416041685289E7
:10A0900041EA0211416030BD002C01400034014012
:10A0A00000290ED0012914D002291BD0032907D181
:10A0B000C16921F48061C161C16941EA0221C161C4
:10A0C0007047816921F004018161816911438161D7
:10A0D0007047816921F480618161816941EA0221CF
:10A0E00081617047C16921F00401C161C1691143F7
:10A0F000C161704700290ED0012914D002291BD05C
:10A10000032907D1C16921F4E041C161C16941EA74
:10A110000221C1617047816921F07001816181690B
:10A12000114381617047816921F4E0418161816956
:10A1300041EA022181617047C16921F07001C1616A
:10A14000C1691143C1617047002907D0012907D0B7
:10A15000022907D0032900D1026470474263704787
:10A1600082637047C263704700290ED0012914D062
:10A1700002291BD0032907D1C16921F40061C16103
:10A18000C16941EA0221C1617047816921F008017A
:10A1900081618169114381617047816921F40061A6
:10A1A0008161816941EA022181617047C16921F0C1
:10A1B0000801C161C1691143C161704741627047C3
:10A1C00010B5344A811A141590424DD014DCB0F108
:10A1D000804F2DD03049401832D0A0423AD0B0F54F
:10A1E000006F55D140F203442046FFF7EFFD2046B3
:10A1F000BDE81040FFF7DCBDA1423FD0B1F58E3F76
:10A200000CD0B1F5923F43D140F20D342046FFF718
:10A21000DDFD2046BDE81040FFF7CABD40F20B341B
:10A220002046FFF7D3FD2046BDE81040FFF7C0BD34
:10A230002046FFF7CBFD2046BDE81040FFF7B8BD34
:10A2400040F201442046FFF7C1FD2046BDE8104022
:10A25000FFF7AEBD40F202442046FFF7B7FD2046AF
:10A26000BDE81040FFF7A4BD40F204442046FFF7CC
:10A27000ADFD2046BDE81040FFF79ABD40F2054411
:10A280002046FFF7A3FD2046BDE81040FFF790BD34
:10A2900010BD00000010004000FCFFBF016841F04D
:10A2A000010101607047000030B50A8882621C4BD2
:10A2B0001C4A98420DD0B0F1804F0AD01A4CA042EF
:10A2C00007D01A4CA04204D0194CA04201D09042B1
:10A2D0000BD1046824F07004046004684D882C439A
:10A2E000046004688D882C4304608C68C462114C3F
:10A2F000A0420AD0104CA04207D0046824F4407455
:10A3000004600468CD882C430460984201D09042D8
:10A3100001D1097B0163416941F00101416130BD17
:10A32000002C0140003401400004004000080040BF
:10A33000000C00400010004000140040826822F031
:10A340007002826082680A4382607047426822F02D
:10A350007002426042680A4342607047002906D09A
:10A36000012903D1816821F08001816070478168F3
:10A3700041F0800181607047826822F007028260AC
:10A3800082680A4382607047016821F0020101601F
:10A390007047002906D0012903D1016821F004018A
:10A3A00001607047016841F00401016070470000DE
:10A3B00070B504460D460020174BE21A1E159C424C
:10A3C00016D008DC154962180ED0B24217D102200F
:10A3D000FFF754FC13E0B2420ED0B2F56C4F0ED131
:10A3E0000320FFF74BFC0AE00220FFF747FC06E0E2
:10A3F0000220FFF743FC02E00220FFF73FFC00EBE6
:10A400005500B0FBF5F04FF6F071014000F00F027F
:10A410001143A16070BD0000004C004000BCFFBFB4
:10A4200050F8802F22F40062026002680A43026042
:10A4300070474068C0F308007047000010B5214A1B
:10A44000811A1315904228D00EDC1F4940181AD0EB
:10A45000984236D140F212442046FFF7B7FC20461E
:10A46000BDE81040FFF7A4BC994220D0B1F56C4F75
:10A4700027D140F20E342046FFF7A8FC2046BDE865
:10A480001040FFF795BC40F211442046FFF79EFCB8
:10A490002046BDE81040FFF78BBC40F21344204635
:10A4A000FFF794FC2046BDE81040FFF781BC40F266
:10A4B00014442046FFF78AFC2046BDE81040FFF711
:10A4C00077BC10BD004C004000BCFFBF426922F0C9
:10A4D00080020A4342617047C16841F40051C16083
:10A4E0007047C26822F4C062C260C2680A43C26098
:10A4F0007047C26822F004020A43C26070470269D2
:10A5000022F44052026102690A4302617047C26844
:10A5100022F008020A43C2607047C26822F48052E7
:10A52000C260C2680A43C26070470169D0E9013263
:10A530009A60D0E901235A604A68824201D1826858
:10A540004A60002202610868401E0860086870477F
:10A55000044B036003F1540008604FF40070106076
:10A5600070470000EC000020F8B50025009500249D
:10A570000D4E04EB440206EB82008188491C89B22F
:10A58000818036F82220914200D3858081884288DC
:10A59000914203D18068694600F086F9641CA4B238
:10A5A000042CE6D3F8BD00000400002000F10801EF
:10A5B00041604FF0FF328260C160016100210160A3
:10A5C000704700210161704730B50C68621C02D0F1
:10A5D00000F1080202E0026904E01A4653681D68AF
:10A5E000A542FAD953684B6099608A60516008614E
:10A5F0000168491C016030BD42684A6093688B6005
:10A6000093685960916008610168491C0160704756
:10A61000BF2080F31188BFF34F8FBFF36F8F0248C5
:10A620000168491C01607047E40000200449086883
:10A63000401E0860002801D180F311887047000097
:10A64000E40000204FF0E020002101618161024917
:10A650004161072101617047BFD401000249CA6905
:10A660000260896841607047A8000020014901200C
:10A6700088617047A800002010B50C46054909689C
:10A680001831FFF7A1FF2046BDE810400121FFF778
:10A6900053B90000A800002070B50A4604460028FF
:10A6A00033D0616C914200D21146E06A88422CD0CE
:10A6B000A26C012A29D1E162A269002A02DBC1F160
:10A6C0000501A161114D00EB8000616905EB80007F
:10A6D00081421AD1201DFFF728FF0D49012230B910
:10A6E00094F82C00CB6802FA00F08343CB60E06A58
:10A6F000CB6882401A43CA6000EB800005EB800003
:10A70000211DBDE87040FFF777BF70BDD04100202C
:10A71000A800002030B587B000240694059404AA50
:10A7200005A906A8FFF714FFDDE90510CDE90041F2
:10A73000029000230FA11148049A00F09BF9104DDC
:10A74000A86208B1012000E0002001280ED1BF203E
:10A7500080F31188BFF34F8FBFF36F8F4FF0FF303F
:10A76000686201202861AC6000F038F8E86A07B040
:10A7700030BD000049444C45000000002D9A0008FF
:10A78000A80000200248016B491C016370470000CB
:10A79000A80000200F4A106B002802D00120906111
:10A7A000704700209061D068B0FA80F0C0F11F00BF
:10A7B000094900EB800001EB800041684968416075
:10A7C00000F10803994201D1496841604068C068BE
:10A7D00010607047A8000020D041002010B50C4840
:10A7E000016841F47F010160016841F07F4101602F
:10A7F000FFF728FF074900200860FAF70FFD064819
:10A80000016841F040410160FAF7F4FC002010BDFE
:10A8100020ED00E0E400002034EF00E038B51C46F5
:10A82000049B002C02D00094FFF714F9204638BD99
:10A8300070B504460D46FFF7EBFED4E90F12206811
:10A8400001FB0200A0600020A06320686060E06B54
:10A85000226C2168401E00FB0210E0604FF0FF30C8
:10A8600084F8440084F8450004F110004DB1FFF76E
:10A870009DFE04F12400FFF799FEFFF7D7FE0120AB
:10A8800070BD21690029F8D000F0BCF90028F4D08F
:10A8900004494FF080500860BFF34F8FBFF36F8FB4
:10A8A000EBE7000004ED00E070B50D46BF21EFF3CB
:10A8B000118481F31188BFF34F8FBFF36F8F836BC8
:10A8C000C16B994217D990F945205B1C8363511CD9
:10A8D00004D0521C80F8452001200DE0416A002977
:10A8E000FAD0243000F08EF90028F5D0002DF3D0F6
:10A8F00001202860F0E7002084F3118870BD00007B
:10A900002DE9F34383B004460025A94600264FF005
:10A910008057DFF80C81FFF77BFEA06BC8B1401EAB
:10A92000A063206810B9FFF761F9A060206950B1F9
:10A9300004F1100000F066F928B1C8F80070BFF308
:10A940004F8FBFF36F8FFFF771FE012005B0BDE899
:10A95000F083049808B125B107E0FFF767FE0020F7
:10A96000F4E701A8FFF77AFE0125FFF75FFEFFF786
:10A9700009FFFFF74DFE94F94400401C01D184F813
:10A98000446094F94500401C01D184F84560FFF70C
:10A990004DFE04A901A800F045F8C8B12046FFF714
:10A9A000EFF800F063F92046FFF7C4F80028B2D0B2
:10A9B000B9F1000F0AD0FFF72BFE2046FFF72BF866
:10A9C0000146A068FFF768FEFFF730FE0020BDE7F4
:10A9D0002046FFF7AFF8E0B1206838B9FFF718FE5E
:10A9E000A06800F0C7F88146FFF720FE04F12400BC
:10A9F0000499FFF741FE2046FFF7C2F800F036F950
:10AA0000002888D1C8F80070BFF34F8FBFF36F8F55
:10AA100081E72046FFF7B4F800F028F97BE7000053
:10AA200004ED00E02DE9F04105460C46FFF7F0FD8E
:10AA30000F4882686B68D11A2E68C7690020BE4231
:10AA400004D0934202D8012520600BE022688A429C
:10AA500006D9501A20602846FFF700FE002501E0C5
:10AA600020600125FFF7E2FD2846BDE8F0810000E7
:10AA7000A8000020F0B585B00746DDE90A600C9C0F
:10AA80000025002C0DD060B1206304A8CDE9006042
:10AA9000CDE902453846FEF7E9FF2046FEF776FF8E
:10AAA00000E00495049805B0F0BD00002DE9F041E8
:10AAB00000262E4F386B002807D07869401C78613B
:10AAC000FFF752FD3046BDE8F081BD686D1CBD60EA
:10AAD00045B9786BB96B7963B863F869401CF86164
