:020000040800F2
:10500000D85A002095520008DF5E0008B954000805
:10501000DD5E00081B540008D55F0008000000009A
:10502000000000000000000000000000D551000852
:105030009D5400080000000031520008415F000844
:10504000AF520008AF520008AF520008AF5200083C
:10505000AF520008AF520008AF520008AF5200082C
:10506000AF520008AF520008AF5200081D540008AC
:10507000AF520008AF520008AF520008AF5200080C
:10508000AF520008AF520008AF520008AF520008FC
:10509000AF520008AF520008AF520008AF520008EC
:1050A000AF520008AF520008AF520008AF520008DC
:1050B000AF520008AF520008AF520008AF520008CC
:1050C000AF520008AF520008AF520008AF520008BC
:1050D000AF520008AF520008AF520008AF520008AC
:1050E000AF520008AF520008AF520008AF5200089C
:1050F000AF520008AF520008AF520008AF5200088C
:10510000AF520008AF520008AF520008AF5200087B
:10511000AF520008AF520008AF520008AF5200086B
:10512000AF520008AF520008AF520008AF5200085B
:1051300000F002F800F03EF80AA090E8000C82446B
:105140008344AAF10107DA4501D100F033F8AFF248
:10515000090EBAE80F0013F0010F18BFFB1A43F055
:1051600001031847BC580000DC580000103A24BF67
:1051700078C878C1FAD8520724BF30C830C144BFBC
:1051800004680C60704700000023002400250026FE
:10519000103A28BF78C1FBD8520728BF30C148BF9A
:1051A0000B6070471FB505F075F800F0BDF81FBD26
:1051B00010B510BD00F0CAF81146FFF7F3FF03F079
:1051C000FBFD00F0E8F803B4FFF7F2FF03BC00F0CA
:1051D000EBF800002C4B19680868B0E8F04F80F33A
:1051E0000988BFF36F8F4FF0000080F3118870477C
:1051F0000000000008480068006880F308884FF04D
:10520000000080F3148862B661B6BFF34F8FBFF31E
:105210006F8F00DF00BF00BF08ED00E0DFF80C007B
:10522000016841F470010160704700BF88ED00E043
:10523000EFF30980BFF36F8F134B1A681EF0100F46
:1052400008BF20ED108A20E9F04F106009B44FF03C
:10525000BF0080F31188BFF34F8FBFF36F8F04F04F
:1052600053FD4FF0000080F3118809BC19680868ED
:10527000B0E8F04F1EF0100F08BFB0EC108A80F3BA
:105280000988BFF36F8F7047A4000020EFF30580FB
:10529000704700000948804709480047FEE7FEE7DD
:1052A000FEE7FEE7FEE7FEE7FEE7FEE7FEE7FEE7D6
:1052B00004480549054A064B704700006D5F000829
:1052C00031510008D8520020D85A0020D85600206A
:1052D000D85600204FF0000200B51346944696467B
:1052E000203922BFA0E80C50A0E80C50B1F12001F9
:1052F000BFF4F7AF090728BFA0E80C5048BF0CC0A7
:105300005DF804EB890028BF40F8042B08BF704704
:1053100048BF20F8022B11F0804F18BF00F8012B76
:10532000704770477047704770B5064C7C44064D17
:105330007D4403E0206820448047241DAC42F9D11D
:1053400070BD00001057000018570000754600F0AF
:1053500031F8AE4605006946534620F00700854601
:1053600018B020B5FFF7A4FFBDE820404FF00006BD
:105370004FF000074FF000084FF0000B21F007013D
:10538000AC46ACE8C009ACE8C009ACE8C009ACE880
:10539000C0098D46704710B50446AFF30080204623
:1053A000BDE81040FFF70FBF01491820ABBEFEE774
:1053B0002600020000487047785200207047000025
:1053C000054A002803D00121104603F06BBC0121DF
:1053D000104603F065BC0000001001402DE9F041CB
:1053E00006460C461746B7F5806F14D872B603F020
:1053F0003BFC304603F0DEFB002507E02188304609
:1054000003F078FBA41CB61C6D1CADB2BD42F5D3F5
:1054100003F0BCFB62B6BDE8F081FEE710B51B4CA3
:1054200002220021204603F0CEFA01282CD10222CC
:105430000021204603F0C1FA1549164C606A8880A5
:1054400001F12000144A018A91848188A2F8541045
:10545000018991870188118341881180418AA2F8CE
:10546000601081891186C0891146A1F8480008465C
:1054700001F0ABF900F08EFB0549606AC880BDE819
:105480001040084601F0E8BA10BD000000000240DC
:105490008C41002000100040283900207047B7EEF2
:1054A000002AF0EE401A32EE602A22EE011AB0EE27
:1054B000410A01EEA00A7047FEE7704770470000FE
:1054C0002DE9F04188B0012003F068FE4FF4A060A0
:1054D00003F01AFF894C0021204603F0EDF98848BB
:1054E00001904015029087480390E0140490052035
:1054F00005904FF44050069000208DF81C000121CB
:105500008DF81D108DF81E0001AA0021204603F021
:10551000FFF90021204603F0BDF9022200212046B8
:1055200003F039FA002211460B2003F05BFC40F235
:10553000096003F0E9FE40F20A6003F0E5FE704EF8
:105540004C3E304603F07AF86F4F384603F076F859
:105550004FF4C025284603F0DBF84FF48078012291
:105560004146304603F028F901224146384603F00F
:1055700023F92A460121304603F0B5F84FF46022A2
:105580000121384603F0AFF80021304603F00BF953
:105590000021384603F007F90021304603F042F8B5
:1055A0000021384603F03EF805220121304603F081
:1055B0001CF805220121384603F017F801230E22BA
:1055C0000021304603F0B0F801230222194630468C
:1055D00003F0AAF8012303220221304603F0A4F8C5
:1055E00001230A220321304603F09EF801231A46C4
:1055F0000421304603F098F80123042200213846A4
:1056000003F092F801230D221946384603F08CF876
:1056100001230B220221384603F086F801230C22D5
:105620000321384603F080F801230F220421384675
:1056300003F07AF801221146304603F038F80122CF
:105640001146384603F033F8304D0223042200217E
:10565000284603F029FB04231A460021284603F0BC
:1056600023FB082304220021284603F01DFBDFF85A
:10567000A080012304220021404603F015FB1023E3
:1056800004220021404603F00FFB102304220021D6
:10569000284603F009FB082304220021404603F0BA
:1056A00003FB022304220021404603F0FDFA0423F9
:1056B0001A460021404603F0F7FA20230422002175
:1056C000404603F0F1FA304602F0E9FF00F05AFDDF
:1056D000304602F07BFF384602F0E1FF00F052FD59
:1056E000384602F073FF304602F0D4FF0021204616
:1056F00003F0BEF808B0BDE8F081000000000240F1
:105700004C240140AC410020002801400008014029
:10571000001001401FB54FF4C06003F0F5FD4FF4D9
:10572000A06003F0ADFB40F2047003F0EDFD114CFE
:10573000204603F0FFFF0021ADF80010ADF8021085
:10574000ADF80410ADF806104FF6FF7202928DF816
:105750000C106946204604F061F80021204603F051
:10576000E7FF204604F054F89FED030A034880ED5C
:10577000000A1FBD001000407D3F553F8C410020B6
:1057800070B540F2026003F0BFFD40F2036003F029
:10579000BBFD40F2046003F0B7FD4FF4C06003F0BE
:1057A000B3FD01211E4803F0D9FA1E4C01231A460D
:1057B0001021204603F078FA1B4EA5142B46012237
:1057C0001021304603F070FAE314012228213046FC
:1057D00003F06AFA2B46154D01222821284603F0D2
:1057E00063FA042301222821284603F05DFA4FF4CE
:1057F0000046334601221021204603F055FA0823C3
:1058000001221021284603F04FFA3146204603F0CA
:1058100047FA2846BDE87040082103F041BA00006D
:10582000000230000008014000100140000C01405F
:105830002DE9F04F8BB04FF4E06003F065FD4FF0C1
:10584000804003F077FF0024ADF81C40ADF81E4007
:10585000ADF82040ADF8224041F26F7009908DF80C
:10586000284007A94FF0804003F0D8FF4FF0804058
:1058700004F044F800214FF0804004F044F8002187
:105880004FF0804003F054FF2021480604F018F840
:105890000120ADF81000ADF81240ADF81440ADF89D
:1058A0001640ADF81840ADF81A4004AA012180074F
:1058B00003F0C4FD022104AA480703F0BFFD012143
:1058C000C822880703F0FAFE0221C822480703F025
:1058D000F5FE01217022880703F0C6FE0221702226
:1058E000480703F0C1FE40F20B6003F00DFDA44831
:1058F00003F020FFADF81C404026ADF81E60ADF867
:105900002040ADF822404FF4167709978DF82840D3
:1059100007A99B4803F082FF0021994803F008FF84
:105920000021974803F0D4FF0421954803F0DEFFDF
:105930001021934803F0BCFFADF81040ADF81240C1
:10594000ADF81440ADF81640ADF81840ADF81A4067
:1059500004AA00218A4803F071FD04AA01218848A5
:1059600003F06CFD4FF47A720021854803F0A6FE27
:105970004FF47A720121824803F0A0FE0422002134
:105980007F4803F047FE042201217D4803F042FED8
:10599000702200217A4803F067FE602201217848D6
:1059A00003F062FE08220021754803F097FE0822EA
:1059B0000121734803F092FE4FF40068ADF80080B7
:1059C000ADF802404FF03009ADF80490ADF8064054
:1059D0003502ADF80850ADF80A40ADF80C40694604
:1059E000674803F01BFD40F2026003F08DFC40F2BB
:1059F000036003F089FCAB1101221821614803F018
:105A000053F96B11012218215E4803F04DF9DFF8BC
:105A100078A16B1001221821504603F045F92B465E
:105A200001221821504603F03FF940F20D6003F0C7
:105A30006BFCDFF858B1584603F07CFEADF81C4013
:105A4000ADF81E60ADF82040ADF8224009978DF802
:105A5000284007A9584603F0E1FE0021584603F00C
:105A600067FE0021584603F033FF0421584603F037
:105A70003DFF1021584603F01BFFADF81040ADF874
:105A80001240ADF81440ADF81640ADF81840ADF82E
:105A90001A4004AA0021584603F0D0FC04AA0121B0
:105AA000584603F0CBFC4FF47A720021584603F0BD
:105AB00005FE4FF47A720121584603F0FFFD0422DF
:105AC0000021584603F0A6FD04220121584603F0A8
:105AD000A1FD70220021584603F0C6FD602201217D
:105AE000584603F0C1FD08220021584603F0F6FD98
:105AF00008220121584603F0F1FDADF80080ADF811
:105B00000240ADF80490ADF80640ADF80850ADF88D
:105B10000A40ADF80C406946584603F07FFC40F25D
:105B2000026003F0F1FB40F2036003F0EDFB40F292
:105B3000046003F0E9FB164C802304221821204660
:105B400003F0B2F8012304221821504603F0ACF808
:105B5000402304221821204603F0A6F880230422C3
:105B60001821084803F0A0F8054803F051FEA004EE
:105B700003F04EFE584603F04BFE0BB0BDE8F08F2D
:105B8000002C014000080140000C0140003401409D
:105B9000001001402DE9F047804800F067FE7F4C7F
:105BA000D4ED0B0A94ED110A7D4801F0C9FCD4ED47
:105BB0000E0A94ED140A7B4801F0C2FC7A4CD4F82A
:105BC0008001016889688847204602F0D7FB94F875
:105BD0008801774A81067548764D774CA0F1040319
:105BE000A2F104094FF0000625D5296821F0100123
:105BF0002960296821F0400129600660286820F0AA
:105C000001002860286820F0040028601E602068D9
:105C100020F010002060206820F040002060166016
:105C2000206820F001002060206820F0040020603F
:105C3000C9F8006080E05A49B1F8AC70B1F9B0C061
:105C400057B1C0F800C0286840F0100028602868EC
:105C500040F0400028600CE0D5F800C02CF0100C9B
:105C6000C5F800C0D5F800C02CF0400CC5F800C045
:105C70000660B1F9AEC04FF41678012F1AD0022F8A
:105C80002CD0286820F001002860286820F004004B
:105C900028601E604349B1F8AC50B1F9B0008DB333
:105CA0001060206840F010002060206840F0400044
:105CB000206031E0CCF5167000B2404501D9404675
:105CC00002E0002800DA00201860286840F0010097
:105CD0002860286840F004002860DBE7CCF51C70E1
:105CE00001B2414501D9414602E0002900DA002114
:105CF0001960286840F001002860286820F004003E
:105D00002860C7E7FFE7206820F0100020602068C7
:105D100020F0400020601660B1F9AE70012D13D064
:105D2000022D26D0206820F001002060206820F09D
:105D300004002060C9F80060204801F003F8BDE8C5
:105D4000F0471F4800F0A1BFC7F5167002B24245E8
:105D500001D9424602E0002A00DA0022C9F80020F8
:105D6000206840F001002060206840F004002060BE
:105D7000E2E7C7F51C7003B2434501D9434602E090
:105D8000002B00DA0023C9F80030206840F0010041
:105D90002060206820F004002060CDE72839002032
:105DA000A83A0020603B002048340020382C0140F5
:105DB00038340140202C014020340140D4390020E7
:105DC000783E00200B2003F002F8384803F0B2FCC4
:105DD0004FF0804003F0AEFC354803F0ABFC354893
:105DE00003F0A8FC344803F0A5FC344803F0A2FCFF
:105DF000334803F09FFC334802F020FC324802F0A5
:105E00001DFC324C0021204602F056FD03212046A5
:105E100002F052FD2E4803F0CBFD4FF4C06003F0BA
:105E200065FA40F2026003F061FA40F2036003F0A9
:105E30005DFA40F2046003F059FA40F20B6003F09F
:105E400055FA4FF4E06003F051FA40F2017003F0AC
:105E50004DFA40F2027003F049FA40F2037003F089
:105E600045FA40F2047003F041FA40F20D6003F08D
:105E70003DFA4FF4A06003F039FA40F2096003F0F4
:105E800035FA40F20A6003F031FA40F20E6003F096
:105E90002DFABFF34F8F0F4801680F4A01F4E061FC
:105EA00011430160BFF34F8FFEE70000002C01405B
:105EB0000004004000080040000C004000100040BA
:105EC000003401400024014000280140000002404D
:105ED000003801400CED00E00400FA05FEE77047D1
:105EE0002DE9F0470546DDF820900E461746984606
:105EF00012480078002801D100F0ECF80F49032D7A
:105F000019D2EFF31180202282F3118805EB4502AC
:105F100001EBC204183435B126606760C4F808800C
:105F200000212161E160C4F81490C0B280F31188AF
:105F30000020BDE8F0874FF0FF30FAE7C0410020B5
:105F400010B5BF2080F31188BFF34F8FBFF36F8F61
:105F500004F066F818B104494FF080500860002042
:105F600080F3118810BD000004ED00E082B01648F7
:105F7000016841F4700101601448016841F00101B9
:105F80000160416841F0800141600023019344F6C3
:105F9000206102E0019A521C0192019A8A42F9D3CF
:105FA000416821F0030141600168094A1140016024
:105FB0004FF41F018160016821F48021016043607A
:105FC000C36202B003F028BA88ED00E0001002407E
:105FD000FFFFF6FEFEE7000010B5064C202120462C
:105FE00002F05EFE204620230122BDE81040282159
:105FF00002F05ABE000C014000218181C18170472E
:10600000010100CCCCCCCC0000000000000000005E
:10601000010100CCCCCCCC0000000000000000004E
:1060200001CCCCCCCCCCCC000000000000000000A7
:10603000FEB51948042200F15401CDE90021029077
:106040000023D20115A1184803F0CEFF0024174EFB
:10605000174F032504EBC40006EBC00300221146D2
:106060000120009503F094FE04EB440107EB81014D
:106070008860641CA4B2042CECD30C4B0022483B77
:1060800011460120009503F083FE0949091F0860AD
:10609000BDE8FE4003F0F8BD8C2A002073746172E5
:1060A00074207461736B0000D162000828330020F3
:1060B0000400002010B5064C2023012210212046A8
:1060C00002F0F2FD2046BDE81040202102F0EABDBA
:1060D000000C014010B5134CA8212046FFF7FAF838
:1060E00003202061606110A0A06104F1A800E061BC
:1060F0004FF4805020620020A0626062E0620AA13A
:1061000021660C4961661021A1662067E066606720
:106110000949C0F10F028A5C2254401C1028F8D3B0
:1061200010BD0000C04100205465726D696E616C45
:106130000000000068520020F8A9000830B50021D6
:1061400000200B4600224AF2010480EA0305ED0715
:1061500002D084EA500000E040085B08521C92B272
:10616000082AF2D3054A22F81100491C89B2FF29F6
:10617000E6D903490120088030BD000028370020FF
:106180003400002000200249401C8842FCD37047A4
:1061900040420F00134DDFF85080144C4FF0FF3693
:1061A0004FF400573146E86A03F064FE0128F9D144
:1061B000208820B13946404602F074FD03E039469C
:1061C000404602F06DFD208850B100222280084830
:1061D000826D521C8265022AE4D101214180E1E7EF
:1061E0000122F3E70400002000100140E600002037
:1061F000483400200D4C4FF0FF352946A06803F0CD
:1062000039FE0128F9D10A4801F0EAFB084801F0FB
:10621000E5FE074801F0FEFB064801F0FDFA0648DE
:1062200001F0FAFA054800F031FFE6E7040000202B
:1062300048340020A83A0020603B0020183C002091
:106240000C4D0D4C4FF0FF363146686903F012FEDD
:106250000128F9D1D4F8800101684A6890470648BE
:1062600001F092FD054800F049FE044800F0DEFD13
:10627000EAE700000400002048340020D439002060
:106280000F4D104F104C4FF0FF363146286A03F087
:10629000F1FD0128F9D1208820B10121384602F012
:1062A00001FD03E00121384602F0FAFC208828B104
:1062B00000202080054802F063F8E6E70120F8E7B7
:1062C0000400002000080140E400002048340020C1
:1062D0000EB502258023344A34A101200095FFF732
:1062E000FFFD364801F0F4FFFFF714FAFFF748FA14
:1062F000FFF7E6F8FFF79CFA3149324801F006FB58
:10630000304CE188304800F093FAE1882F4800F0E3
:10631000B2FEA1882C4800F088FAA1882B4800F032
:10632000A5FE2189284800F087FA2189274800F036
:10633000A7FE2748052200F15401CDE900212C02D7
:1063400002900023224623A1254803F04DFE254854
:10635000032300F15401CDE90031029000232246CD
:1063600021A1244803F040FE2348029000F154018B
:10637000CDE900510023224620A1234803F034FE3A
:106380002248012200F15401CDE9002102900023AE
:1063900022461FA1204803F027FE204CED1E29466F
:1063A000206803F067FDFAE7A83600204A53636FC0
:1063B00070655F69326932693269320048340020A1
:1063C00000F80308E040002028390020183C002095
:1063D0003C090020326D73207461736B0000000073
:1063E000F56100089011002031306D7320746173E5
:1063F0006B00000041620008E41900203130306D6C
:1064000073207461736B00008162000838220020E1
:106410003173207461736B009561000800000020E7
:106420000180426080ED020A704710B5C189D0ED4D
:10643000020A426800290AD192ED001A31EE201AB0
:10644000B4EEC01AF1EE10FA01DD81813BE0038861
:106450001C465B1E8B420DD1A41E02EB840494EDFE
:10646000001A31EE601AB4EEC01AF1EE10FA01D241
:10647000818128E04C1E02EB840494ED001A31EE79
:10648000601AB4EEC01AF1EE10FA0CD202EB8104DD
:1064900094ED001A71EE200AF4EEC00AF1EE10FA43
:1064A00001DD81810FE000210AE002EB8104D4EDDF
:1064B000000AF4EEC00AF1EE10FA03DC491C89B2BE
:1064C0008B42F2DC81818189C18110BD90ED071A78
:1064D000F7EE000AD0ED001A70EEC10A60EEA10AD4
:1064E00041EE000AC0ED000A90ED031A90ED020A99
:1064F00000EE801A80ED031A90ED050AB4EEC01A82
:10650000F1EE10FA02DD80ED030A08E0D0ED061A84
:10651000B4EEE11AF1EE10FA01D2C0ED031A90EDDB
:10652000031AD0ED011A01EEA01A80ED041AB4EEA0
:10653000C01AF1EE10FA02DD80ED040A08E090EDD9
:10654000060AB4EEC01AF1EE10FA01D280ED040A88
:1065500090ED040A704780ED050A704780ED060A49
:10656000704780ED010AC0ED020A80ED051AC0ED0A
:10657000061A80ED072A704790ED030A704780EDF8
:10658000030A70479FED0A0A80ED000A80ED010AB8
:1065900080ED020A80ED050A80ED060A80ED030A0F
:1065A00080ED040AB7EE000A80ED070A704700008C
:1065B0000000000001F00BBA10B504462DED028B6F
:1065C000B0EE408A204601F0FDF988B1DFED151AE2
:1065D0009FED151A68EE210A80EE810A71EEC00A5D
:1065E000124910EE900A884207DDF0EE610A0BE0D6
:1065F000BDEC028B9FED0E0A10BD10EE900A0D4906
:10660000884201DADFED0C0AB2EE041A20EE011A1C
:1066100081EE200ABDEC028B2046BDE8104001F05F
:1066200096B9000033335340000080453333534064
:10663000000000006F12833A6F12833A01F0CBB969
:106640009FED0C0A80ED080A002180F83010DFED84
:106650000A0AC0ED030A4A1E8261DFED080AC0ED96
:10666000010A416180ED090AB2EE040A80ED0A0ACE
:10667000704700000000B442000000000000164413
:1066800010B52DED0A8B72B69FED3E0A80ED030A20
:106690009FED3D0A80ED040ADFED3C0AC0ED050ADE
:1066A00080ED060AC0ED070A9FED390A80ED080A61
:1066B00062B69FED388ADFED388A9FED389ADFEDBC
:1066C000389AB7EE002AF0EE681AB2EE041AF0EE2D
:1066D000490AB0EE690A3348FFF743FF9FED32AA3B
:1066E000DFED32AA9FED32BADFED32BA2D48B0EEBF
:1066F000482AF0EE4A1AB0EE6A1AF0EE4B0AB0EEF3
:106700006B0A2030FFF72DFF9FED2CCA2548B0EE15
:10671000482AFAEE041AB2EE041ADFED270AB0EEA8
:106720004C0A4030FFF71DFFB7EE002AF0EE681A62
:10673000B2EE041AF0EE490AB0EE690A2048FFF7FB
:1067400010FF1F48B0EE482AF0EE4A1AB0EE6A1A5F
:10675000F0EE4B0AB0EE6B0A2030FFF702FFB0EE0E
:10676000482AB0EE4C0ABDEC0A8BFAEE041AB2EEDF
:10677000041A1348BDE81040DFED120A4030FFF75D
:10678000F0BE000066661E3CD9CE893B0000043D89
:106790000000843C8E8E0E3FCDCCCCBD52499D383E
:1067A00060E5503ECC3A002052B8DEBF52B8DE3F22
:1067B000BA03E937F99E113BAC1D1536CF48803F2F
:1067C000843B00204FFB1436704730B5B0F86E1094
:1067D000012929D0B0F86C10491C89B2A0F86C10BE
:1067E000B1F5804F20D350F8701F41F38F31818075
:1067F000026942F38F3282827038A1F26C714FF4D9
:10680000967501234FF40064A94203D9A0F886309D
:10681000A0F87440A2F26C72AA4203D9A0F88630A4
:10682000A0F88440A0F86E3030BDA1F632717047F8
:10683000A1F6327170470000A1F63272B2F5CD7F39
:1068400001D94FF4805100EE101ADFED060AB8EEC0
:10685000400A20EE200ADFED040A20EE200A80ED37
:106860000A0A7047D9CE893B000080395B4991ED17
:10687000040ADFED5B0A30EE200A81ED040A10EE17
:10688000102A584B9A4205DDDFED570A30EE600AB8
:1068900081ED040AB0F90020D0ED010A00EE102AC3
:1068A000B8EEC00A20EE200A80ED020AB0F91820E6
:1068B000D0ED070A00EE102AB8EEC00A20EE200A3A
:1068C00080ED080AB0F92420D0ED0A0A00EE102A63
:1068D000B8EEC00A20EE200A80ED0B0AB0F9302095
:1068E000D0ED0D0A00EE102AB8EEC00A20EE200A04
:1068F00080ED0E0AB0F93C20D0ED100A00EE102A0F
:10690000B8EEC00A20EE200A80ED110AB0F9482046
:10691000D0ED130A00EE102AB8EEC00A20EE200ACD
:1069200080ED140AB0F95420D0ED160A00EE102ABA
:10693000B8EEC00A20EE200A80ED170AB0F96020F8
:10694000D0ED190A00EE102AB8EEC00A20EE200A97
:1069500080ED1A0A2548D0ED110AB2EE040A60EE65
:10696000800AFDEEE00A10EE902A0A80D0ED0B0AB4
:1069700060EE800AFDEEE00A10EE902A4A80D0ED2B
:10698000140A60EE800AFDEEE00A10EE902A8A807A
:10699000D0ED0E0A60EE800AFDEEE00A10EE902ABD
:1069A000CA80D0ED170A60EE800AFDEEE00A10EE14
:1069B000902A0A81D0ED020A60EE800AFDEEE00A1C
:1069C00010EE900A48810A48D0ED1C0A20EE800A99
:1069D000BDEEC00A10EE100A888170478C000020BE
:1069E000FCAD803CDA0FC940DA0FC94028390020DD
:1069F000D439002000214830C18481849FED120ADF
:106A000000ED110AB7EE000A00ED0B0ADFED0F0AE8
:106A100040ED080A9FED0E1A00ED021A40ED050A3E
:106A200080ED011ADFED0B0AC0ED040A80ED070AC4
:106A3000816201638163C1874FF400618185818632
:106A4000818748387047000066661E3CD9CE893B76
:106A50000000043D0000843CC1888288891A89B204
:106A60000181C2685318C360028A521C92B202822A
:106A7000B2F5804F11D39A0B426100EE102AD0ED8F
:106A8000000AB8EE400A20EE200ABCEEC00A10EE62
:106A9000102A82830022C2600282826991420DD94B
:106AA00000EE101A8161D0ED000AB8EE400A20EE27
:106AB000200ABCEEC00A10EE101AC18370470021F4
:106AC000C160018241618161704730B50346B3F80E
:106AD0003201904200D802465879022801D00020A5
:106AE00030BD00245C71002004E01D18AD790D5408
:106AF000401C80B29042F8D31046A3F8324130BD1A
:106B000030B587B00446206800287DD00025257167
:106B10006571A4F8325184F83451008802F0F4FB16
:106B20002068408802F0F0FB2068808802F0ECFBCF
:106B30002068C08802F0E8FB4FF4C06002F0E4FB7C
:106B40002068806802F034FF2068016A806802F0E3
:106B5000E9FE2068C169806802F07DFF2068016954
:106B6000806802F094FF20688169806802F081FFEC
:106B700020684169806802F00DFF20680421806868
:106B800002F071FF20688021806802F059FF2068C0
:106B9000806802F05BFF206801221821836A406A46
:106BA00002F082F8206801224821036BC06A02F0DB
:106BB0007BF82068C06B10B1012102F0CFF820688B
:106BC000B0F8400002F0A0FB206890F84810406C3C
:106BD00001F072FE2068C06C00900195029503954B
:106BE00002200490C00205908DF8185001208DF805
:106BF00019008DF81A0020686A4690F84810406C19
:106C000001F086FE206800E00EE0C08802F07CFB08
:106C1000206801221021836B406B02F045F8206848
:106C2000816B406B02F03CF807B030BD70B5044694
:106C30000E4615462079012826D02068816B406BCE
:106C400002F030F82068324690F84810406C01F0AD
:106C5000E0FE20682A4690F84810406C01F0F6FEED
:106C60002068012290F84810406C01F042FE206834
:106C70000821806802F005FF206890F84810406CF9
:106C800001F0F6FD0120207170BD70B5044620684A
:106C9000816809688DB290F84810406C022201F0BA
:106CA0002EFE0026012819D1680617D52671206806
:106CB0000021806802F0E5FE2068012290F848106B
:106CC000406C01F016FE206890F84810406C01F00E
:106CD000BDFD2068816B406B01F0E2FFA80615D571
:106CE0006079022801D1A4F832610120607184F832
:106CF00034612068806802F056FEB4F83221A11D8C
:106D00005054B4F83201401CA4F8320194F8340114
:106D1000401CC0B284F8340121680222898988426B
:106D200005D384F83411B4F8320100B16271B4F8BB
:106D30003201B0F5967F00D3627170BD0021016011
:106D40007047000070B504462DED028B354D95ED72
:106D5000020AD4ED000A30EE200A84ED000A95ED17
:106D60000B0AD4ED010A30EE200A84ED010A95EDFC
:106D7000110AD4ED020A30EE200A84ED020A95EDE4
:106D80000E0AD4ED030A30EE200A84ED030A95EDD5
:106D9000140AD4ED040A30EE200A84ED040A95EDBD
:106DA000170AD4ED050A30EE200A84ED050A95EDA8
:106DB000110AD5ED0B0A94ED071A00EE201A84EDA6
:106DC000071A95ED140AD5ED0E0A94ED081A00EE97
:106DD000201A84ED081AA08D401CA08595ED080AA4
:106DE0009FED118A94ED211AF0EE480AFEF757FB49
:106DF00084ED210A95ED1A0A94ED221AF0EE480A64
:106E0000FEF74DFB84ED220A95ED020A94ED261A59
:106E1000F0EE480AFEF743FB84ED260ABDEC028B38
:106E200070BD0000283900200AD7233C10B5044665
:106E30002DED028BB7EE000AB4F85C0000EE900A6C
:106E4000B8EE601AC0EE010A94ED0C0A20EE200A9A
:106E500084ED180A94ED0D0A20EE200A84ED190A3B
:106E600094ED0E0A20EE200A84ED1A0A94ED0F0A22
:106E700020EE200A84ED1B0A94ED100A20EE200A71
:106E800084ED1C0A94ED121A21EE201A84ED1D1ACD
:106E900094ED131A21EE201A84ED1E1A94ED151AA2
:106EA00021EE201A84ED1F1A94ED161A61EE200AC5
:106EB000C4ED200A9FED108A94ED251AF0EE480AE1
:106EC000FEF7EDFA84ED250A94ED231A94ED1A0AE3
:106ED000F0EE480AFEF7E3FA84ED230A94ED241A53
:106EE00094ED190AF0EE480AFEF7D9FA84ED240A67
:106EF000BDEC028B10BD0000CDCC4C3D90ED000AE6
:106F000080ED0C0A90ED010A80ED0D0A90ED020A69
:106F100080ED0E0A90ED030A80ED120A90ED040A4E
:106F200080ED130A90ED050A80ED0F0A90ED070A37
:106F300080ED100A90ED080A80ED150A90ED090A1F
:106F400080ED160A818DA0F85C109FED0D0A80ED92
:106F5000000A80ED010A80ED020A80ED030A80ED4F
:106F6000040A80ED050A80ED060A80ED070A80ED2F
:106F7000080A80ED090A80ED0A0A00218185704720
:106F8000000000009FED100A80ED000A80ED010A6C
:106F900080ED020A80ED030A80ED040A80ED050A07
:106FA00080ED070A80ED080A0021818580ED210A25
:106FB00080ED220A80ED230A80ED250A80ED260A65
:106FC00080ED240A7047000000000000D1ED000AA7
:106FD000F4EEC00AF1EE10FA0CD2B1F90A304268B0
:106FE0001A444260B1F908108A4202DB4160012173
:106FF00001807047D1ED010AF4EEC00AF1EE10FAFB
:10700000F7DDB1F90C104268511A41600029F0DC3B
:107010000021416001807047D1ED000AF4EEC00A02
:10702000F1EE10FA0CDDB1F90A3042681A44426000
:10703000B1F908108A4202DB4160012101807047EA
:10704000D1ED010AF4EEC00AF1EE10FAF7D2B1F96F
:107050000C104268511A41600029F0DC00214160A7
:10706000018070470021018041607047A0F8401204
:10707000A0F842127047A0F83C12A0F83E127047E8
:10708000A0F84412A0F84612704700002DE9F0471E
:1070900004460026B4F83602401C80B2A4F836023A
:1070A0004FF00108192801D9A4F8388204F51870A6
:1070B0004FF4807204F580718146FFF706FDA4F855
:1070C0000002062810D90027A4F83672A4F83872F6
:1070D00094F80011844D5A2903D194F80111A5297F
:1070E00004D02868401C2860BDE8F08794F802119D
:1070F000C02901D0A12903D194F80311E02903D0BC
:107100002868401C2860EFE7001F81B204F58170F9
:1071100001F07AFB0146B4F8000204F1FE02835C40
:10712000521C805C43EA0020814203D02868401C46
:107130002860D9E75A202070A52002236070E02043
:10714000A07094F802014FF0040CE07094F8040170
:107150000525207194F8051194F8062141EA0221D1
:1071600006224FF00A0A05285BD006DC05281BD250
:10717000DFE800F00C1B24434D0006285AD00728F6
:1071800066D00F287ED0F0280ED18EE06271A771F4
:10719000E77184F8088084F80980A77284F80B806E
:1071A0000D2584F80C80012688E084F80580A771FD
:1071B00094F830020825E07101267FE084F805A0EC
:1071C000A771B4F80402E071000A2072B4F8060254
:1071D0006072000AA072B4F80802E072000A20731C
:1071E000B4F80A026073000AA073B4F85002E073A6
:1071F000000A11252074012660E06371A771B4F8BC
:107200000E02E071000A09252072012656E0637122
:10721000A771B4F81202E071000A09252072012654
:107220004CE084F80580A77194F831020825E071DC
:10723000012643E019B194F80701A4F8200284F86C
:107240000580A77194F822020825E071012635E037
:1072500079B194F8070194F8081140EA0120A4F8E4
:107260005A0294F8090194F80A1140EA0120A4F89E
:107270005C0284F805C0A771B4F85A02E071000AF4
:10728000207200E007E0B4F85C026072000A0B258F
:10729000A072012612E084F8338284F80580A77179
:1072A000082584F80780012608E084F8348284F8F1
:1072B0000580A771082584F807800126002E3FF479
:1072C00022AFA81E81B2A01C01F09EFA691C89B2EF
:1072D0006055030A481C82B2635421464846BDE803
:1072E000F047FFF7A3BC0000A0000020C0F8601228
:1072F00000F51870FFF704BC10B500F51870FFF723
:107300001DFDA0F5187000F50070002101800184BA
:10731000782282844FF42F72C2844FF41672C28591
:10732000C18601210187642181814FF41172A0F887
:107330005A20A0F85C10A0F5007010BD7CB50520A7
:1073400000900124ADF80640ADF804400F4E210333
:10735000304601F0FBFC05460421304601F0F6FC06
:1073600005430B4945B14A6810194860052802DBFE
:10737000009848600C807CBD4868001B486000286D
:10738000F9DC0020486008807CBD0000000C014052
:10739000983400202DE9F0412DED028B84B01E279A
:1073A000ADF808700125ADF80C500A20ADF80A00C0
:1073B0009FED580A8DED000A9FED570A8DED010AE9
:1073C000564C94ED1B0A69465548FFF7FFFD4FF4F4
:1073D0009670ADF80800ADF80C506426ADF80A6060
:1073E0009FED500A8DED000A9FED4F0A8DED010AC9
:1073F00094ED1A0A4A4869461030FFF7E7FD94ED0C
:107400001E0A474869461830FFF7E0FDB2EE000A51
:107410008DED000AB2EE020A8DED010A94ED1A0A12
:107420003F4869462030FFF7F7FD94ED1E0A3C48BF
:1074300069462830FFF7F0FDB1EE040A8DED000A31
:10744000B2EE060A8DED010A40F6B830ADF808003C
:10745000ADF80C60ADF80A7094ED1A0A694633482D
:10746000FFF7DAFD94ED1E0A304869460830FFF751
:10747000D3FDADF80860ADF80C504FF00308ADF83F
:107480000A80B2EE088A8DED008AB2EE040A8DED14
:10749000010A94ED190AB0EEC00A2148694630305D
:1074A000FFF794FD94ED1D0AB0EEC00A1C48694632
:1074B0003830FFF78BFDADF80860ADF80C50ADF833
:1074C0000A80B2EE0A0A8DED000A8DED018A94ED74
:1074D000180AB0EEC00A124869464030FFF776FD40
:1074E000ADF80870ADF80C50ADF80A80B3EE0E0A96
:1074F0008DED000A9FED0E0A8DED010A94ED1B0A39
:10750000074869460830FFF787FD04B0BDEC028BE1
:10751000BDE8F08100008C4200006842D4390020B0
:10752000583400200000C8420000B44270350020EA
:1075300000000C42014901607047000014AA0008D5
:107540002DE9F04704462DED068BB0EE408AF0EEB3
:10755000609A84ED2A8AA14890ED179A8668DFED3B
:10756000A0AA20780025DFED9F8A002829D00128D5
:107570003DD160789C4F04F16408E0B302283BD011
:10758000012804D003286AD0C4ED248A657094EDE4
:10759000240A94ED281AB4EEC10AF1EE10FA01D9CA
:1075A000B0EE410A10EE100A84ED240A8F49904A89
:1075B000F2EE040AFAEE041A884278DDC4ED240AD9
:1075C00079E08834C4ED008AC4ED048AC4ED078AEA
:1075D000A584E584258544ED168A44ED158A44ED9D
:1075E0000E8A44ED0D8A44ED068A44ED058ABDEC11
:1075F000068BBDE8F087FFE794ED260A30EE490AD6
:107600007C4910EE100A884202DDB1EE040A06E061
:1076100010EE100A7849884201D9B9EE040AD4ED77
:10762000210A70EE600AF0EEE00A10EE900AB8420D
:1076300001DD84ED210A94ED210A4046FEF746FF64
:1076400084ED250A94ED280A4046FEF784FF94ED68
:10765000280A4046B1EE400AFEF780FF97E794ED16
:10766000220A38EE400A654910EE100A884202DD0F
:107670009FED630A06E010EE100A6249884201D9C4
:107680009FED610A04F124008146FEF71FFF84ED9F
:10769000240A94ED280A4846FEF75DFF94ED280A77
:1076A0004846B1EE400AFEF759FF70E7FFE7904207
:1076B00001D9C4ED241A18EE100A544B984202DD89
:1076C000B0EE6A8A06E018EE100AB0F1824F01DAD5
:1076D000B2EE008ADFED4EAA94ED241A8AEE880AF3
:1076E000B4EEC10AF1EE10FA01DBB0EE410A84ED0E
:1076F000240A39EECA1A30EE418A18EE100A88427E
:1077000002DDB0EE608A05E018EE100A904201D961
:10771000B0EE618A19EE100A04F14409B0F1854F08
:1077200019DD4846FEF728FFB5EEC00AF1EE10FA63
:1077300004DDB0EE680A4846FEF721FF4046FEF73A
:107740001BFFB5EEC00AF1EE10FA04DDB0EE680AD8
:107750004046FEF714FF94ED230A38EE400AB0EEDF
:10776000C00A10EE100AB84201DD84ED238A94EDC0
:10777000230A4846FEF7AAFE84ED290AB6F17F5F88
:1077800003DB0120A4F8AC0002E00220A4F8AC0066
:10779000F6EE000A20EE200A84ED290AB5EEC00AB2
:1077A000F1EE10FA03D2AE34658025801FE710EEAB
:1077B000100A184988420BDA20EE2A0AAE34BDEED0
:1077C000C00A10EE100A608010EE100A20800EE74A
:1077D000AE3440F20A206080208008E7283900207B
:1077E0000000C842000000000AD7233C00002041EE
:1077F000000020C10000A0400000A0C00000B44272
:107800000000B4420000B4C20000B4C20000C8428C
:107810000000164452B85E3F90ED250A80ED240A20
:107820007047000010B5001DFEF7ACFE001F2430AD
:10783000FEF7A8FE24384430FEF7A4FE4438643036
:10784000FEF7A0FE64389FED080A80ED270AB2EE2D
:10785000040A80ED280A9FED050A80ED2A0A00211E
:10786000417080ED290A10BD000068420000000050
:1078700010B5044641F2CC02E08840F632719042E5
:1078800001D9E28002E0884200D2E180A0889042E3
:1078900001D9A28002E0884200D2A18020899042D2
:1078A00001D9228102E0884200D221810621201DD7
:1078B00000F0AAFF60810422211D2068BDE810406D
:1078C000FDF78CBD02460020A1F63273B3F5CD7FE3
:1078D00002D94FF480510120918070470246002068
:1078E000A1F63273B3F5CD7F02D94FF48051012058
:1078F000D180704702460020A1F63273B3F5CD7FE8
:1079000002D94FF4805101201181704710B504460F
:107910002160086860604868A0600621201D00F0B2
:1079200073FF6189814210D04FF48050E080A080C5
:1079300020810621201D00F067FF60810422211DA7
:107940002068BDE81040FDF749BD10BD704730B557
:1079500000230288511E89B2446804EB8105D5EDED
:10796000000AF4EEC00AF1EE10FA01D2114619E055
:10797000D4ED000AF4EEC00AF1EE10FA10DD002199
:1079800010E05A18520804EB8205D5ED000AF4EE17
:10799000C00AF1EE10FA01DD114601E0521C93B26B
:1079A0009942EED88068042202EBC102024400EB47
:1079B000C100D2ED000A90ED001A40EE010AB0EECF
:1079C000600A30BD0088002800D001207047018087
:1079D0004260836070470021018081604160704790
:1079E00072B690F88420D0F8881162F3000190F804
:1079F0008C2062F3410190F84C2162F3041190F85D
:107A0000502062F34511027E62F38611C0F888119E
:107A100062B670472DE9F0410446CD4890ED1A0A50
:107A2000F2EE040ACB4D20EE200ABCEEC00A10EEA6
:107A3000101AA5F8041290ED1E0A20EE201ABCEED2
:107A4000C11A11EE101AA5F8061290ED191A31EEAE
:107A5000000A20EE200ABCEEC00A10EE101AA5F8AB
:107A6000081290ED1C0A90ED1F1A30EE010A20EE6C
:107A7000200ABCEEC00A10EE101AA5F80A1290ED0A
:107A80001B0A20EE201ABCEEC11A11EE101AA5F83E
:107A90004A1290ED181A61EE201AFCEEE11A11EE6E
:107AA000900AA5F84C0220EE010A20EE200ABCEE56
:107AB000C00A10EE100AA5F84E02A748B6EE000A5A
:107AC00090ED1F1AD0ED201A21EE001A01EE801A57
:107AD000BCEEC10A10EE100AA5F85002218C28460F
:107AE0000029B0F80E0201D1218D11B140F0010042
:107AF00001E020F0010020F00200A5F80E02D4F809
:107B00009C1129B1D4F8A01111B140F0040001E09A
:107B100020F0040020F00800A5F80E02B4F884104C
:107B200011B9B4F88C1011B140F0100001E020F050
:107B3000100020F04000A5F80E0295F820024FF04A
:107B4000000680070CD5D4F8880120F00400C4F8A2
:107B50008801B5F8220240F00200A5F8220212E0E6
:107B6000D4F8880140F00400C4F8880105F50875D0
:107B7000688820F002006880288820F002002880B1
:107B8000EE85A5F5087594ED500AB5F85C0201EE96
:107B9000100AF8EE411A9FED711A61EE811AB4EEE7
:107BA000E10AF1EE10FA05D900EE100AB8EE400A2B
:107BB00020EE010A6A4A10EE101A82ED280A694B7B
:107BC000DFED691A994202DDC2ED280A06E0B5EE42
:107BD000C00AF1EE10FA01D2C2ED281AB5F85A1215
:107BE00000EE101AB8EE400A20EE010A82ED270AD4
:107BF00010EE108A5D4FDFED5E2ADFF878C1B3EE3C
:107C00000E2AB84502DDC2ED272A05E010EE108AE3
:107C1000E04501DA82ED272A03EE100A94ED510ABD
:107C2000B8EE433A23EE013AB4EEC30AF1EE10FA8D
:107C300005D900EE100AB8EE400A20EE010A4E48BF
:107C400010EE102A80ED280A9A4202DDC0ED280AC3
:107C500006E0B5EEC00AF1EE10FA01D2C0ED281A26
:107C600000EE101AB8EE400A20EE010A80ED270A55
:107C700010EE101AB94202DDC0ED272A05E010EE21
:107C8000101A614501DA80ED272A94F8080194F86A
:107C90000911884200D2084685F8300295F834026E
:107CA000A8B1B4F80601401C80B2A4F80601D4F8CB
:107CB000881141F00801C4F8881105280FD32F4816
:107CC000012101704170C806FEF77CF807E0A4F8B6
:107CD0000661D4F8880120F00800C4F88801B5F8DE
:107CE0004802274F01281DD1B5F83C123846FFF74E
:107CF000F5FDF9882348FEF79BFDB5F8401238469C
:107D0000FFF7E0FDB9881F48FEF78FFDB5F8441274
:107D10003846FFF7EFFD39891A48FEF78DFD02203E
:107D2000A5F84802B5F84802022807D194F80801DE
:107D300020B91348FFF79CFDA5F84862F88805F2C2
:107D40003E252880B888A88038892881BDE8F08140
:107D5000D4390020183C002048340020CDCCCC3D44
:107D6000A83A0020000020410000000000008C42E2
:107D700000008C420000F041603B002000BF00206A
:107D8000E0400020283900202DE9F04704462DED81
:107D9000028B84B0864FD7F88400DFF81882DFF8B2
:107DA000189200250126B3EE098A04F1640A4045C1
:107DB00001DC484504DAA4F8CE6084ED1F8A08E0AF
:107DC000A4F8CE5097ED210A5046FEF7F5FB84ED5E
:107DD0001F0AD7F88800404501DC484504DAA4F8BA
:107DE000D06084ED208A08E0A4F8D05097ED220AF4
:107DF0005046FEF7E1FB84ED200A9FED708A8DED81
:107E0000008ADFED6F8ACDED018A4FF41678ADF868
:107E100008803C27ADF80A70ADF80C6094ED1F0A9D
:107E2000694604F18400FFF7D1F88DED008ACDEDAD
:107E3000018AADF80880ADF80A70ADF80C6094EDD9
:107E4000200A694604F18C00FFF7C0F894ED1F8A00
:107E500094ED200AB4EEC08AF1EE10FA01DAB0EE29
:107E6000408A04F19400B0EE480AFEF7DEFAB0EE64
:107E7000480A04F1B400FEF7D8FA9FED520A04F163
:107E8000A400FEF7D2FA5048007870BBB4F88C001A
:107E900001282BD0B4F88400012827D0B4F8C800FA
:107EA000401C80B2A4F8C80041F27071884203D32C
:107EB000A4F8C810A4F8CA50B4F8CA00434AD0B114
:107EC000B4F8A000B4F8B010884200D20846B4F864
:107ED000C81011B1022800D3022092F83212814258
:107EE00000D90846A4F8CC0009E0FFE7A4F8C85080
:107EF000A4F8CA60E0E792F83202A4F8CC00344952
:107F0000B4F8CC2032481431062A32D2DFE802F02D
:107F1000030B131B232B41F2C122036843F001031F
:107F200003600A6025E04FF42262036843F0010316
:107F300003600A601DE04FF4B462036843F001037C
:107F400003600A6015E04FF43472036843F00103E4
:107F500003600A600DE04FF4F072036843F0010320
:107F600003600A6005E00022036843F00103036038
:107F70000A60B4F8CC0018B10120FDF721FA02E044
:107F80000020FDF71DFAB4F8C00005280BD21149F6
:107F900001EB800090ED000A84ED310A04B0BDECE5
:107FA000028BBDE8F0879FED0C0A84ED310AF5E7FE
:107FB000D439002000D040450000C8420000B8423B
:107FC0000000824200000000A83A0020183C002077
:107FD000200C0040E4A900083D0A573E2DE9F0437B
:107FE000018C4A00B0F8401042EA8102C0F88C21AE
:107FF000018D4B00B0F8481043EA8104C0F890416D
:10800000018AB0F8503041EA4301C0F89411B0F849
:108010008430B0F88C5043EA4503C0F89831002A08
:1080200001D101B90BB1012200E00022C0F89C216E
:108030000CB901B90BB1012100E00021C0F8A01179
:10804000038E00211BB990F888315B0703D580F8B7
:108050000811A0F814114FF004091AB180F8089122
:10806000A0F8141190F808214FF47A7C0226DFED75
:108070008E1A9FED8E2A9FED8E3ADFF838828E4F52
:10808000F2EE043ADFED8D2A8D4B8E4C9FED8E1A69
:10809000AAB1022A29D0042A06D080F808111A466B
:1080A0001170028FB2BB71E0A0F81411844A1170F4
:1080B000D0F89C21002AF4D180F80811F1E7B0F83B
:1080C0001421521CA0F814217D4A00251570B0F827
:1080D00014216245E5D9A0F8141194ED1A0A80ED37
:1080E000430A80F808615970DBE75A78002AD8D132
:1080F00094ED1A0AD0ED430A60EEA10AB4EEE00A4C
:10810000F1EE10FA07D894ED190A30EE420A80ED2C
:10811000500A06E03EE090ED500A30EE030A80ED92
:10812000500A90ED500A10EE102A424502DDC0EDD3
:10813000503A06E0B5EEC00AF1EE10FA01D280ED39
:10814000501A93ED280AD0ED500AB4EEE00AF1EE91
:1081500010FA01D9B0EE600A83ED280A93ED270AE0
:1081600010EE102ABA4202DDC3ED272A06E0B5EE72
:10817000C00AF1EE10FA01D283ED271A93ED270A17
:1081800083ED260A4E4A012313708AE790F888216E
:10819000520703D580F80911A0F81611D0F8A021D4
:1081A0001AB180F80991A0F8161190F80921474BEF
:1081B000A2B1022A27D0042A05D080F80911184656
:1081C0000170BDE8F083A0F81611404A1170D0F894
:1081D0009C21002AF5D180F80911F2E73B4D0022DD
:1081E0002A70B0F81621521C92B2A0F816216245EE
:1081F000E7D9A0F8161194ED1E0A80ED440A80F824
:1082000009615970DDE759780029DAD194ED1E0A29
:10821000D0ED440A60EEA10AB4EEE00AF1EE10FAE5
:1082200006D894ED1D0A30EE420A80ED510A05E0B1
:1082300090ED510A30EE030A80ED510A90ED510A9B
:1082400010EE101A414502DDC0ED513A06E0B5EEE0
:10825000C00AF1EE10FA01D280ED511A93ED280A0E
:10826000D0ED510AB4EEE00AF1EE10FA01D9B0EE09
:10827000600A83ED280A93ED270A10EE100AB8422F
:1082800002DDC3ED272A06E0B5EEC00AF1EE10FAD2
:1082900001D283ED271A93ED270A83ED260A0B48B6
:1082A000012101708DE7000048E17A3FCDCC4C3EC2
:1082B00018B75139000020410000684200006842B0
:1082C000A83A0020D439002000000000603B0020C4
:1082D00010B504469FED200A2048F0EE400AFEF754
:1082E000CFF91F491F48FFF701F81F4B1F4A922182
:1082F00004F17000FEF75EF91B4B1C4A922104F159
:108300006400FEF757F9B0EE000A194A062104F19D
:108310009400FEF785F8164A9FED160A083A0321E5
:1083200004F1A400FEF77CF8114B04212433A3F1DF
:10833000100204F5B070FFF74AFB0D4AB0EE000AD8
:108340004C32052104F1B400FEF76AF89FED0A0AE9
:1083500084ED310A10BD000000000000B03900209B
:1083600038000020183C0020E8A40008A0A2000863
:1083700088A90008CDCC4C3D000088427047000021
:1083800070B50446002594F87C01072606280ED215
:10839000DFE800F003141C222E34D4F88C0138B12D
:1083A0001948C06EB0F1834F01DD84F87C6170BD67
:1083B000012084F87C01A4F87E5170BDFDF77AFE9F
:1083C000022084F87C01A4F87E5170BDFDF704FE04
:1083D000032084F87C0170BDB4F87E01401C80B29B
:1083E000A4F87E010428F6D3042084F87C0170BD33
:1083F000FDF764F8052084F87C0170BDFDF75DF899
:1084000084F87C6170BD0000D439002010B50830BC
:10841000FEF728FE08381030FEF724FE103818301A
:10842000FEF720FE18382030FEF71CFE20382830DA
:10843000FEF718FE28383030FEF714FE303838309A
:10844000FEF710FE38384030FEF70CFE403848305A
:10845000FEF708FE48385030FEF704FE503864300E
:10846000FEF7ECF864387030FEF7E8F870388430C6
:10847000FEF7F8FD84388C30FEF7F4FD8C3894302C
:10848000FDF7BAFD9438A430FDF7B6FDA438B4303A
:10849000FDF7B2FDB438D430FEF7E4FDD438DC305B
:1084A000FEF7E0FDDC38E430FEF7DCFDE438EC30CC
:1084B000FEF7D8FDEC38F430FEF7D4FDF438FC308C
:1084C000FEF7D0FDFC3800F59470FEF7CBFDA0F56B
:1084D000947000F59870FEF7C5FDA0F5987000F552
:1084E000A670FEF7BFFDA0F5A67000F5AA70FEF716
:1084F000B9FDA0F5AA7000F5B070FFF76CFAA0F511
:10850000B07000F5B670FEF7ADFDA0F5B67000F5E1
:10851000BA70FEF7A7FDA0F5BA700021243020F84C
:10852000221C4163018701224287C187818780F82D
:108530006011A0F8E010084AC0F85C2180F85811DA
:10854000042180F8E410B2EE040A80ED470A80EDC1
:10855000480A243810BD00008800002010B51048DB
:10856000FEF748FA0E488830FEF72EF90C48AC307A
:10857000FEF708FD0B48FEF7DDFF0B48FEF760F83D
:1085800009483830FFF74EF90748F030FFF74AF94D
:108590000648FEF7B1FEBDE810400548FFF7D6B922
:1085A0002839002088000020703A0020183C002064
:1085B000E04000200148FFF729BF000048340020B8
:1085C0000148FEF77CBA00008C410020816841F030
:1085D0000801816081680907FCD4816841F00401C9
:1085E000816081684907FCD47047521E01290DD073
:1085F00002290AD1816B21F440118163816B4FF410
:10860000401303EA0252114381637047C16A21F4A7
:108610007001C162C16A4FF4700303EA0252114350
:10862000C1627047002904D0816841F40061816013
:108630007047816821F400618160704710B514496A
:1086400040180FD0B0F5806F16D0B0F5C05F1DD1C7
:1086500040F20F34204600F073FE2046BDE8104083
:1086600000F060BE40F20934204600F069FE20466A
:10867000BDE8104000F056BE40F20A34204600F03B
:108680005FFE2046BDE8104000F04CBE10BD00006B
:1086900000DCFEBF816841F48071816070478168B1
:1086A000C90703D1816841F0010181607047002A48
:1086B0000CD0CA0703D0826842F480128260890716
:1086C00003D5816841F4004181607047CA0703D037
:1086D000826822F4801282608907F6D5816821F4CD
:1086E000004181607047012909D0022906D18168C3
:1086F00021F4E041816081681143816070478168A5
:1087000021F460218160816811438160704700001D
:1087100004490A6822F470220A600A6802430A6067
:10872000704700000424014030B51F24062909D2F7
:10873000456B01EB81018C40A54302FA01F42C4307
:10874000446318E00C290AD2056B891F01EB8101F3
:108750008C40A54302FA01F42C4304630BE010297A
:1087600009D2C56A0C3901EB81018C40A54302FA9C
:1087700001F42C43C46207250A2A08D2046902EBDB
:1087800042018D40AC438B402343036130BD122A2C
:10879000FCD2C4680A3A02EB42018D40AC438B40E4
:1087A0002343C36030BD50F8802F22F44052026052
:1087B00002680A4302607047002A12D0CA0503D536
:1087C000426842F4807242604A0503D5426842F42E
:1087D00080624260890703D5816841F002018160AF
:1087E0007047CA0503D5426822F4807242604A0588
:1087F00003D5426822F4806242608907F0D581681F
:1088000021F002018160704770B504460E460D48A4
:108810000088002801D1FDF791FC4FF6FF70002C75
:108820000FD0002208490AE014F8013B80EA030552
:10883000EBB231F8133083EA1020521C92B2B242EC
:10884000F2D370BD340000202837002070B50546F3
:108850000C462146284600F0EDF840B104EB8400B8
:1088600005EB8000816821F00101816070BDFEE7A9
:1088700070B505460C462146284600F0DBF840B1AD
:1088800004EB840005EB8000816841F00101816008
:1088900070BDFEE770B505460C462146284600F03F
:1088A000C9F840B104EB840005EB8000816841F019
:1088B0002001816070BDFEE770B504460D46294673
:1088C000204600F0B7F898B105EB850004EB800274
:1088D000906820F00100906000209060D0601061EE
:1088E00050616068AA000F2191400843606070BD2C
:1088F000FEE7436889008A4013434360704700687D
:1089000089008A40104201D0012070470020704742
:1089100070B506460D4614462946304600F08AF8E2
:1089200048B305EB850006EB800022680261A16870
:108930004161218A89B2C160816821F47C52E36877
:10894000616819436369134319438160217E0129DA
:1089500012D0816821F040018160617E012910D030
:10896000816821F080018160A17E79B1816841F048
:108970001001816070BDFEE7816841F040018160B7
:10898000EBE7816841F080018160EDE7816821F0CB
:108990001001816070BD70B506460C461546214633
:1089A000304600F047F838B104EB840006EB800055
:1089B00081682943816070BDFEE7436889008A4071
:1089C00013434360704710B58C001346A24001EB7F
:1089D000810100EB8101022B04D0042B08D0082B6D
:1089E0000CD0FEE700681040896801F002010AE03F
:1089F00000681040896801F0040104E0006810403C
:108A0000896801F0080110B109B1012010BD0020F2
:108A100010BD70B506460C4615462146304600F09E
:108A200009F828B104EB840006EB8000456170BDB5
:108A3000FEE7000002460120034B9A4202D10429BE
:108A400000D90020704700000004024070B50646BF
:108A50000C46154621463046FFF7ECFF30B104EBDB
:108A6000840106EB8101A8B2C86070BDFEE700B5C5
:108A7000034600F009F85B1E012801D1002BF8D154
:108A8000012800D1042000BD00200849CA68D2078F
:108A900001D001207047CA68D20601D50320704773
:108AA000C9684907FBD5022070470000002002403A
:108AB00000B5034600F00AF85B1E012801D1002B27
:108AC000F8D1012800D1042000BD00000020084991
:108AD000CA6CD20701D001207047CA6CD20601D5FA
:108AE00003207047C96C4907FBD50220704700007E
:108AF00000200240F0B504460D462048204E214F8C
:108B00000088B0F5007F26D91F48844211D238462C
:108B1000FFF7ADFF00280BD1306940F00100306154
:108B200025803846FFF7A3FF316921F0010131614B
:108B3000F0BD3846FFF7BCFF0028F9D1306D40F09A
:108B40000100306525803846FFF7B2FF316D21F016
:108B500001013165F0BD3846FFF789FF0028F9D1E2
:108B6000306940F00100306125803846FFF77FFF13
:108B7000316921F001013161F0BD0000E0F7FF1F14
:108B8000002002400000FF0FFFFF070807480169AF
:108B900041F08001016106490988B1F5007F03D9E0
:108BA000016D41F080010165704700000020024026
:108BB000E0F7FF1F70B504462748284D284E00886F
:108BC000B0F5007F32D92748844215D23046FFF7EE
:108BD0004EFF00280FD1286940F0020028616C6127
:108BE000286940F0400028613046FFF740FF2969BE
:108BF00021F00201296170BD3046FFF759FF0028BE
:108C0000F9D1286D40F0020028656C65E86980079D
:108C100000D56C61286D40F0400028653046FFF7B4
:108C200047FF296D21F00201296570BD3046FFF72D
:108C30001EFF0028F9D1286940F0020028616C610C
:108C4000286940F0400028613046FFF710FF29698D
:108C500021F00201296170BDE0F7FF1F00200240F2
:108C60000000FF0FFFFF070809480169094A0B06CA
:108C7000094901D542604160084B1B88B3F5007F6C
:108C800004D9036D1B0601D542644164704700009E
:108C90000020024023016745AB89EFCDE0F7FF1FBD
:108CA00041617047016170472DE9F04301F00F0405
:108CB000CD0602D5042A18D0144300224FF00F0C21
:108CC000012707FA02F51D401AD0D0F8009096004F
:108CD0000CFA06F829EA080904FA06F848EA09082D
:108CE000282908D0482908D008E044F00304C26BC2
:108CF0001A43C263E1E7456100E00561C0F8008006
:108D0000521C92B2082ADCD3082207FA02F51D4051
:108D100016D0D0F80490A2F10806B6000CFA06F8B6
:108D200029EA080904FA06F848EA0908282902D0BD
:108D3000482902D002E0456100E00561C0F80480E6
:108D4000521C92B2102AE0D3BDE8F083806808423A
:108D500001D001207047002070470000F0B5154C8D
:108D6000002801DAE36900E06368C0F30346420DBE
:108D7000120185B2C0F301579540032F07D0C202FC
:108D80000CD50322B240934343F0E06209E023F0A4
:108D9000E062636823F0E063636002E0AB4343F0AA
:108DA000E06201B12A43002801DAE261F0BD6260AD
:108DB000F0BD00000000014010B54FF4A0414FF09D
:108DC000006000F067F8FDF733F9002010BD00F0F7
:108DD0001F02012191404009800000F1E020C0F80D
:108DE0008011704770B505460E46002300242348C5
:108DF0000168C1F30221072932D00168C1F30221C1
:108E000006292FD00168C1F3022105292DD0016860
:108E1000C1F3022104292BD00068C0F302200328EB
:108E200029D04FF4A06000F02BF802230224C3F1F4
:108E300004008640C4F104010F20C84010403043B4
:108E4000000105F1E02181F8000405F01F01012077
:108E500088406909890001F1E021C1F8000170BD75
:108E60000424E4E701230324E1E702230224DEE7EC
:108E700003230124DBE70423D9E700000CED00E025
:108E80000249084302490860704700000000FA05E3
:108E90000CED00E0034A1140014303480160BFF3B9
:108EA0004F8F704780FFFF1F08ED00E070B504464C
:108EB000124EB5683068001D00F0F1FD38B9306819
:108EC000012190F82C008140F0688843F0602C4428
:108ED00030684460AC4206D23168B06B091DBDE811
:108EE000704000F02BBE3168706B091D00F026FE4B
:108EF000706A844200D2746270BD0000A400002039
:108F000070B5044600F03EFE1C4D6868401C686069
:108F1000286810B1286938B10CE02C606868012815
:108F200008D100F09DF805E02868E16AC06A88422F
:108F300000D82C60286A401C2862E06A0121EA6897
:108F400081401143E9600E4900EB800001EB800095
:108F5000211D00F00BFE00F023FE286900280CD034
:108F60002868E16AC06A884207D206494FF08050FB
:108F70000860BFF34F8FBFF36F8F70BDA400002058
:108F8000EC40002004ED00E07047416A002904D065
:108F9000006B0068C0F105007047002070470000BA
:108FA000074E4FF08054074DFFF7EEFF3068012861
:108FB000FAD92C60BFF34F8FBFF36F8FF4E7000037
:108FC000EC40002004ED00E003460098002905D0A5
:108FD0000260C3630164012100F0E4BE0060F8E7B1
:108FE0002DE9F0478246DDE908570A9C9946521E52
:108FF000206B00EB820020F00708002600290CD02F
:10900000002023180A5C83F834200A5C12B1401C4B
:109010001028F6D384F8436001E084F83460052D0D
:1090200000D30425E5626564A664201D00F083FD7D
:1090300004F1180000F07FFD2461C5F10500A06176
:109040006462E66484F850604A465146404600F047
:1090500093F82060002F00D03C60BDE8F08700004E
:1090600070B500240E4D04EB840005EB800000F089
:1090700057FD641C052CF6D30948643000F050FD00
:109080000748783000F04CFD05488C3000F048FD72
:1090900003490448643141631431816370BD0000A9
:1090A000EC400020A400002010B5044600F06AFD4A
:1090B000A06B20B1002400F073FD204610BD0124F8
:1090C000F9E700000648416B0968002904D0416BAC
:1090D000C9680968416270474FF0FF3141627047CB
:1090E000A4000020BF2080F31188BFF34F8FBFF38F
:1090F0006F8FFEE72DE9F041044600F043FD94F93F
:10910000455004F1240609E0606A48B1304601F098
:1091100033F808B100F064FD6D1E6DB2002DF3DC74
:109120004FF0FF3684F8456000F03AFD00F02AFD6C
:1091300094F9445004F1100709E0206948B1384619
:1091400001F01AF808B100F04BFD6D1E6DB2002D54
:10915000F3DC84F84460BDE8F04100F021BD00007C
:1091600004490868002803D00868826C521C826495
:1091700008687047A400002024384FF08073036211
:1091800021F00101C1610449816142606FF0020177
:1091900040F8201970470000E590000810B5124B08
:1091A0005968124A1140DA6A22F000520C2817D28C
:1091B000DFE800F006060606160916091010101062
:1091C00041EA80310CE020F0040041EA803040F0B8
:1091D000805105E020F00C0041EA803142F000525D
:1091E0005960DA6210BD000000100240FF3FFFEF3F
:1091F00070B588B00346002035A104AE91E8340074
:10920000C96834C6079133A106C9CDE9021231A15C
:1092100006C9CDE90012324C6168C1F38101314ABF
:10922000002930D001292ED002292CD1616801F407
:109230008031B1F5803F11D052106168C1F3834194
:1092400065682D0101D541F0100165686D0001D5FB
:1092500041F020010F290ED2891C13E0E16A01F0D0
:10926000804101B1204A616801F40031B1F5003F4D
:10927000E3D15208E1E7A1F10F052F2D01D8491CD8
:1092800000E03F214A436168C1F3031104AD695C0A
:1092900022FA01F16568C5F3022502AE755D21FA77
:1092A00005F56468C4F3C2241DF8044021FA04F4EF
:1092B00043B1012B08D0022B08D0032B00D120464C
:1092C00008B070BD1046FBE70846F9E72846F7E707
:1092D0000000000000000000010203040607080966
:1092E0000010024000127A00006CDC02054901EB1C
:1092F00090110A6800F01F030120984082430A6021
:109300007047000000100240054901EB90110A6807
:1093100000F01F030120984002430A6070470000DC
:1093200000100240054901EB90110A6800F01F038C
:109330000120984082430A607047000000100240FC
:10934000054901EB90110A6800F01F0301209840C5
:1093500002430A60704700000010024000212A48C2
:10936000026842F4803202604FF6FF73491C0268C3
:1093700002F400320AB99942F8D10168890300D495
:10938000FEE7C16941F08051C16120490A6842F499
:1093900040420A604268426042684260426842F469
:1093A00080624260426822F440324260426842F485
:1093B000403242604268164B1A4042604268154B88
:1093C0001A434260026842F08072026002689201B1
:1093D000FCD50A6842F480320A604A68D203FCD5A0
:1093E0000A6842F400320A604A689203FCD5416878
:1093F00021F003014160416841F002014160416890
:109400000907FCD5704700000010024000700040C2
:10941000FFFFC3B700003408FFF7A0BF10B50A88EC
:109420004B88CC881A438B8823431A430B891A43F1
:109430004B8989891A430A43426410BD30B5734B86
:10944000734C002929D0012960D002297ED003293C
:1094500022D1016A21F480510162C16921F4407175
:10946000C161016A158841EA05310162016A21F48E
:1094700000510162016A958841EA05310162984212
:1094800001D0A04208D1416821F480414160416887
:10949000128941EA8211416030BD016A21F0010167
:1094A0000162816921F003018161016A1588294304
:1094B0000162016A21F002010162016A9588294373
:1094C0000162984201D0A042E6D1016A21F0040174
:1094D0000162016A538819430162016A21F008019F
:1094E0000162016AD38819430162416821F48071E5
:1094F00041604168138919434160416821F400715A
:109500004160416852891143416030BD016A21F0D8
:1095100010010162816921F440718161016A15883D
:1095200041EA05110162016A21F020010162016A2C
:10953000958841EA05110162984201D0A042E4D128
:10954000016A21F040010162016A00E01FE05388D6
:1095500041EA03110162016A21F080010162016A9E
:10956000D38841EA03110162416821F480614160BE
:109570004168138941EA83014160416821F4006137
:1095800041604168528941EA8201416030BD016A0F
:1095900021F480710162C16921F00301C161016A96
:1095A000158841EA05210162016A21F40071016216
:1095B000016A958841EA05210162984201D0A042E2
:1095C000E4D1016A21F480610162016A538841EAB1
:1095D00003210162016A21F400610162016AD388FA
:1095E00041EA03210162416821F4805141604168F0
:1095F000138941EA03114160416821F4005141603F
:109600004168528941EA0211416030BD002C01409D
:109610000034014000290ED0012914D002291BD0AA
:10962000032907D1C16921F48061C161C16941EA9F
:109630000221C1617047816921F004018161816962
:10964000114381617047816921F480618161816981
:1096500041EA022181617047C16921F00401C161C1
:10966000C1691143C161704700290ED0012914D08E
:1096700002291BD0032907D1C16921F4E041C1614E
:10968000C16941EA0221C1617047816921F070011D
:1096900081618169114381617047816921F4E041F1
:1096A0008161816941EA022181617047C16921F0CC
:1096B0007001C161C1691143C1617047002907D0C0
:1096C000012907D0022907D0032900D1026470477D
:1096D0004263704782637047C263704700290ED0AF
:1096E000012914D002291BD0032907D1C16921F413
:1096F0000061C161C16941EA0221C16170478169AC
:1097000021F008018161816911438161704781699C
:1097100021F400618161816941EA02218161704720
:10972000C16921F00801C161C1691143C16170477C
:109730004162704710B5344A811A141590424DD0D9
:1097400014DCB0F1804F2DD03049401832D0A04207
:109750003AD0B0F5006F55D140F203442046FFF7F0
:10976000EFFD2046BDE81040FFF7DCBDA1423FD031
:10977000B1F58E3F0CD0B1F5923F43D140F20D349C
:109780002046FFF7DDFD2046BDE81040FFF7CABDCB
:1097900040F20B342046FFF7D3FD2046BDE81040D1
:1097A000FFF7C0BD2046FFF7CBFD2046BDE81040C7
:1097B000FFF7B8BD40F201442046FFF7C1FD204647
:1097C000BDE81040FFF7AEBD40F202442046FFF76F
:1097D000B7FD2046BDE81040FFF7A4BD40F20444A9
:1097E0002046FFF7ADFD2046BDE81040FFF79ABDCB
:1097F00040F205442046FFF7A3FD2046BDE8104097
:10980000FFF790BD10BD00000010004000FCFFBF3E
:10981000016841F0010101607047000030B50A881D
:1098200082621C4B1C4A98420DD0B0F1804F0AD086
:109830001A4CA04207D01A4CA04204D0194CA042A6
:1098400001D090420BD1046824F0700404600468D5
:109850004D882C43046004688D882C4304608C6818
:10986000C462114CA0420AD0104CA04207D0046838
:1098700024F4407404600468CD882C43046098424A
:1098800001D0904201D1097B0163416941F001019E
:10989000416130BD002C0140003401400004004013
:1098A00000080040000C0040001000400014004080
:1098B000826822F07002826082680A438260704788
:1098C000426822F07002426042680A434260704778
:1098D000002906D0012903D1816821F0800181602F
:1098E0007047816841F0800181607047826822F092
:1098F0000702826082680A4382607047016821F033
:10990000020101607047002906D0012903D10168D6
:1099100021F0040101607047016841F00401016019
:109920007047000070B504460D460020174BE21A40
:109930001E159C4216D008DC154962180ED0B242A2
:1099400017D10220FFF754FC13E0B2420ED0B2F55B
:109950006C4F0ED10320FFF74BFC0AE00220FFF70B
:1099600047FC06E00220FFF743FC02E00220FFF77D
:109970003FFC00EB5500B0FBF5F04FF6F0710140F5
:1099800000F00F021143A16070BD0000004C0040C8
:1099900000BCFFBF50F8802F22F400620260026812
:1099A0000A43026070474068C0F308007047000037
:1099B00010B5214A811A1315904228D00EDC1F4998
:1099C00040181AD0984236D140F212442046FFF790
:1099D000B7FC2046BDE81040FFF7A4BC994220D058
:1099E000B1F56C4F27D140F20E342046FFF7A8FCAA
:1099F0002046BDE81040FFF795BC40F211442046D8
:109A0000FFF79EFC2046BDE81040FFF78BBC40F2FC
:109A100013442046FFF794FC2046BDE81040FFF7B2
:109A200081BC40F214442046FFF78AFC2046BDE882
:109A30001040FFF777BC10BD004C004000BCFFBFDA
:109A4000426922F080020A4342617047C16841F4D2
:109A50000051C1607047C26822F4C062C260C2682F
:109A60000A43C2607047C26822F004020A43C2601F
:109A70007047026922F44052026102690A4302619E
:109A80007047C26822F008020A43C2607047C26889
:109A900022F48052C260C2680A43C2607047016902
:109AA000D0E901329A60D0E901235A604A688242C3
:109AB00001D182684A60002202610868401E086085
:109AC00008687047044B036003F1540008604FF4CA
:109AD0000070106070470000E8000020F8B5002515
:109AE000009500240D4E04EB440206EB82008188B1
:109AF000491C89B2818036F82220914200D38580AA
:109B000081884288914203D18068694600F086F9D5
:109B1000641CA4B2042CE6D3F8BD000004000020AD
:109B200000F1080141604FF0FF328260C1600161C5
:109B300000210160704700210161704730B50C6859
:109B4000621C02D000F1080202E0026904E01A4639
:109B500053681D68A542FAD953684B6099608A60C2
:109B6000516008610168491C016030BD42684A606B
:109B700093688B6093685960916008610168491C23
:109B800001607047BF2080F31188BFF34F8FBFF390
:109B90006F8F02480168491C01607047E000002097
:109BA00004490868401E0860002801D180F311882C
:109BB00070470000E00000204FF0E020002101612C
:109BC000816102494161072101617047BFD40100F1
:109BD0000249CA690260896841607047A400002098
:109BE0000149012088617047A400002010B50C468F
:109BF000054909681831FFF7A1FF2046BDE810406C
:109C00000121FFF753B90000A400002070B50A46F7
:109C10000446002833D0616C914200D21146E06ABC
:109C200088422CD0A26C012A29D1E162A269002AC3
:109C300002DBC1F10501A161114D00EB80006169FA
:109C400005EB800081421AD1201DFFF728FF0D4946
:109C5000012230B994F82C00CB6802FA00F083435B
:109C6000CB60E06ACB6882401A43CA6000EB800098
:109C700005EB8000211DBDE87040FFF777BF70BD88
:109C8000EC400020A400002030B587B000240694EA
:109C9000059404AA05A906A8FFF714FFDDE905103D
:109CA000CDE90041029000230FA11148049A00F071
:109CB0009BF9104DA86208B1012000E000200128A6
:109CC0000ED1BF2080F31188BFF34F8FBFF36F8F8A
:109CD0004FF0FF30686201202861AC6000F038F876
:109CE000E86A07B030BD000049444C450000000060
:109CF000A18F0008A40000200248016B491C0163E9
:109D000070470000A40000200F4A106B002802D00A
:109D100001209061704700209061D068B0FA80F017
:109D2000C0F11F00094900EB800001EB8000416891
:109D30004968416000F10803994201D149684160D6
:109D40004068C06810607047A4000020EC4000200C
:109D500010B50C48016841F47F010160016841F0D1
:109D60007F410160FFF728FF074900200860FBF7EB
:109D700055FA0648016841F040410160FBF73AFAA4
:109D8000002010BD20ED00E0E000002034EF00E0F6
:109D900038B51C46049B002C02D00094FFF714F940
:109DA000204638BD70B504460D46FFF7EBFED4E9FA
:109DB0000F12206801FB0200A0600020A063206851
:109DC0006060E06B226C2168401E00FB0210E060C6
:109DD0004FF0FF3084F8440084F8450004F110008F
:109DE0004DB1FFF79DFE04F12400FFF799FEFFF748
:109DF000D7FE012070BD21690029F8D000F0BCF920
:109E00000028F4D004494FF080500860BFF34F8F12
:109E1000BFF36F8FEBE7000004ED00E070B50D4677
:109E2000BF21EFF3118481F31188BFF34F8FBFF38C
:109E30006F8F836BC16B994217D990F945205B1CDA
:109E40008363511C04D0521C80F8452001200DE092
:109E5000416A0029FAD0243000F08EF90028F5D0AC
:109E6000002DF3D001202860F0E7002084F3118852
:109E700070BD00002DE9F34383B004460025A946D8
:109E800000264FF08057DFF80C81FFF77BFEA06BB8
:109E9000C8B1401EA063206810B9FFF761F9A06047
:109EA000206950B104F1100000F066F928B1C8F83B
:109EB0000070BFF34F8FBFF36F8FFFF771FE01206C
:109EC00005B0BDE8F083049808B125B107E0FFF7BD
:109ED00067FE0020F4E701A8FFF77AFE0125FFF7EF
:109EE0005FFEFFF709FFFFF74DFE94F94400401CA9
:109EF00001D184F8446094F94500401C01D184F8F4
:109F00004560FFF74DFE04A901A800F045F8C8B16F
:109F10002046FFF7EFF800F063F92046FFF7C4F89A
:109F20000028B2D0B9F1000F0AD0FFF72BFE20466F
:109F3000FFF72BF80146A068FFF768FEFFF730FE39
:109F40000020BDE72046FFF7AFF8E0B1206838B940
:109F5000FFF718FEA06800F0C7F88146FFF720FE63
:109F600004F124000499FFF741FE2046FFF7C2F8F0
:109F700000F036F9002888D1C8F80070BFF34F8F81
:109F8000BFF36F8F81E72046FFF7B4F800F028F9A0
:109F90007BE7000004ED00E02DE9F04105460C46AA
:109FA000FFF7F0FD0F4882686B68D11A2E68C76909
:109FB0000020BE4204D0934202D8012520600BE06D
:109FC00022688A4206D9501A20602846FFF700FE10
:109FD000002501E020600125FFF7E2FD2846BDE8ED
:109FE000F0810000A4000020F0B585B00746DDE94F
:109FF0000A600C9C0025002C0DD060B1206304A8E1
:10A00000CDE90060CDE902453846FEF7E9FF20467C
:10A01000FEF776FF00E00495049805B0F0BD00005F
:10A020002DE9F04100262E4F386B002807D07869C3
:10A03000401C7861FFF752FD3046BDE8F081BD68F5
:10A040006D1CBD6045B9786BB96B7963B863F8690D
:10A05000401CF861FFF736F8786ADFF8888085429F
:10A060000DD3786B006838B1786BC068C4686068DD
:10A07000854210D2786202E04FF0FF307862386893
:10A08000C06A00EB800058F82000012800D90126A2
:10A090007869E8B11EE0201DFFF701FDA06A18B144
:10A0A00004F11800FFF7FBFCE06A0121FA68814027
:10A0B0001143F96000EB800008EB8000211DFFF7E1
:10A0C00055FDE06A3968C96A8842CAD30126C8E7E3
:10A0D000FFF704FDB8690028AED00126ACE7000008
:10A0E000A4000020EC40002070B504460020002CA5
:10A0F00035D01F4DE16A2A68D26A914230D2A069F8
:10A10000002804DB2868C06AC0F10500A061E06A8D
:10A11000184E00EB8000616906EB800081421AD185
:10A12000201DFFF7BCFC012130B994F82C00EA682F
:10A1300001FA00F08243EA602868C06AE062EA68D7
:10A1400081401143E96000EB800006EB8000211D97
:10A15000FFF70CFD02E02868C06AE062012070BDD4
:10A16000616C2A68D26A9142F9D2012070BD000068
:10A17000A4000020EC4000202DE9F041C068C46834
:10A1800004F118000746FFF78AFC134D2A6B0126DD
:10A1900062B139461148FFF7E9FCE06A2968C96AEB
:10A1A000884216D90120AE61BDE8F081201DFFF77D
:10A1B00076FCE06AEA6806FA00F11143E9600749B3
:10A1C00000EB80008C3901EB8000211DFFF7CEFCF5
:10A1D000E3E70020E8E70000A40000207841002029
:10A1E0002DE9F04100240027FFF7CCFC264D286B19
:10A1F000401E2863286BE8BB6868D8B3DFF88C8002
:10A2000001261EE0D8F80C00C46804F11800FFF71E
:10A2100046FC201DFFF743FCE06AEA6806FA00F1FD
:10A220001143E960194900EB80008C3901EB800093
:10A23000211DFFF79BFCE06A2968C96A884200D3A8
:10A24000AE61D8F800000028DCD10CB1FEF73AFF6F
:10A250006C6944B1FFF7E4FE00B1AE61641E002CEE
:10A26000F8D100206861A86920B1012708493807A2
:10A27000086000E003E0BFF34F8FBFF36F8FFFF77D
:10A280008FFC3846BDE8F081A40000207841002012
:10A2900004ED00E04FF04070E1EE100A704700005E
:10A2A0000681153F23DB193F3F351E3FE5D0223F96
:10A2B00014AE273F448B2C3FFCA9313F3D0A373F6A
:10A2C0007F6A3C3F4A0C423F9EEF473F7B144E3F24
:10A2D000E17A543FD1225B3FC1CA613FC3F5683F79
:10A2E000C520703F6210783F0000803FCFF7833F6A
:10A2F0002731883F448B8C3F2506913F8FC2953F85
:10A30000BE9F9A3F77BE9F3FF4FDA43F355EAA3FB4
:10A31000C520B03F1904B63FF628BC3F986EC23F37
:10A320008716C93F0000D03F022BD73F8D97DE3FF5
:10A330006666E63FC976EE3FB4C8F63FB29DFF3F82
:10A340001D5A04408716094019040E403333134048
:10A35000759318403F351E4031082440AC1C2A40FC
:10A3600012833040A01A37407B143E40DF4F4540F7
:10A370002FDD4C406ABC5440F4FD5C40CBA16540ED
:10A38000F0A76E40C5207840F4FD8040DD24864073
:10A39000D9CE8B40736891409643974073689D4037
:10A3A000D9CEA340FA7EAA403789B14060E5B840D3
:10A3B0007593C040D7A3C8408716D140B6F3D940A3
:10A3C000643BE340C3F5EC40022BF740AAF10041A7
:10A3D00075930641C9760C41F0A71241022B194131
:10A3E000000020411B2F274152B82E41F0A73641D3
:10A3F0000C023F41A8C647410C02514152B85A4194
:10A40000C3F564415EBA6F416F127B411283834191
:10A41000E5D08941BC749041BC74974117D99E41E5
:10A42000D7A3A6413BDFAE415C8FB7416ABCC041B8
:10A430008B6CCA4108ACD441FA7EDF419CC4EA412E
:10A44000CFF7F641A4F00142AEC708422B071042F5
:10A4500046B6174229DC1F420681284208AC314229
:10A4600073683B4277BE454258B9504260655C42D2
:10A47000CDCC6842FAFE7542190482426A7C894258
:10A48000A4709142FCE9994227F1A242E590AC42C6
:10A490007BD4B64231C8C142E17ACD42C3F5D9423C
:10A4A000AE47E7423D8AF542D76302433D8A0A43FD
:10A4B0008F4213430A971C430A9726435C4F31434C
:10A4C000CDCC3C43B81E49430A5756433D8A6443AA
:10A4D0003DCA7343C31582431FE58A43B85E944364
:10A4E000EC919E43CD8CA943000000000000D242B5
:10A4F0004B4B6BC25A5A0B434B4B6BC25A5A0B43D2
:10A50000E4385EC255550943BD8652C243790743BC
:10A51000BD8652C243790743000048C233B30543A6
:10A52000E8793EC2310C0443E8793EC2310C044361
:10A5300074D135C25D740243BDE92DC2DFF400431E
:10A54000ABAA26C25515FF42000020C26666FC4237
:10A550009DD819C29ED8F9429DD819C29ED8F942F9
:10A560006EDB0EC20000F5426EDB0EC20000F5424B
:10A57000420801C22184EE42420801C22184EE4217
:10A58000420801C22184EE429B6CF2C11F7CEA4268
:10A590004B4BEBC19796E8424992E4C12CBEE64290
:10A5A0005A37D8C1453EE342BC86D2C13694E14217
:10A5B0000000C8C16666DE42381FC3C1C8E0DC4285
:10A5C000E879BEC18661DB421CC7B1C1D327D7423F
:10A5D000BDE9ADC17AD3D542AAAAA6C10040D342F3
:10A5E000EB43A3C10000D2429DD899C14F6CCE422B
:10A5F000ED2594C1682FCC426EDB8EC12509CA427D
:10A6000058EE89C12CF7C742C52583C13204C54223
:10A61000E0F77DC19224C342622776C1B552C142A0
:10A6200052E267C152E2BD42245A61C1E740BC42D6
:10A630005A3758C153E4B942CECA4FC1E9A2B74212
:10A64000E78745C146CAB442E8793EC10CC3B2426D
:10A6500074D135C18C2EB042FDD22FC16554AE42AB
:10A66000CA6B28C139F5AB42000020C1F628A942C7
:10A67000FE561BC1AB8DA742FBC912C1D37EA442BB
:10A68000CA970DC1FE90A242DD9707C11641A042B4
:10A69000D01402C17D0C9E42E00FF8C0EE889B42B0
:10A6A0007A09EDC0D32799424BF3E2C0C4E4964245
:10A6B0005A37D8C053649442CDCACFC0C4599242CD
:10A6C000FDC1C6C0151390427DCAB4C0035E8B4263
:10A6D0006EDBB6C072EE8B4207DDAEC045A9894283
:10A6E000AAAAA6C0553D87420000A0C0A43085425A
:10A6F0002C1C99C053FC82425E7491C0B66F80429C
:10A7000064218BC0A97C7C42565585C0CD4C7842D3
:10A71000E0F77DC0188673429C6C72C000006F42E7
:10A72000020C67C0925A6A428EB05CC0E0F165428A
:10A73000BE8652C0296F61427FA048C048DA5C42A1
:10A74000780B3FC0143A584274D135C05D945342DF
:10A75000BCE92DC0856C4F42E95F25C030BD4A423F
:10A76000853F1DC06315464204E215C044AD414219
:10A77000F8890EC03C163D428FE107C025BD384226
:10A78000420801C084103442F435F5BF9B7A2F4251
:10A79000A393E9BF81232B4249D6DDBFDD8E26423C
:10A7A00083DFD2BF161522420000C8BF00701D42D1
:10A7B0007231BEBF500D19423389B4BFC3871442F2
:10A7C000215AABBFDB061042C66FA2BF5B720B42C1
:10A7D00082379ABF8D050742234992BFD98B024227
:10A7E00033878ABFD6E9FB41B66A83BF9B16F34124
:10A7F00000C978BF92F1E94134BA6BBF2106E1414B
:10A80000E8305FBFED08D841456553BF8827CF4189
:10A8100006D847BF3205C64187353DBF7E2FBD41B3
:10A8200068B035BFCC9EB64172DE27BF3CF2A9416D
:10A83000BB9C1EBF2004A14120B515BF03FA974160
:10A84000BF470DBFA7F88E418D4305BF79F3854102
:10A850009B59FBBEA2E9794170EDECBE6AE6674107
:10A86000B762DFBEC4125641685AD2BECBFB434129
:10A870007924C6BEF31A32416685BABECC26204181
:10A880006076AFBE881E0E41B51BA5BE9894F840F9
:10A89000CF329BBEE388D44008E991BE9DD5B0403D
:10A8A000F51489BE79F68C4088BD80BEBC3F52400D
:10A8B0002EAE71BE04700A408CD962BEC635863F8A
:10A8C00031CD54BEC7B98DBD558847BE01F897BF7D
:10A8D0006DFF3ABE859913C07F122FBE8DD05BC02D
:10A8E000261A24BED12091C0ECC019BE555FB4C059
:10A8F000389E0FBEA4FFD8C0356206BE316EFCC0C4
:10A900009D49FBBD070510C1D3DCEABD54CC21C174
:10A91000B681DBBDCF7633C1CDCCCCBDBC7445C1D7
:10A92000AF0BBFBDB45B57C1D53DB2BDD71769C131
:10A93000EF3BA6BD22CE7AC1B8EA9ABD234B86C1B1
:10A94000EF3990BDBD3E8FC1A94B86BD331C98C168
:10A95000910F7ABDCFEEA0C1E27668BD09E0A9C132
:10A960005B2558BD28BAB2C132C948BDA2A1BBC13E
:10A9700001853ABD6077C4C100000000000020C21C
:10A98000CDCC4C3E0000003F00003442000050425D
:10A990000000684200007C420000B0420000803F9E
:10A9A0006666863F3333B33F333313400000000005
:10A9B000000040C100000000000000000000000096
:10A9C0000000F0420000000000009643000000007C
:10A9D00000009644000088420000924200009C4221
:10A9E0000000A642F6285C3FEC51383F6666263FE1
:10A9F000F628DC3E3D0A573E00000000000054549B
:10AA00005220524547474553000000000000000017
:10AA10000000000000000000957300083D7300086E
:10AA20004CAA000800000020E80000006C5100085B
:10AA300034AB0008E8000020F059000088510008FD
:10AA400075DBFFFF19DBFFFF79DBFFFF0000000074
:10AA50000200000000000000000000000A000700E3
:10AA60000000000000000000640061000000000021
:10AA700000000000E803E503000000000000000003
:10AA8000000000001307040604060206004C004004
:10AA900010000000000000000000000000000000A6
:10AAA0000000000000C2010000100140000400008E
:10AAB0000010014000080000000801400080000074
:10AAC0000000000001050000000402400400000036
:10AAD000044C0040000000000000000000000000E6
