:020000040800F2
:200000006005002045010008650200082102000861020008D50100084103000800000000DE
:20002000000000000000000000000000930200081F020008000000009102000895020008C0
:200040005F0100085F0100085F0100085F0100085F0100085F0100085F0100085F01000860
:200060005F0100085F0100085F0100085F0100085F0100085F0100085F0100085F01000840
:200080005F0100085F0100085F0100085F0100085F0100085F0100085F0100085F01000820
:2000A0005F0100085F0100085F0100085F0100085F0100085F0100085F0100085F01000800
:2000C0005F0100085F0100085F0100085F0100085F0100085F0100085F0100085F010008E0
:2000E0005F0100085F0100085F0100085F0100085F0100085F0100085F0100085F010008C0
:200100005F0100085F0100085F0100085F0100081D0300085F0100085F0100085F010008DF
:200120005F0100085F0100085F0100085F010008DFF80CD000F03CF800480047FD0B0008A9
:20014000600500200648804706480047FEE7FEE7FEE7FEE7FEE7FEE7FEE7FEE7FEE7FEE77E
:20016000AD0200083101000840EA01039B0703D009E008C9121F08C0042AFAD203E011F852
:20018000013B00F8013B521EF9D27047D2B201E000F8012B491EFBD270470022F6E710B5C5
:2001A00013460A4604461946FFF7F0FF204610BD064C074D06E0E06840F0010394E807004A
:2001C00098471034AC42F6D3FFF7B6FF0C1A00082C1A000800BFFEE770B503460A46144662
:2001E0004FF6FF70002C18DD002113E05E5C704000250BE000F0010626B14AF2010686EA1B
:20020000600600E0461030466E1CB5B2082DF1DB4E1CB1B2A142E9DB70BD00BFFCE77047E0
:2002200000BFFEE770B50446252000F019FD0A4801F09AFB206809490840B0F1005F09D18C
:200240006568206880F3088800BF206880F3098800BFA84770BD0000003801400000FE2F7A
:2002600000BFFEE77047000010B5002807DA0A07140E054A00F00F031B1FD45403E00A077B
:20028000130E024A135410BD18ED00E000E400E07047704710B504480068401C024908601E
:2002A00000F040F910BD00000400002008B51848006840F47000164908601648006840F03E
:2002C0000100144908600846406840F0800048600020009002E00098401C009044F6206139
:2002E00000988842F7D300200A494860C8620846006809490840074908604FF41F0088603B
:200300000846006820F48020086000F04BFE08BD88ED00E000100240FFFFF6FE10B5064960
:20032000064801F047FB30B1044801F0CBFAC4B2204600F02DFF10BD05030500004C0040FB
:2003400000BFFEE702E008C8121F08C1002AFAD170477047002001E001C1121F002AFBD100
:200360007047000010B5002400F0A8FF304831490860002030490870304831490860314C04
:2003800040F61A1000F0CCFD012805D040F61B1000F0C6FD012807D100F00CFD4FF4807104
:2003A00024480068FFF7F9FE254800680068401C28B1234800680068234988420FD1207821
:2003C000FF2808D06078FF2805D0A078FF2802D001201E4908701E201D49086023E01548CD
:2003E0000068007801280FD112480068407801280AD11649087042F21070154908606FF0E6
:20040000A50000F0AFFC0EE02078FF2808D06078FF2805D0A078FF2802D001200B49087045
:200420001E200B49086000F039FB0A49086010BD00BF0020080000201800002000F00308DC
:200440001C000020006000085AA5FFFF0C000020140000201000002010B500F089FF2348C3
:200460000078002840D000F019FB21490968401A20490968884237D900201F49096808706E
:200480001D49096848701C480068807C401C1A4909688874194800680068401C28B1174814
:2004A00000680068164988420AD14FF4E8321549154800F043F890B9144800F0B7FB0EE0F0
:2004C0000E4800680068A63048B94FF4E8320E490C4800F033F810B90C4800F0A7FB0A48FB
:2004E000FFF7A0FE00BFFEE710BD00000C0000201000002014000020080000201C00002003
:200500005AA5FFFF00200208005000085AA5A55A0349086000BF024909680029FBD1704783
:20052000000000200448006820B103480068401E0149086070470000000000202DE9F04135
:2005400006460D461746F00AC002B04202D00120BDE8F081E80AC002A84201D00120F7E77A
:20056000F80AC002B84201D00120F1E7F019A84201D20120ECE7002400F094F923E0E00AAB
:20058000C002A0420ED1281900F016F940F2053000F0ECF84FF4417000F0E8F840F2023035
:2005A00000F0E4F83159281900F09EF940F2053000F0DCF84FF4417000F0D8F840F20230DA
:2005C00000F0D4F8241DBC42D9D300F0DFF80020BEE700002DE9F04105460F461446002681
:2005E0002046E11704EB9171C1F38708E11704EB91718910A4EB810111B90FB1042C01DA41
:20060000BDE8F0812B48854202D8B5F1006F00D2F6E700F047F940F2053000F0A7F84FF483
:20062000417000F0A3F840F2023000F09FF82248854211D1002021490870214800F0BCF871
:2006400040F2053000F092F84FF4417000F08EF840F2023000F08AF8C5F30A0070B9284620
:2006600000F0AAF840F2053000F080F84FF4417000F07CF840F2023000F078F8002613E0E4
:2006800057F8261005EB860000F02EF940F2053000F06CF84FF4417000F068F840F20230E5
:2006A00000F064F8701CC6B24645E9DB00F06EF800BFA5E7FFFF0308005000080C0000206D
:2006C0000060000800B50346012200BF00F00CF802465B1E012A01D1002BF7D1012A00D131
:2006E0000422104600BD000000200A49C96801F0010109B101200CE00649C96801F01001E1
:2007000009B1032005E00349C96801F0040101B1022070470020024000B50346012200BFD7
:2007200000F00CF802465B1E012A01D1002BF7D1012A00D10422104600BD000000200A496C
:20074000C96C01F0010109B101200CE00649C96C01F0100109B1032005E00349C96C01F0F0
:20076000040101B10220704700200240064A02EB9011096800F01F0301229A401143024B88
:2007800003EB901211607047002002400848006940F080000649086106480088B0F5007F24
:2007A00004D90846006D40F0800008657047000000200240E0F7FF1F30B505463648008840
:2007C000B0F5007F48D9354885421ED24FF47020FFF778FF0446002C5BD13148006940F0AC
:2007E00002002F49086108464561006940F0400008614FF47020FFF765FF04462848006990
:2008000020F002002649086143E04FF47020FFF783FF0446002C3CD12148006D40F00200F5
:200820001F49086508464565C06900F0020008B1084645611A48006D40F040001849086516
:200840004FF47020FFF768FF04461548006D20F00200134908651CE04FF47020FFF732FF83
:200860000446B4B90E48006940F002000C49086108464561006940F0400008614FF4702009
:20088000FFF720FF04460648006920F0020004490861204630BD0000E0F7FF1FFFFF070825
:2008A000002002400C48006900F0800020B10B48094948600A4848600A480088B0F5007F93
:2008C00009D90548006D00F0800020B1034802494864034848647047002002402301674519
:2008E000AB89EFCDE0F7FF1F70B504460D4600262A480088B0F5007F35D92948844219D2DD
:200900004FF47020FFF7DEFE0646002E43D12548006940F001002349086125604FF4702070
:20092000FFF7D0FE06461F48006920F001001D49086130E04FF47020FFF7EEFE064656BBD5
:200940001848006D40F001001649086525604FF47020FFF7E1FE06461248006D20F001007C
:200960001049086517E04FF47020FFF7ABFE06468EB90C48006940F001000A490861256086
:200980004FF47020FFF79EFE06460648006920F0010004490861304670BD0000E0F7FF1F90
:2009A000FFFF07080020024070B504460D46002637480088B0F5007F47D93648844222D25D
:2009C0004FF47020FFF77EFE06463348006840F002003149FC39C1F8FC00002E56D108466A
:2009E000006940F00100086125604FF47020FFF769FE06462848FC38006920F00100264966
:200A0000FC39086142E04FF47020FFF785FE06462148006840F002001F49FC39C1F8FC0029
:200A2000A6BB0846006D40F00100086525604FF47020FFF771FE06461748FC38006D20F0E3
:200A400001001549FC39086520E04FF47020FFF739FE06461048006840F002000E49FC39CB
:200A6000C1F8FC0096B90846006940F00100086125604FF47020FFF725FE06460648FC38E2
:200A8000006920F001000449FC390861304670BDE0F7FF1FFFFF0708FC200240014800683D
:200AA00070470000040000204161704701617047F0B5044616460025002201F00F0501F061
:200AC000100747B1042E05D145F00305E76B1F43E76300E0354300201EE0012787401F4000
:200AE000C7B122684FEA800C0F2707FA0CF7BA43870005FA07F73A43282904D101278740E2
:200B00001F40676105E0482903D1012787401F4027612260471CB8B20828DED3082022E054
:200B2000012787401F40E7B16268A0F108074FEA870C0F2707FA0CF7BA43A0F10807BF0003
:200B400005FA07F73A43282904D1012787401F40676105E0482903D1012787401F402761DF
:200B60006260471CB8B21028DAD3F0BDF0B50A46002300240021002500F00046B6F1004FA6
:200B800002D11D4EF16901E01B4E7168C0F3034583B200F44016B6F5401F08D121F0E061EB
:200BA000154E766826F0E066134F7E6012E000F48016B6F5801F06D1032606FA05F4A143B5
:200BC00041F0E06106E0460D360103FA06F6B14341F0E06122B1460D360103FA06F631430A
:200BE00000F00046B6F1004F02D1034EF16101E0014E7160F0BD000000000140002400211F
:200C00004FF0006000F0A4F800F0D0F9FFF7AAFB0AE0FFF721FCFFF741FF001BB0F57A7F69
:200C200002D9FFF73BFF0446F3E7000010B50446FFF738FE21460948FFF7B6FE40F2053081
:200C4000FFF794FD4FF44170FFF790FD40F20230FFF78CFDFFF79AFD10BD000000F003085E
:200C600000F01F0201219140024A431142F823107047000080E100E02DE9F04103460D4688
:200C8000164600240027A0462A48006800F4E060B0F5E06F03D100BF4FF0040830E025486A
:200CA000006800F4E060B0F5C06F03D101274FF0030825E01F48006800F4E060B0F5A06FC2
:200CC00002D10227B8461BE01A48006800F4E060B0F5806F03D103274FF0010810E01548FA
:200CE000006800F4E060B0F5407F03D104274FF0000805E04FF4A06000F020F80227B84657
:200D0000C7F1040005FA00F4C8F104010F20C8403040044324010848C45403F01F010120B7
:200D200088405911890001F1E021C1F80001BDE8F08100000CED00E000E400E00249014309
:200D4000024A1160704700000000FA050CED00E0024A0A400243024B1A60704780FFFF1F51
:200D600008ED00E010B50446FFF79CFD1048FFF723FD40F20530FFF7F9FC4FF44170FFF756
:200D8000F5FC40F20230FFF7F1FC21460848FFF7ABFD40F20530FFF7E9FC4FF44170FFF79A
:200DA000E5FC40F20230FFF7E1FCFFF7EFFC10BD00F003080348406A40F080700149486269
:200DC00070470000001002402DE9F04F8CB0074600200A904AA090E8004CC068CDE905BE23
:200DE000CDF810A007900FF21C1ADAE9000ACDE9020A0FF2101ADAE9000ACDE9000A4448DD
:200E00004068C0F381000B900B9820B1012804D002283FD103E03F4A3EE03E4A3CE03C48FE
:200E2000406800F4803CBCF5803F12D13848C06A00F08048B8F1000F01D1364C00E0364C37
:200E40003348406800F40039B9F5003F02D1334C00E0324C2E484068C0F383412C484068F4
:200E600000F0006008B141F010012948406800F0804008B141F020010F2901D2891C06E0BD
:200E80000F2903D33E2901D8491C00E03F2104FB01F201E01F4A00BF00BF1D484068C0F3E5
:200EA000031504A8465D22FA06F319484068C0F3022502A8465D23FA06F0099014484068D6
:200EC000C0F3C2251DF8056023FA06F0089037B1012F06D0022F06D0032F0AD106E00A92CF
:200EE00008E00A9306E009980A9003E008980A9000E000BF00BF0A980CB0BDE8F08F00004F
:200F0000000000000000000001020304060708090010024000127A00006CDC0200093D003B
:200F20000146074A02EB9110006801F01F0301229A40104008B1012070470020FCE700002F
:200F400000100240064A02EB9011096800F01F0301229A401143024B03EB90121160704788
:200F600000100240064A02EB9011096800F01F0301229A409143024B03EB901211607047E8
:200F800000100240064A02EB9011096800F01F0301229A401143024B03EB90121160704748
:200FA0000010024010B500F043F810BD10B5124800684FF47A71B0FBF1F4601EB0F1807FBF
:200FC00001D301200FE0601E4FF0E02148610F214FF0FF30FFF748F900204FF0E0218861A8
:200FE00007200861002008B100BFFEE70021481EFFF73AF910BD0000400000200000000007
:20100000010000AAAA0000000000000000000000000000AAAA000000000000000000000027
:2010200001AAAAAAAA0000000000000000000000002000213F4A126842F480323D4B1A60D9
:2010400000BF401C3B4A126802F4003119B94FF6FF729042F5D1374A126802F400320AB949
:2010600000BFFEE7334AD26942F08052314BDA61314A126842F440422F4B1A602D4A526887
:201080002C4B5A601A4652685A601A46526842F480625A601A46526822F440325A601A46A3
:2010A000526842F440325A601A465268234B1A40204B5A601A465268214B1A431D4B5A6008
:2010C0001A46126842F080721A6000BF194A126802F00072002AF9D0174A126842F48032E2
:2010E000154B1A6000BF144A526802F48032002AF9D0114A126842F400320F4B1A6000BFD4
:201100000D4A526802F40032002AF9D0094A526822F00302074B5A601A46526842F0020223
:201120005A6000BF034A526802F00802002AF9D0704700000010024000700040FFFFC3B70F
:201140000000340830B5A3B00446A1208DF80000E0208DF8010020788DF8020060788DF889
:20116000030000208DF804006278211D0DF10500FEF7FAFF6078411D6846FFF72DF8054670
:201180006088A84202D1012023B030BD0020FBE710B504464348407842490870084680782C
:2011A00048700846C07888700846C47000785A2816D108464078A52812D108468078A128D1
:2011C0000ED10846C078E0280AD101203649087088213648FEF7E1FF00203549087010BDD0
:2011E00031480078012805D13048047002202E49087055E02C48007802280BD12B484470B4
:2012000003202949087029484078842848DD0020087045E024480078032808D10420224993
:2012200008702248407810BB0520087038E01E480078042812D11D48001D1D4909784454A6
:201240001B480078401C1A490870184840780978884225DC05201449087021E0124800784B
:20126000052805D11148448006200F49087017E00D480078062810D10C48408840EA04201B
:201280000A49488088220B48FEF76EFF01200A49087000200449087002E00020024908703E
:2012A00000BF9CE7380000203C000020D80000203D000020500000202400002010B5002248
:2012C00011463420FFF7D8FC4FF4C060FFF73AFE40F20460FFF736FE40F20460FFF732FE8C
:2012E00040F20260FFF72EFE01211D48FFF73EFC40F21370FFF726FE4FF480630122182130
:201300001848FFF7D5FB4FF40063012248211548FFF7CEFB4FF40043012210211248FFF72F
:20132000C7FB4FF400411048FFF7BEFB0F4800F0D3FA4FF4E1310D4800F07CFA04210B48C4
:2013400000F054FB0821094800F058FB074800F010FB40F20531054800F01FFB10BD0000BB
:20136000000230000010014000080140004C004010B51848007800B910BD17480078F02803
:2013800002D100F035FA20E013480078F42802D100F0D8F919E01048007810B900F084F8DA
:2013A00013E00D480078F12802D100F06BF90CE009480078F22802D100F096F805E00648DA
:2013C0000078F32801D100F017F900200149087000BFD1E7240000205000002037B588B077
:2013E0005A208DF80000A5208DF80100E0208DF80200A1208DF803009DF820008DF8040095
:201400009DF821008DF8050000208DF80600002406E009A8015DE01D0DF80010601CC4B2C4
:201420009DF82100A042F4DC9DF82100411D0DF10200FEF7D1FE0546E9B29DF82100C01DF3
:201440000DF8001029129DF8210008300DF800104FF400411248FFF729FB00240DE01DF81B
:201460000410104800F033FA00BF07210D4800F085FA0028F9D0601CC4B29DF82100083067
:20148000A042ECDA00BF0621064800F077FA0028F9D04FF400410248FFF706FB0BB030BDB1
:2014A00000080140004C00400EB50D48FFF74AFE00B90EBD00200B49087002204870002097
:2014C000087100210748417101680091416801918068024602900098FFF780FF00BFE8E7DF
:2014E00050000020440000202DE9FE43002700250024A0463A484579007900EB052085B26B
:20150000374890F80780807900EB08201FFA80F83348FFF717FE08B902274BE03148008804
:20152000281A012803D130480088854201DD032740E0012D02D100202C4908602848407857
:20154000001F84B2E11704EB91718910A4EB810189B926490968264A881822462049083167
:20156000FFF738F81F48058001272048006820441E4908601EE004271B480088A84219D146
:201580002646E11704EB91718910491C4FF6FF7303EA810215490968154BC8181049083130
:2015A000FFF718F80F48058001271048006820440E490860F2200F490870032048700D7103
:2015C00029120C484171877101680091416801918068024602900098FFF700FFBDE8FE8328
:2015E00050000020300000202E000020340000200050000844000020FEB5002500240026AB
:201600001A48FFF79FFD00B9FEBD1948006819490968884201D0022514E01448447900797E
:2016200000EB042084B21248008881B21248FEF7D3FD0646A64201D0032503E001250120DA
:201640000E490870F3200E4908700120487008460571016800914168019180680246029045
:201660000098FFF7BBFE00BFCEE70000500000203400002028000020005000081800002013
:20168000440000203EB500242848FFF75BFD00B93EBD2648C0792649086024488079096809
:2016A00000EB01202249086020484079096800EB01201F4908601D480079096800EB012082
:2016C0001B4908601948407A1A4908801748007A097800EB0120174908801448C07A1649F5
:2016E00008801248807A097800EB0120124908800F480068B0F5E83F01D9042403E0012409
:2017000000200E490880F1200D4908700120487008460471016800914168019180680246EA
:2017200002900098FFF75AFE00BFB1E750000020280000202E0000202C0000203000002038
:20174000440000200EB52248FFF7FCFC00B90EBDF42020490870042048701F4800780128AD
:2017600001D1087102E002201A4908710021194841718171C17101680091416801918068C9
:20178000024602900098FFF729FE1348007801281BD10A20FEF7BCFE002010490968087097
:2017A0000E49096848700E48FFF740FA4FF4E8320C490D48FEF7C2FE10B90C48FFF736FA24
:2017C0000948FEF72FFD00BFFEE700BFBFE70000500000204400002018000020080000205A
:2017E0005AA5FFFF00200208005000085AA5A55A3EB5002400250D48FFF7A4FC00B93EBD91
:2018000004B90124F0200A4908700120487008460471016800914168019180680246029078
:201820000098FFF7DBFD00BFE9E7000050000020440000202DE9F04704460D460027B846D0
:20184000B94600261D49601A8C421CD006DC1C48204470B1B0F5806F1FD10FE0B0F5806FF7
:2018600016D0B0F56C4F18D10320FFF7ADFA074614E00220FFF7A8FA07460FE00220FFF72A
:20188000A3FA07460AE00220FFF79EFA074605E00220FFF799FA074600E000BF00BF07EB4A
:2018A0005500B0FBF5F64FF6F07006EA000806F00F0948EA0900A060BDE8F087004C0040AF
:2018C00000BCFFBF01464868C0F308007047C1F3080242607047000010B504462049601A1C
:2018E0008C4228D006DC1F48204490B1B0F5806F33D117E0B0F5806F26D0B0F56C4F2CD1BE
:2019000040F20E30FFF73EFB40F20E30FFF72AFB24E040F21140FFF735FB40F21140FFF777
:2019200021FB1BE040F21240FFF72CFB40F21240FFF718FB12E040F21340FFF723FB40F2A5
:201940001340FFF70FFB09E040F21440FFF71AFB40F21440FFF706FB00E000BF00BF10BD12
:20196000004C004000BCFFBFC16821F40051C1607047C16841F40051C160704710B5024666
:2019800002EB9110006801F01F040123A340184008B1012010BD0020FCE710B500EB9112E1
:2019A000126801F01F040123A3401A4300EB91131A6010BD70B5024600230024C1F389105E
:2019C000105801F01F060125B54000EA050302EB91500068C1F304460125B54000EA05043A
:2019E00014B10BB1012070BD0020FCE70A460021C16821F004011143C16070470A460021C8
:201A0000C16821F008011143C16070472C1A0008000000204400000044030008701A0008C4
:201A2000440000201C050000540300080000000000000000000000000000000000000000C2
:201A4000000000000000000000000000000000000000000000000000000000000000000086
:101A6000000000000000000000000000000E27073A
:20500000885B002095520008FB5F0008A5550008F95F00080B550008FD5F0008000000000E
:20502000000000000000000000000000D551000889550008000000003152000891600008D8
:20504000AF520008AF520008AF520008AF520008AF520008AF520008AF520008AF52000808
:20506000AF520008AF520008AF5200080D550008AF520008AF520008AF520008AF52000887
:20508000AF520008AF520008AF520008AF520008AF520008AF520008AF520008AF520008C8
:2050A000AF520008AF520008AF520008AF520008AF520008AF520008AF520008AF520008A8
:2050C000AF520008AF520008AF520008AF520008AF520008AF520008AF520008AF52000888
:2050E000AF520008AF520008AF520008AF520008AF520008AF520008AF520008AF52000868
:20510000AF520008AF520008AF520008AF520008AF520008AF520008AF520008AF52000847
:20512000AF520008AF520008AF520008AF52000800F002F800F03EF80AA090E8000C824447
:205140008344AAF10107DA4501D100F033F8AFF2090EBAE80F0013F0010F18BFFB1A43F03E
:2051600001031847C4680000E4680000103A24BF78C878C1FAD8520724BF30C830C144BFB4
:2051800004680C60704700000023002400250026103A28BF78C1FBD8520728BF30C148BF79
:2051A0000B6070471FB506F079F800F003F91FBD10B510BD00F042F91146FFF7F3FF04F0DA
:2051C000FFFD00F060F903B4FFF7F2FF03BC00F063F900002C4B19680868B0E8F04F80F32F
:2051E0000988BFF36F8F4FF0000080F3118870470000000008480068006880F308884FF00A
:20520000000080F3148862B661B6BFF34F8FBFF36F8F00DF00BF00BF08ED00E0DFF80C00FB
:20522000016841F470010160704700BF88ED00E0EFF30980BFF36F8F134B1A681EF0100F0B
:2052400008BF20ED108A20E9F04F106009B44FF0BF0080F31188BFF34F8FBFF36F8F05F02C
:2052600057FD4FF0000080F3118809BC19680868B0E8F04F1EF0100F08BFB0EC108A80F365
:205280000988BFF36F8F7047A4000020EFF30580704700000948804709480047FEE7FEE7BA
:2052A000FEE7FEE7FEE7FEE7FEE7FEE7FEE7FEE704480549054A064B70470000BD600008B0
:2052C0003151000888530020885B00208857002088570020032A40F2308010F0030C00F03A
:2052E000158011F8013BBCF1020F624498BF11F801CB00F8013B38BF11F8013BA2F104023B
:2053000098BF00F801CB38BF00F8013B11F0030300F06280083AC0F0088051F8043B083A2A
:2053200051F804CBA0E80810F5E7121D5CBF51F8043B40F8043BAFF30080D20724BF11F8A9
:20534000013B11F801CB48BF11F8012B24BF00F8013B00F801CB48BF00F8012B70474FF004
:20536000000200B5134694469646203922BFA0E80C50A0E80C50B1F12001BFF4F7AF090739
:2053800028BFA0E80C5048BF0CC05DF804EB890028BF40F8042B08BF704748BF20F8022B8A
:2053A00011F0804F18BF00F8012B7047704770477047000070B5064C7C44064D7D4403E018
:2053C000206820448047241DAC42F9D170BD00008C6600009466000010B5203AC0F00B80AE
:2053E000B1E81850203AA0E81850B1E81850A0E81850BFF4F5AF5FEA027C24BFB1E818506F
:20540000A0E8185044BF18C918C0BDE810405FEA827C24BF51F8043B40F8043B08BF704744
:20542000D20728BF31F8023B48BF11F8012B28BF20F8023B48BF00F8012B7047754600F041
:2054400031F8AE4605006946534620F00700854618B020B5FFF72CFFBDE820404FF00006F8
:205460004FF000074FF000084FF0000B21F00701AC46ACE8C009ACE8C009ACE8C009ACE89F
:20548000C0098D46704710B50446AFF300802046BDE81040FFF797BE01491820ABBEFEE712
:2054A00026000200004870472453002070470000054A002803D00121104604F0F7BB0121ED
:2054C000104604F0F1BB0000001001402DE9F04106460C461746B7F5806F14D872B604F0A0
:2054E000C7FB304604F06AFB002507E02188304604F004FBA41CB61C6D1CADB2BD42F5D3BC
:2055000004F048FB62B6BDE8F081FEE710B51A4C02220021204604F05AFA01282BD10222DA
:205520000021204604F04DFA1449154C606A888001F12000134A018A11838188A2F8481090
:20554000018911860188918141881180418AA2F8541081899184C08911468887084601F05F
:2055600057FB00F09FFB0549606AC880BDE81040084601F0E4BC10BD000002403842002072
:2055800000100040443900207047B7EE002AF0EE401A32EE602A22EE011AB0EE410A01EEB3
:2055A000A00A7047FEE77047704700002DE9F04188B0012004F0F6FD4FF4A06004F0A8FED3
:2055C000894C0021204604F07BF9884801904015029087480390E0140490052005904FF4D8
:2055E0004050069000208DF81C0001218DF81D108DF81E0001AA0021204604F08DF9002180
:20560000204604F04BF902220021204604F0C7F9002211460B2004F0E9FB40F2096004F082
:2056200077FE40F20A6004F073FE704E4C3E304604F008F86F4F384604F004F84FF4C025EE
:20564000284604F069F84FF4807801224146304604F0B6F801224146384604F0B1F82A4655
:205660000121304604F043F84FF460220121384604F03DF80021304604F099F8002138461A
:2056800004F095F80021304603F0D0FF0021384603F0CCFF05220121304603F0AAFF052251
:2056A0000121384603F0A5FF01230E220021304604F03EF8012302221946304604F038F85D
:2056C000012303220221304604F032F801230A220321304604F02CF801231A4604213046A9
:2056E00004F026F8012304220021384604F020F801230D221946384604F01AF801230B221C
:205700000221384604F014F801230C220321384604F00EF801230F220421384604F008F80E
:2057200001221146304603F0C6FF01221146384603F0C1FF304D022304220021284604F0CB
:20574000B7FA04231A460021284604F0B1FA082304220021284604F0ABFADFF8A08001234F
:2057600004220021404604F0A3FA102304220021404604F09DFA102304220021284604F064
:2057800097FA082304220021404604F091FA022304220021404604F08BFA04231A460021EE
:2057A000404604F085FA202304220021404604F07FFA304603F077FF00F06EFD304603F0D0
:2057C00009FF384603F06FFF00F066FD384603F001FF304603F062FF0021204604F04CF895
:2057E00008B0BDE8F0810000000002404C240140584200200028014000080140001001402B
:205800001FB54FF4C06004F083FD4FF4A06004F03BFB40F2047004F07BFD114C204604F0A7
:205820008DFF0021ADF80010ADF80210ADF80410ADF806104FF6FF7202928DF80C10694641
:20584000204604F0EFFF0021204604F075FF204604F0E2FF9FED030A034880ED000A1FBD9F
:20586000001000407D3F553F3842002070B540F2026004F04DFD40F2036004F049FD40F2F6
:20588000046004F045FD4FF4C06004F041FD0121204804F067FA204D01231A46102128466A
:2058A00004F006FA1D4CAB1401221021204604F0FFF9E614334601222821204604F0F8F9FC
:2058C0002315174C01222821204604F0F1F9334601222821204604F0EBF9042301222821C7
:2058E000204604F0E5F93601334601221021284604F0DEF9082301221021204604F0D8F989
:205900003146284604F0D0F92046BDE87040082104F0CAB9000230000008014000100140BE
:20592000000C01402DE9F04F8BB04FF4E06004F0EFFC4FF0804004F001FF0024ADF81C4010
:20594000ADF81E40ADF82040ADF8224041F26F7009908DF8284007A94FF0804004F062FF9C
:205960004FF0804004F0CEFF00214FF0804004F0CEFF00214FF0804004F0DEFE2021480607
:2059800004F0A2FF0120ADF81000ADF81240ADF81440ADF81640ADF81840ADF81A4004AA07
:2059A0000121800704F04EFD022104AA480704F049FD0121C822880704F084FE0221C82287
:2059C000480704F07FFE01217022880704F050FE02217022480704F04BFE40F20B6004F0B0
:2059E00097FCA44804F0AAFEADF81C404026ADF81E60ADF82040ADF8224040F2EE2709970F
:205A00008DF8284007A99B4804F00CFF0021994804F092FE0021974804F05EFF042195482E
:205A200004F068FF1021934804F046FFADF81040ADF81240ADF81440ADF81640ADF81840E9
:205A4000ADF81A4004AA00218A4804F0FBFC04AA0121884804F0F6FC4FF47A720021854818
:205A600004F030FE4FF47A720121824804F02AFE042200217F4804F0D1FD042201217D48F0
:205A800004F0CCFD702200217A4804F0F1FD60220121784804F0ECFD08220021754804F0B5
:205AA00021FE08220121734804F01CFE4FF40068ADF80080ADF802404FF03009ADF804904A
:205AC000ADF806403502ADF80850ADF80A40ADF80C406946674804F0A5FC40F2026004F04C
:205AE00017FC40F2036004F013FCAB1101221821614804F0DDF86B11012218215E4804F0FF
:205B0000D7F8DFF878A16B1001221821504604F0CFF82B4601221821504604F0C9F840F254
:205B20000D6004F0F5FBDFF858B1584604F006FEADF81C40ADF81E60ADF82040ADF822406E
:205B400009978DF8284007A9584604F06BFE0021584604F0F1FD0021584604F0BDFE0421D9
:205B6000584604F0C7FE1021584604F0A5FEADF81040ADF81240ADF81440ADF81640ADF8E3
:205B80001840ADF81A4004AA0021584604F05AFC04AA0121584604F055FC4FF47A720021F4
:205BA000584604F08FFD4FF47A720121584604F089FD04220021584604F030FD0422012110
:205BC000584604F02BFD70220021584604F050FD60220121584604F04BFD08220021584612
:205BE00004F080FD08220121584604F07BFDADF80080ADF80240ADF80490ADF80640ADF809
:205C00000850ADF80A40ADF80C406946584604F009FC40F2026004F07BFB40F2036004F07F
:205C200077FB40F2046004F073FB164C802304221821204604F03CF80123042218215046EF
:205C400004F036F8402304221821204604F030F8802304221821084804F02AF8054804F035
:205C6000DBFDA00404F0D8FD584604F0D5FD0BB0BDE8F08F002C014000080140000C014099
:205C8000003401400010014030EE600AB0EEC00AB4EEC10AF1EE10FA01D20120704700202D
:205CA000704700002DE9F047834801F065F8824CD4ED080A94ED0E0A804801F053FFD4EDC1
:205CC0000B0A94ED110A7E4801F04CFF7D4CD4F89C01016889688847204603F041FB94F895
:205CE000A4017A4A81067848794D7A4CA0F10403A2F104094FF0000625D5296821F010013E
:205D00002960296821F0400129600660286820F001002860286820F0040028601E602068CD
:205D200020F010002060206820F0400020601660206820F001002060206820F004002060C0
:205D4000C9F8006084E05D49B1F8BC70B1F9C0C057B1C0F800C0286840F0100028602868B1
:205D600040F0400028600CE0D5F800C02CF0100CC5F800C0D5F800C02CF0400CC5F800C08B
:205D80000660B1F9BEC040F2EE28012F1AD0022F2ED0286820F001002860286820F0040017
:205DA00028601E604649B1F8BC50B1F9C000ADB31060206840F010002060206840F040001F
:205DC000206035E0ACF2EE2CCCF1000000B2404501D9404602E0002800DA00201860286816
:205DE00040F001002860286840F004002860D9E7ACF2063CCCF1000001B2414501D94146A7
:205E000002E0002900DA00211960286840F001002860286820F004002860C3E7FFE7206876
:205E200020F010002060206820F0400020601660B1F9BE70012D13D0022D27D0206820F04D
:205E400001002060206820F004002060C9F80060214801F0E9F9BDE8F047204801F088B9D2
:205E6000A7F2EE27784202B2424501D9424602E0002A00DA0022C9F80020206840F001007B
:205E80002060206840F004002060E1E7A7F20637784203B2434501D9434602E0002B00DA67
:205EA0000023C9F80030206840F001002060206820F004002060CBE744390020F03A0020E0
:205EC000BC3B002048340020382C014038340140202C014020340140E43900201C3F0020E3
:205EE0000B2003F078FF384804F028FC4FF0804004F024FC354804F021FC354804F01EFC49
:205F0000344804F01BFC344804F018FC334804F015FC334803F096FB324803F093FB324C7E
:205F20000021204603F0CCFC0321204603F0C8FC2E4804F041FD4FF4C06004F0DBF940F2D9
:205F4000026004F0D7F940F2036004F0D3F940F2046004F0CFF940F20B6004F0CBF94FF4DC
:205F6000E06004F0C7F940F2017004F0C3F940F2027004F0BFF940F2037004F0BBF940F20B
:205F8000047004F0B7F940F20D6004F0B3F94FF4A06004F0AFF940F2096004F0ABF940F266
:205FA0000A6004F0A7F940F20E6004F0A3F9BFF34F8F0F4801680F4A01F4E061114301601F
:205FC000BFF34F8FFEE70000002C01400004004000080040000C0040001000400034014042
:205FE000002401400028014000000240003801400CED00E00400FA05FEE77047FEE7704704
:20600000010100CCCCCCCC000000000000000000040100CCCCCCCC00000000000000000019
:2060200001CCCCCCCCCCCC0000000000000000002DE9F0470546DDF820900E4617469846EB
:2060400012480078002801D100F0CEF80F49032D19D2EFF31180202282F3118805EB450251
:2060600001EBC204183435B126606760C4F8088000212161E160C4F81490C0B280F31188E9
:206080000020BDE8F0874FF0FF30FAE76C42002010B5BF2080F31188BFF34F8FBFF36F8FB7
:2060A00004F0C2FF18B104494FF080500860002080F3118810BD000004ED00E082B0164844
:2060C000016841F4700101601448016841F001010160416841F0800141600023019344F60A
:2060E000206102E0019A521C0192019A8A42F9D3416821F0030141600168094A11400160A1
:206100004FF41F018160016821F4802101604360C36202B004F084B988ED00E00010024069
:20612000FFFFF6FEFEB51948042200F15401CDE9002102900023D20115A1184804F058FF2D
:206140000024174E174F032504EBC40006EBC003002211460120009504F01EFE04EB44014E
:2061600007EB81018860641CA4B2042CECD30C4B0022483B11460120009504F00DFE0949A4
:20618000091F0860BDE8FE4004F082BD8C2A00207374617274207461736B0000F163000826
:2061A000283300200400002010B5064C2021204603F07AFD204620230122BDE8104028210E
:2061C00003F076BD000C014010B5064C202301221021204603F06CFD2046BDE81040202140
:2061E00003F064BD000C014010B5134CA8212046FFF7B5F803202061606110A0A06104F13D
:20620000A800E0614FF4805020620020A0626062E0620AA121660C4961661021A1662067CD
:20622000E06660670949C0F10F028A5C2254401C1028F8D310BD00006C4200205465726D4F
:20624000696E616C000000001453002000BA000830B5002100200B4600224AF2010480EA0D
:206260000305ED0702D084EA500000E040085B08521C92B2082AF2D3054A22F81100491C7F
:2062800089B2FF29E6D903490120088030BD0000443700203400002000200249401C88427A
:2062A000FCD3704740420F00134DDFF85080144C4FF0FF364FF400573146E86A04F0DEFDBA
:2062C0000128F9D1208820B13946404603F0EEFC03E03946404603F0E7FC208850B10022E7
:2062E00022800848826D521C8265022AE4D101214180E1E70122F3E704000020001001406A
:20630000E6000020483400200D4C4FF0FF352946A06804F0B3FD0128F9D10A4801F044FF7B
:20632000084802F009FB074801F058FF064801F0DFFD064801F0DCFD054801F013F9E6E736
:206340000400002048340020F03A0020BC3B0020883C00200C4D0D4C4FF0FF3631466869CA
:2063600004F08CFD0128F9D1D4F89C0101684A689047064802F0B0F9054801F031F80448B6
:2063800000F0C6FFEAE700000400002048340020E43900200024124EDFF84880124D671E73
:2063A0003946306A04F06AFD0128F9D1641C052C0FDB0024288820B10121404603F076FC29
:2063C00003E00121404603F06FFC288828B100202880064802F0C6FFE2E70120F8E70000B5
:2063E0000400002000080140E4000020483400200EB502258023434A43A101200095FFF7E6
:2064000017FE454802F058FFFFF7FAF9FFF72EFAFFF7CCF8FFF786FA4049414801F0ECFD6E
:206420003F4CA1883F4800F065FCA28800213E4801F08EF8E1883B4800F088FCE28801219C
:20644000394801F085F82189364800F027FC22890221354801F07CF86189324800F034FCDE
:2064600062890321304801F073F8A1892D4800F057FCA28904212C4801F06AF8E189294865
:2064800000F0F6FBE2890521274801F061F82748052200F15401CDE900212C02029000233B
:2064A000224623A1254804F0A3FD2548032300F15401CDE9003102900023224621A12448A4
:2064C00004F096FD2348029000F15401CDE900510023224620A1234804F08AFD224801222C
:2064E00000F15401CDE900210290002322461FA1204804F07DFD204CED1E2946206804F06A
:20650000BDFCFAE7C43600204A53636F70655F6932693269326932004834002000F8030819
:206520008441002044390020883C00203C090020326D73207461736B000000000963000837
:206540009011002031306D73207461736B00000055630008E41900203130306D7320746123
:20656000736B000095630008382200203173207461736B00A96200080000002001804260F6
:2065800080ED020A704710B5C189D0ED020A426800290AD192ED001A31EE201AB4EEC01AD7
:2065A000F1EE10FA01DD81813BE003881C465B1E8B420DD1A41E02EB840494ED001A31EEF5
:2065C000601AB4EEC01AF1EE10FA01D2818128E04C1E02EB840494ED001A31EE601AB4EE4A
:2065E000C01AF1EE10FA0CD202EB810494ED001A71EE200AF4EEC00AF1EE10FA01DD8181EF
:206600000FE000210AE002EB8104D4ED000AF4EEC00AF1EE10FA03DC491C89B28B42F2DC94
:2066200081818189C18110BD00218181C181704790ED071AF7EE000AD0ED001A70EEC10A96
:2066400060EEA10A41EE000AC0ED000A90ED031A90ED020A00EE801A80ED031A90ED050A90
:20666000B4EEC01AF1EE10FA02DD80ED030A08E0D0ED061AB4EEE11AF1EE10FA01D2C0ED91
:20668000031A90ED031AD0ED011A01EEA01A80ED041AB4EEC01AF1EE10FA02DD80ED040A78
:2066A00008E090ED060AB4EEC01AF1EE10FA01D280ED040A90ED040A704780ED050A70473D
:2066C00080ED060A704780ED010AC0ED020A80ED051AC0ED061A80ED072A70479FED0A0A07
:2066E00080ED000A80ED010A80ED020A80ED050A80ED060A80ED030A80ED040AB7EE000A95
:2067000080ED070A704700000000000001F043BD10B504462DED028BB0EE408A204601F0DE
:2067200035FD88B1DFED151A9FED151A68EE210A80EE810A71EEC00A124910EE900A8842D8
:2067400007DDF0EE610A0BE0BDEC028B9FED0E0A10BD10EE900A0D49884201DADFED0C0A05
:20676000B2EE041A20EE011A81EE200ABDEC028B2046BDE8104001F0CEBC00003333534094
:206780000000804533335340000000006F12833A6F12833A01F003BD10EE101A4160084AF3
:2067A000914204DD9FED070A80ED010A7047B1F1804FFBDAB0EE000A80ED010A704700003C
:2067C000000016440000164400B58EB0684600F051F90EB000BD0000F0B58EB00346C3EDD3
:2067E000000A93ED011AF4EEC10AF1EE10FA02DD052083F82C0093F82C00654C654D88B160
:206800000221CA1E012815D00126DFED631A02281AD0032818D0042816D0052870D068469B
:2068200000F028F9586BA8426BDD9FED5C0A83ED0D0AA1E0C3ED030A83F82C109A619FED5D
:20684000580A83ED040AEDE793ED031A30EEC11A83ED041AB0EEC11A11EE100AB0F1804F5E
:2068600004DBC3ED030A0020586106E0F0EE000AC3ED040A5869401C5861D3ED040AF5EE90
:20688000C00AF1EE10FA02D29869404298619869002803DD032183F82C1001E083F82C1079
:2068A0005969642904DB64215961042183F82C10F0EEE00A60EEA10AC3ED070A10EE901A65
:2068C000B1F17E5F04DDF7EE000AC3ED070A08E010EE901A334FB94203DADFED330AC3ED05
:2068E000070A93F82C1004290CD000EE900A93ED071AF8EEE00A01EE200A83ED0D0A91E7A6
:2069000025E033E0D3ED0D0AB1EE041A10EE900AA04206DD30EE412AF4EEC20AF1EE10FA4E
:2069200000D29E6110EE900AA84206DA30EE010AF4EEC00AF1EE10FA00DD9A6193ED060AFE
:20694000B8EEC00A40EE210AC3ED0D0A6AE7F4EEC10AF1EE10FA02D283F82C6062E730EE7E
:20696000210A83ED0D0AC3ED030A5BE7A04203DAB2EE040A83ED0D0A93F82C0000EE100AB3
:20698000B8EE400A83ED0C0A93ED0D0A0EB0F0BD000020410000A042CDCCCC3D0000A042B8
:2069A00000000000CDCC4C3ECDCC4C3E90F82C10002952D110EE101A294A1144B1F1C07FB0
:2069C0004BD880ED0A0ADFED270A60EE200AC0ED080A10EE901A244B9FED241A5242F2EE8A
:2069E000041A994202DD80ED081A05E010EE901A914201DAC0ED081ADFED1D0A60EE200ABB
:206A0000C0ED090A10EE901A994202DD80ED091A05E010EE901A914201DAC0ED091AF7EED4
:206A2000000A30EE600A80ED0D0AD0ED080AB4EEE00AF1EE10FA02DDC0ED0D0A08E0D0EDB4
:206A4000090AB4EEE00AF1EE10FA01D2C0ED0D0A012180F82C100120704700207047000092
:206A60000000E0BE9A99993F0000A0420000A042CDCCCC3E9FED0C0A80ED0D0A002180F847
:206A80002C10DFED0A0AC0ED030A4A1E8261DFED080AC0ED010A416180ED080AB2EE040A70
:206AA00080ED090A704700000000A042000000000000164410B52DED0A8B72B69FED3E0AF3
:206AC00080ED030A9FED3D0A80ED040ADFED3C0AC0ED050A80ED060AC0ED070A9FED390A16
:206AE00080ED080A62B69FED388ADFED388A9FED389ADFED389AB0EE482AF0EE681AB2EE17
:206B0000081AF0EE490AB0EE690A3348FFF7DBFD9FED32AADFED32AA9FED32BADFED32BA88
:206B20002D48B0EE482AF0EE4A1AB0EE6A1AF0EE4B0AB0EE6B0A2030FFF7C5FD9FED2CCA9C
:206B40002548B0EE482AFAEE081AB2EE081ADFED270AB0EE4C0A4030FFF7B5FDB0EE482AD3
:206B6000F0EE681AB2EE081AF0EE490AB0EE690A2048FFF7A8FD1F48B0EE482AF0EE4A1AF5
:206B8000B0EE6A1AF0EE4B0AB0EE6B0A2030FFF79AFDB0EE482AB0EE4C0ABDEC0A8BFAEE86
:206BA000081AB2EE081A1348BDE81040DFED120A4030FFF788BD000066661E3CD9CE893B7D
:206BC0000000043D0000843C8E8E0E3FCDCCCCBD52499D3860E5503E183B0020C3F5E8BF14
:206BE000C3F5E83FBA03E937F99E113BAC1D1536CF48803FE43B00204FFB14360888A0F613
:206C0000B860B0F5247F02D94FF480500880704730B5B0F86210012929D0B0F86010491C48
:206C200089B2A0F86010B1F5804F20D3416E41F38F31A0F86810426F42F38F32A0F878201F
:206C4000A1F26C714FF4967501234FF40064A94203D9A0F87A30A0F86840A2F26C72AA4204
:206C600003D9A0F87A30A0F87840A0F8623030BD03B5024601A91046FFF7C0FFBDF8041011
:206C8000DFED050A00EE101AB8EE400A20EE200A82ED010A0CBD000066661E3603B5024676
:206CA00001A91046FFF7AAFFBDF80410DFED050A00EE101AB8EE400A20EE200A82ED130AC5
:206CC0000CBD00000000843603B5024601A91046FFF794FFBDF80410DFED050A00EE101AEC
:206CE000B8EE400A20EE200A82ED070A0CBD0000D9CE893503B5024601A91046FFF77EFF4B
:206D0000BDF80410DFED050A00EE101AB8EE400A20EE200A82ED0D0A0CBD00000000043705
:206D200003B5024601A91046FFF768FFBDF80410DFED050A00EE101AB8EE400A20EE200A12
:206D400082ED0A0A0CBD0000D9CE893503B5024601A91046FFF752FFBDF80410DFED050A97
:206D600000EE101AB8EE400A20EE200A82ED100A0CBD000000000437604991ED040ADFED45
:206D8000600A30EE200A81ED040A10EE102A5D4B9A4205DDDFED5C0A30EE600A81ED040AF1
:206DA000B0F90020D0ED010A00EE102AB8EEC00A20EE200A80ED020AB0F90C20D0ED040A59
:206DC00000EE102AB8EEC00A20EE200A80ED050AB0F91820D0ED070A00EE102AB8EEC00A20
:206DE00020EE200A80ED080AB0F92420D0ED0A0A00EE102AB8EEC00A20EE200A80ED0B0ACC
:206E0000B0F93020D0ED0D0A00EE102AB8EEC00A20EE200A80ED0E0AB0F93C20D0ED100A74
:206E200000EE102AB8EEC00A20EE200A80ED110AB0F94820D0ED130A00EE102AB8EEC00A77
:206E400020EE200A80ED140AB0F95420D0ED160A00EE102AB8EEC00A20EE200A80ED170A17
:206E60002A48D0ED0E0AB2EE040A60EE800AFDEEE00A10EE902A0A80D0ED080A60EE800A87
:206E8000FDEEE00A10EE902A4A80D0ED110A60EE800AFDEEE00A10EE902A8A80D0ED0B0A82
:206EA00060EE800AFDEEE00A10EE902ACA80D0ED140A60EE800AFDEEE00A10EE902A0A8158
:206EC000D0ED020A60EE800AFDEEE00A10EE900A48810F48D0ED1C0A60EE800AFDEEE00AF4
:206EE00010EE902A8A81D0ED1F0A20EE800ABDEEC00A10EE100AC881704700008C00002018
:206F0000FCAD803CDA0FC940DA0FC94044390020E439002000213C30C1848184B7EE000AC8
:206F200000ED0B0A80ED070A816201638163C1874FF400618185818681873C387047C18831
:206F40008288891A89B20181C2685318C360028A521C92B20282B2F5804F11D39A0B4261AB
:206F600000EE102AD0ED000AB8EE400A20EE200ABCEEC00A10EE102A82830022C260028281
:206F8000826991420DD900EE101A8161D0ED000AB8EE400A20EE200ABCEEC00A10EE101AC8
:206FA000C18370470021C160018241618161704730B50346B3F83201904200D80246587907
:206FC000022801D0002030BD00245C71002004E01D18AD790D54401C80B29042F8D3104677
:206FE000A3F8324130BD30B587B00446206800287DD0002525716571A4F8325184F8345182
:20700000008803F085F92068408803F081F92068808803F07DF92068C08803F079F94FF449
:20702000C06003F075F92068806803F0C5FC2068016A806803F07AFC2068C169806803F0DA
:207040000EFD20680169806803F025FD20688169806803F012FD20684169806803F09EFC33
:2070600020680421806803F002FD20688021806803F0EAFC2068806803F0ECFC20680122A9
:207080001821836A406A02F013FE206801224821036BC06A02F00CFE2068C06B10B10121DF
:2070A00002F060FE2068B0F8400003F031F9206890F84810406C02F003FC2068C06C0090AA
:2070C00001950295039502200490C00205908DF8185001208DF819008DF81A0020686A465B
:2070E00090F84810406C02F017FC206800E00EE0C08803F00DF9206801221021836B406BF3
:2071000002F0D6FD2068816B406B02F0CDFD07B030BD70B504460E4615462079012826D055
:207120002068816B406B02F0C1FD2068324690F84810406C02F071FC20682A4690F84810BD
:20714000406C02F087FC2068012290F84810406C02F0D3FB20680821806803F096FC206871
:2071600090F84810406C02F087FB0120207170BD70B504462068816809688DB290F84810C0
:20718000406C022202F0BFFB0026012819D1680617D5267120680021806803F076FC2068CB
:2071A000012290F84810406C02F0A7FB206890F84810406C02F04EFB2068816B406B02F02C
:2071C00073FDA80615D56079022801D1A4F832610120607184F834612068806803F0E7FB5B
:2071E000B4F83221A11D5054B4F83201401CA4F8320194F83401401CC0B284F8340121685B
:2072000002228989884205D384F83411B4F8320100B16271B4F83201B0F5967F00D3627133
:2072200070BD00210160704770B504462DED028B354D95ED020AD4ED000A30EE200A84ED3E
:20724000000A95ED080AD4ED010A30EE200A84ED010A95ED0E0AD4ED020A30EE200A84EDE0
:20726000020A95ED0B0AD4ED030A30EE200A84ED030A95ED110AD4ED040A30EE200A84EDB2
:20728000040A95ED140AD4ED050A30EE200A84ED050A95ED0E0AD5ED080A94ED071A00EEAA
:2072A000201A84ED071A95ED110AD5ED0B0A94ED081A00EE201A84ED081AA08D401CA08582
:2072C00095ED050A9FED118A94ED211AF0EE480AFEF75BF984ED210A95ED170A94ED221AC5
:2072E000F0EE480AFEF751F984ED220A95ED020A94ED261AF0EE480AFEF747F984ED260A2D
:20730000BDEC028B70BD0000443900200AD7233C10B504462DED028BB7EE000AB4F85C00C0
:2073200000EE900AB8EE601AC0EE010A94ED0C0A20EE200A84ED180A94ED0D0A20EE200ABA
:2073400084ED190A94ED0E0A20EE200A84ED1A0A94ED0F0A20EE200A84ED1B0A94ED100A30
:2073600020EE200A84ED1C0A94ED121A21EE201A84ED1D1A94ED131A21EE201A84ED1E1A00
:2073800094ED151A21EE201A84ED1F1A94ED161A61EE200AC4ED200A9FED108A94ED251A5F
:2073A000F0EE480AFEF7F1F884ED250A94ED231A94ED1A0AF0EE480AFEF7E7F884ED230A1A
:2073C00094ED241A94ED190AF0EE480AFEF7DDF884ED240ABDEC028B10BD0000CDCC4C3D8C
:2073E00090ED000A80ED0C0A90ED010A80ED0D0A90ED020A80ED0E0A90ED030A80ED120A56
:2074000090ED040A80ED130A90ED050A80ED0F0A90ED070A80ED100A90ED080A80ED150A15
:2074200090ED090A80ED160A818DA0F85C109FED0D0A80ED000A80ED010A80ED020A80EDA5
:20744000030A80ED040A80ED050A80ED060A80ED070A80ED080A80ED090A80ED0A0A00218C
:2074600081857047000000009FED100A80ED000A80ED010A80ED020A80ED030A80ED040A4C
:2074800080ED050A80ED070A80ED080A0021818580ED210A80ED220A80ED230A80ED250AE5
:2074A00080ED260A80ED240A7047000000000000D1ED000AF4EEC00AF1EE10FA0CD2B1F9F8
:2074C0000A3042681A444260B1F908108A4202DB4160012101807047D1ED010AF4EEC00AED
:2074E000F1EE10FAF7DDB1F90C104268511A41600029F0DC0021416001807047D1ED000A9C
:20750000F4EEC00AF1EE10FA0CDDB1F90A3042681A444260B1F908108A4202DB4160012131
:2075200001807047D1ED010AF4EEC00AF1EE10FAF7D2B1F90C104268511A41600029F0DC7B
:2075400000214160018070470021018041607047062905D200EB4100A0F86C22A0F87822AD
:20756000704700002DE9F05F04460026B4F84602401C80B2A4F846024FF00109192801D9B5
:20758000A4F8489204F525704FF4807204F580718046FFF70DFDA4F80002062810D9002726
:2075A000A4F84672A4F8487294F80011D54D5A2903D194F80111A52904D02868401C286057
:2075C000BDE8F09F94F80211C02901D0A12903D194F80311E02903D02868401C2860EFE7BA
:2075E000001F81B204F5817002F012F90146B4F8000204F1FE02835C521C805C43EA0020F2
:20760000814203D02868401C2860D9E75A202070A5204FF0020C6070E020A07094F8020115
:207620000423E07094F804010525207194F8051194F8062141EA022106224FF00A0B4FF029
:207640000C0A06286BD006DC062820D2DFE800F012202948535EE0286FD006DC072870D006
:2076600008286CD00F2812D124E1E12868D0F028F9D129E16271A771E77184F80890637226
:20768000A77284F80B900D2584F80C90012624E184F80590A77194F83A020825E0710126AE
:2076A0001BE184F805B0A771B4F80402E071000A2072B4F806026072000AA072B4F808028E
:2076C000E072000A2073B4F814026073000AA073B4F85E02E073000A112520740126FCE0D3
:2076E00084F805C0A771B4F81802E071000A092520720126F1E084F805C0A771B4F81C0235
:20770000E071000A092520720126E6E084F80590A77194F842020825E0710126DDE019B13C
:2077200094F80701A4F82A0284F80590A77194F82C020825E0710126CFE07AE001E020E07B
:20774000A0E079B194F8070194F8081140EA0120A4F8680294F8090194F80A1140EA01206D
:20776000A4F86A026371A771B4F86802E071000A2072B4F86A026072000A0B25A0720126B5
:20778000ABE01F2004F8050F6770B4F8FF01A070000AE070B4F801022071000A6071B4F85B
:2077A0000502A071000AE071B4F809022072000A6072B4F80F02A072000AE072B4F8530205
:2077C0002073000A6073B4F85502A073000AE073B4F857022074000A6074B4F85902A07434
:2077E000000AE074B4F807022075000A6075B4F80B02A075000AE075B4F813022076000A74
:20780000607694F83502A07694F83602E07694F839022077B4F837026077000AA077B4F8B8
:207820003B02E077000A262584F82000641F012653E079B194F8070106280BD294F8081178
:2078400094F8092104EB400041EA0221A0F86C12A4F8909284F805A00725A771002004EBAD
:207860004002691C92F8783289B26355B2F87822130A4A1C95B26354401C80B20628EED3D8
:2078800001262AE084F805A00725A771002004EB4002691C92F8843289B26355B2F88422F9
:2078A000130A4A1C95B26354401C80B20628EED3012612E084F8449284F80590A771082509
:2078C00084F80790012608E084F8459284F80590A771082584F807900126002E3FF47FAE15
:2078E000A81E81B2A01C01F093FF691C89B26055030A481C82B2635421464046BDE8F05F9E
:20790000FFF707BCA0000020C0F8941200F52570FFF769BB10B500F52570FFF782FCA0F594
:20792000257000F20A20002120F80A1C0184782383844FF41672C284C28581870121C18746
:20794000838140F23F21A0F85E10DC21A0F86010A0F20A2010BD00007CB5052000900124F2
:20796000ADF80640ADF80440114E0421304602F0F1F90546A102304602F0ECF90543E102F7
:20798000304602F0E7F905430A4945B14A6810194860052802DB009848600C807CBD4868CC
:2079A000001B48600028F9DC0020486008807CBD000C0140983400202DE9F0412DED028B57
:2079C00084B01E26ADF808600125ADF80C500A27ADF80A709FED580A8DED000A9FED570A4C
:2079E0008DED010A564C94ED1B0A69465548FFF75FFD4FF49670ADF80800ADF80C50ADF880
:207A00000A709FED510A8DED000A9FED500A8DED010A94ED1A0A4B4869461030FFF748FDB4
:207A200094ED1E0A474869461830FFF741FDB2EE020A8DED000AB2EE068A8DED018A94EDFD
:207A40001A0A404869462030FFF758FD94ED1E0A3C4869462830FFF751FDB1EE040A8DED91
:207A6000000A8DED018A40F6B830ADF808006427ADF80C70ADF80A6094ED1A0A69463448A1
:207A8000FFF73CFD94ED1E0A314869460830FFF735FDADF80870ADF80C504FF00308ADF879
:207AA0000A80B2EE0C0A8DED000AB2EE080A8DED010A94ED190AB0EEC00A22486946303046
:207AC000FFF7F6FC94ED1D0AB0EEC00A1D4869463830FFF7EDFCADF80870ADF80C50ADF890
:207AE0000A80B3EE090A8DED000AB3EE060A8DED010A94ED180AB0EEC00A1248694640300A
:207B0000FFF7D6FCADF80860ADF80C50ADF80A80B3EE0E0A8DED000A9FED0E0A8DED010AFA
:207B200094ED1B0A074869460830FFF7E7FC04B0BDEC028BBDE8F081000070420000664236
:207B4000E4390020583400200000A042000096427C35002000000C42014901607047000001
:207B60001CBA00082DE9F04104462DED048BB0EE408AF0EE608A9FEDC39A84ED2E8AC248A1
:207B8000D0ED149A20790025002829D001283ED16079BE4EF0B302283FD0012806D0032878
:207BA00071D0B0EE490A84ED250A657194ED251A94ED290AB4EEC01AF1EE10FA01D8B0EECD
:207BC000410A10EE100A84ED250AB149B14AF2EE080AFAEE081A88427DDDC4ED250A7EE04F
:207BE00044F8B45F04ED0A9A04ED069A04ED039A25816581A58104ED209A04ED1F9A04ED8A
:207C0000189A04ED179A04ED109A04ED0F9ABDEC048B00E001E0BDE8F08194ED270A30EEFC
:207C2000690A9D4910EE100A884202DDB1EE040A06E010EE100A9949884201D9B9EE040A44
:207C4000D4ED220A70EE600AF0EEE00A10EE900AB04201DD84ED220A04F1680094ED220A98
:207C60000746FEF7E5FC84ED260A94ED290A3846FEF723FD94ED290A3846B1EE400AFEF7E9
:207C80001FFD93E7FFE794ED230A38EE400A844910EE100A884202DD9FED820A06E010EEC0
:207CA000100A8149884201D99FED800A04F128000746FEF7BDFC84ED250A94ED290A38463C
:207CC000FEF7FBFC94ED290A3846B1EE400AFEF7F7FC6BE7FFE7904201D9C4ED251A18EEDB
:207CE000100A734B984202DD9FED728A06E018EE100A714B984201DAB2EE028A9FED6F1AB3
:207D000081EE080A94ED251AB4EEC10AF1EE10FA01DBB0EE410A84ED250AB0EE491A38EE40
:207D2000C11A30EE410A10EE100A884202DDB0EE600A05E010EE100A904201D9B0EE610A84
:207D4000D4ED240A70EE600AF0EEE00A10EE900AB04201DD84ED240A94ED240A04F14800B1
:207D6000FEF766FC2068012812D15549D4F8AC00884204DD9FED530A84ED2B0A06E0524947
:207D8000884203D99FED510A84ED2B0A94ED2B0A19EE900A4E490122884201DDC4F8B42067
:207DA00019EE900A4B49884201DAC4F8B450D4F8B400012819D084ED2A0A94ED2A0ADFED71
:207DC000460A60EE200AFDEEE00AC4ED2C0A18EE900A4249B0F17F5F0CDBD4F8C400884234
:207DE0000AD2401CC4F8C40006E0BFEE000A84ED2A0AE2E7C4F8C450D4F8C400884202D3C1
:207E0000A4F8BC2002E00220A4F8BC00B5EEC00AF1EE10FA03D2BE3465802580F7E610EE0C
:207E2000100A2F49DFED2F0A884209DA20EE200ABE34BDEEC00A10EE100A60802580E6E6F6
:207E40009FED291A30EE410ADFED281A70EE218A18EE900A884202DDF0EE418A06E0F5EE18
:207E6000C08AF1EE10FA01D2F0EE498ABE3440F2A320608028EEA00ABDEEC00A10EE100A37
:207E80002080C4E600000000443900200AD7233C00004041000040C10000A0400000A0C0F9
:207EA0000000964200009642000096C2000096C20000A0420000A0420000104100001644F3
:207EC0006666E63F6666E63F6666E6BF6666E6BF00006B42000066420000C842A086010058
:207EE0006666663F00803B446666663F6E12033D90ED260A80ED250A7047000010B50830E4
:207F0000FEF7ECFB08382830FEF7E8FB28384830FEF7E4FB48386830FEF7E0FB68389FED55
:207F20000A0A80ED280AB2EE080A80ED290A9FED070A80ED2E0A0021417180ED2A0A016025
:207F400080ED2B0A10BD0000000066420000000010B50168072300204FF6FF720AE031F8C9
:207F60001040944204D1441C31F81440944203D0401C80B29842F2D310BD70B505462C1DCD
:207F8000002241F2481040F6B86134F81230834202D924F8120003E08B4201D224F81210E8
:207FA000521C92B2062AF0D30C21281D01F030FC28820722291D2868BDE87040FDF786BA5B
:207FC0000A4600F10E0100F09AB80A4600F1080100F095B80A4600F10A0100F090B80A46B4
:207FE000011D00F08CB80A4600F10C0100F087B80A46811D00F083B82DE9F05F04468B4619
:20800000C4F800B02046FFF7A3FF80464FF6FF7101EA48090726D4F800A0251D4FF480574A
:20802000B8F1070F17D0B8F1000F51D0A9F102025946201DFDF74EF9A9F102091FFA89F1D4
:20804000201D01F0E5FBA8F101083AF81810814228D0002024E00E225946201DFDF73AF904
:208060000C21201D01F0D4FB218A814245D00020761E03E025F81070401C80B2B042F9DBCB
:208080000C21201D01F0C4FB20820722211D2068BDE8F05FFDF71ABA25F81070401C80B24E
:2080A0004045F9DB1FFA88F0761E03E025F81070401C80B2B042F9DB0C21201D01F0A8FB70
:2080C00020820722211D2068BDE8F05FFDF7FEB90020761E03E025F81070401C80B2B042BC
:2080E000F9DB0C21201D01F093FB20820722211D2068BDE8F05FFDF7E9B9BDE8F09F002054
:20810000A2F6B863B3F5247F02D94FF4805201200A807047704730B500230288511E89B21C
:20812000446804EB8105D5ED000AF4EEC00AF1EE10FA01D2114619E0D4ED000AF4EEC00A23
:20814000F1EE10FA10DD002110E05A18520804EB8205D5ED000AF4EEC00AF1EE10FA01DDB7
:20816000114601E0521C93B29942EED88068042202EBC102024400EBC100D2ED000A90ED7D
:20818000001A40EE010AB0EE600A30BD0088002800D0012070470180426083607047002161
:2081A000018081604160704772B690F88420D0F8A41162F3000190F88C2062F3410190F88B
:2081C000682162F3041190F8502062F34511027E62F38611C0F8A41162B670472DE9F0411A
:2081E00004462DED028BFE4E96ED1A0AB2EE048AFC4D20EE080ABCEEC00A10EE100A2880D0
:2082000096ED1E0A20EE080ABCEEC00A10EE100A688096ED190AD6ED1D0A30EE201A21EE28
:20822000081ABCEEC11A11EE100AA88020EE080ABCEEC00A10EE100AE880EB4A92ED290A5B
:2082400020EE080ABCEEC00A10EE100A288120EE880ABCEEC00A10EE100A6881E34991ED0A
:20826000290A20EE080ABCEEC00A10EE100AA88196ED1C0AD6ED1F0A30EE200A20EE080AF9
:20828000BCEEC00A10EE100A288296ED1B0A60EE080AFCEEE00A10EE900AA5F85400D6ED80
:2082A000180A20EE881ABCEEC11A11EE100AA5F8560020EE200A20EE080ABCEEC00A10EE91
:2082C000100AA5F85800A5F50175C948D0ED1F0A90ED200AF4EEC00AF1EE10FA01DBB0EED2
:2082E000600ADFEDC40A40EE080ABDEEE00A10EE100AA5F85E02238CBF48B0F818020BB954
:20830000238D13B140F0010001E020F0010020F00200A5F81802D4F8B8312BB1D4F8BC31B3
:2083200013B140F0040001E020F0040020F00800A5F81802B4F8843013B9B4F88C3013B129
:2083400040F0100001E020F0100020F04000A5F81802B4F8403013B9B4F8483013B140F0D5
:20836000800001E020F08000A5F8180294F8503063F30820A5F81802B5F82A024FF00008F4
:20838000830701D5C00729D0D4F8A40140F00400C4F8A401B5F82A0220F00200A5F82A0203
:2083A000B5F82C0220F0020040F00100A5F82C02A5F85C82B5F85A02B5F86A329FED8F0AE2
:2083C000984227D9C01A0A281DDD94ED570ADFED8C0A30EE600A84ED570A21E0D4F8A401AD
:2083E00020F00400C4F8A401B5F82A0220F00100A5F82A02B5F82C0240F0020020F0010037
:20840000A5F82C02D6E7D4ED570A30EEC00A84ED570A05E0D4ED570A30EE800A84ED570A77
:2084200094ED570A774B10EE100A984204DDB2EE080A84ED570A08E0B5EEC00AF1EE10FA03
:2084400003D29FED710A84ED570AB5F8680200EE100AB8EE400ADFED6D1A20EE210A82ED64
:20846000280A10EE103A6A4F9FED6A1ADFF8A8C1F3EE0E0ABB4202DD82ED281A05E010EE10
:20848000103A634501DAC2ED280A00EE100AB8EE400A20EE210A81ED280A10EE100AB8424B
:2084A00002DD81ED281A05E010EE100A604501DAC1ED280A94F8080194F80911884200D2F9
:2084C000084605F23A252870544890ED0C0ABCEEC00A10EE101A6970514991ED0C0ABCEEE4
:2084E000C00A10EE102A2A7190ED0D0A20EE080ABDEEC00A10EE100A688091ED0D0A20EE13
:20850000080ABDEEC00A10EE100AE880E87AA5F23A25A8B1B4F80601401C80B2A4F80601BF
:20852000D4F8A41141F00801C4F8A41105280FD33C49012008704870C006FDF7D1FC07E0BC
:20854000A4F80681D4F8A40120F00800C4F8A401B5F89002344F012835D105F51B75384615
:208560002988FFF73CFDB9883048FEF7C3FB69883846FFF73DFDF9882C48FEF7E7FBA98813
:208580003846FFF722FD39892848FEF787FBE9883846FFF71FFD79892448FEF795FB2989F9
:2085A0003846FFF720FDB9892048FEF7B9FB69893846FFF705FDF9891C48FEF759FB02201E
:2085C000A884A5F51B75B5F89002022807D194F8080120B91448FFF7D0FCA5F8908227E0C2
:2085E000E43900208C3E0020F03A0020BC3B0020483400200000C843883C00206F12833A2A
:208600000BD7A33B0000404100000000CDCCCC3D00007042000070420000F041803A002008
:20862000B83A002000BF00208441002044390020B88805F51E752880F88868803889A88001
:208640007889E880B8892881F8896881D6ED1A0AB6EE000AB0EE401A00EE881AFCEEC10A8B
:2086600010EE900AA881D6ED1E0AB0EE401A00EE881AFCEEC10A10EE900AE881D6ED1B0A28
:20868000B0EE401A00EE881AFCEEC10A10EE900A2882D6ED190AB0EE401A00EE881AFCEE03
:2086A000C10A10EE900A6882D6ED1D0AB0EE401A00EE881AFCEEC10A10EE900AA882D6EDC1
:2086C000180A00EE880ABCEEC00A10EE100AE882BDEC028BBDE8F0812DE9F04704462DED05
:2086E000028B84B0884FD7F88400DFF82082DFF8209200250126B3EE098A04F1640A404525
:2087000001DC484504DAA4F8CE6084ED1F8A08E0A4F8CE5097ED210A5046FDF7F9FF84EDE9
:208720001F0AD7F88800404501DC484504DAA4F8D06084ED208A08E0A4F8D05097ED220AB1
:208740005046FDF7E5FF84ED200A9FED728A8DED008ADFED718ACDED018A4FF41678ADF802
:2087600008803C27ADF80A70ADF80C6094ED1F0A694604F18400FEF79BFE8DED008ACDEDC0
:20878000018AADF80880ADF80A70ADF80C6094ED200A694604F18C00FEF78AFE94ED1F8A6F
:2087A00094ED200AB4EEC08AF1EE10FA01DAB0EE408A04F19400B0EE480AFDF7E4FEB0EE09
:2087C000480A04F1B400FDF7DEFE9FED540A04F1A400FDF7D8FE5248007988BB5148007919
:2087E00070BBB4F88C0001282BD0B4F88400012827D0B4F8C800401C80B2A4F8C80041F209
:208800007071884203D3A4F8C810A4F8CA50B4F8CA00454AD0B1B4F8A000B4F8B0108842A5
:2088200000D20846B4F8C81011B1022800D3022092F84312814200D90846A4F8CC0009E099
:20884000FFE7A4F8C850A4F8CA60E0E792F84302A4F8CC003549B4F8CC2034481431062AB3
:2088600032D2DFE802F0030B131B232B41F2C122036843F0010303600A6025E04FF4226260
:20888000036843F0010303600A601DE04FF4B462036843F0010303600A6015E04FF43472C6
:2088A000036843F0010303600A600DE04FF4F072036843F0010303600A6005E000220368D6
:2088C00043F0010303600A60B4F8CC0018B10120FCF7EEFD02E00020FCF7EAFDB4F8C0000C
:2088E00005280BD2124901EB800090ED000A84ED310A04B0BDEC028BBDE8F0879FED0D0ACB
:2089000084ED310AF5E70000E439002000D040450000C8420000C8420000BE420000000029
:20892000F03A0020BC3B0020883C0020200C0040ECB900088FC2753E2DE9F05F04462DED0C
:20894000088B208C4100B4F8400041EA8000C4F8A801218D4A00B4F8481042EA8103C4F833
:20896000AC31218AB4F8502041EA4201C4F8B011B4F88420B4F88C5042EA4502C4F8B4218C
:20898000002801D101B90AB1012000E00020C4F8B8010BB901B90AB1012100E00021C4F8BA
:2089A000BC1194F808210025DFF8F493DFF8F483022A03D194F80921022A03D0C9F800509E
:2089C000C8F80050D4F8A42153079FEDF78A01D410B109B184ED578A218E09B9510703D54C
:2089E00084F80851A4F81C514FF0040A18B184F808A1A4F81C5194F8080141F2883BF2EEEA
:208A000000AADFEDEA9AEA4FEA4EB0EE00AAB2EE0EBAB2EE089ADFEDE88AB0B1022838D028
:208A2000042807D084F80851DD480571208F002878D113E2A4F81C51D9480571D4F8B80189
:208A40000028F3D184F80851F0E7B4F81C01401CA4F81C01D24800210171B4F81C01B0F585
:208A60007A7FE3D9C9F800509FEDD40A84ED530AA4F85051D248FDF7A7FEA4F81C5196ED7C
:208A80001A0A84ED430A022084F8080189F80550CCE799F8050070B9D4F80C01A0F18341D7
:208AA000B1F5701F04D9C7490844B0F51C0F02D8032089F8050094ED570A89ED290A99F8D9
:208AC000050020B1032850D002284ED0E7E0D6ED1A0A94ED431A31EE4A1AF4EEC10AF1EE92
:208AE00010FA07D8D6ED190A70EEE90AC4ED530AA4F850B1B4F8500110B1401EA4F85001A2
:208B0000B4F8500128B9D4ED530A70EEA80AC4ED530AD4ED530A10EE900AB84203DD84ED3A
:208B2000539A07E09EE1F5EEC00AF1EE10FA01D284ED538AD4ED530AB4EEE00AF1EE10FA98
:208B400001D9B0EE600A10EE100A89ED290AB0F1824F02DDC9ED29AAA1E0B5EEC00AF1EECB
:208B600010FA01D289ED298A99E094ED430A9448FDF71CFFB4F82001401C80B2A4F82001A5
:208B800032280AD3A4F82051D6ED1C0A96ED1A0A8B48FDF721FE89ED230A96ED1B0AD9ED0A
:208BA000280AB4EEE00AF1EE10FA11DDB0EE480A8348FDF7F1FD022089F80500B06E8249F2
:208BC000884205DA96ED190A30EE690A84ED530A96ED1B0AD9ED280A70EECA0AB4EEE00A89
:208BE000F1EE10FA07D29FED790A7548FDF7D4FD032089F80500B06EB0F1834F14DB74493C
:208C0000884211DC99ED290A724910EE100A884202DD89ED29BA21E0B5EEC00AF1EE10FAB8
:208C20001CD289ED298A19E066494942884215DB6949884212DC99ED290A684910EE100A44
:208C4000884204DDB2EE040A89ED290A06E0B5EEC00AF1EE10FA01D289ED298A94ED530AFC
:208C600030EE280A84ED530A10EE100AB84202DD84ED539A06E0B5EEC00AF1EE10FA01D278
:208C800084ED538A99ED290AD4ED530AB4EEE00AF1EE10FA01D9B0EE600A89ED290A96ED2C
:208CA0001C0AD4ED310A9FED491A60EE810AB4EEE00AF1EE10FA06DD94ED580A30EE680AFF
:208CC00084ED580A05E094ED580A30EE280A84ED580A94ED580A10EE100AB84202DD84ED91
:208CE000589A06E0B5EEC00AF1EE10FA01D284ED588A99ED290AD4ED580AB4EEE00AF1EED9
:208D000010FA01D9B0EE600A89ED290AD9F8000010B9D8F80000A0B1A4F81C51D6ED1E0A0F
:208D200096ED1A0AB7EE001AFCF7AEFF012803D0C9F8005089ED2B8AD9F80000012854D0D7
:208D400071E0D4ED440A94ED430AB6EE001AFCF79BFF012846D1D6ED1D0A96ED190AB6EE26
:208D6000001AFCF791FF01283CD1D8F8A8001C49884237DD99ED2A0AB5EEC00AF1EE10FA55
:208D800030D2B4F81C01401C80B2A4F81C01B0F57A7FD1D9A4F81C510120C9F80000CBE7DC
:208DA000F03A0020BC3B002000000000CDCC4C3E00004041E43900206F12833ACDCC4C3F0F
:208DC000803A00200000FCBD00003041000016440000BC41000070410000A0420000204144
:208DE000CDCC4C3EA4F81C51A6E798ED2A0A9FEDFE1AD9ED2B0A70EE411AF4EEE01AF1EEEE
:208E000010FA03DD70EEA80AC9ED2B0A70EE010A99ED2B0AF4EEC00AF1EE10FA03D230EEC1
:208E2000680A89ED2B0A99ED280AF04910EE100A884204DD9FEDEE0A89ED280A06E0B5EEAC
:208E4000C00AF1EE10FA01D289ED288A99ED280A89ED270AE74801210171E7E594F8A40145
:208E6000400703D584F80951A4F81E51D4F8BC0118B184F809A1A4F81E5194F80901B0B178
:208E8000022837D0042807D084F80951DA480571BDEC088BBDE8F09FA4F81E51D648057121
:208EA000D4F8BC010028F3D184F80951F0E7D24800210171B4F81E01401C80B2A4F81E01CF
:208EC000B0F57A7FE4D9C8F800501FED440A84ED550AA4F85851C948FDF776FCA4F81E5136
:208EE00096ED1E0A84ED440A022084F8090188F80550CDE798F8050070B9D4F81001A0F1AB
:208F00008341B1F5701F04D9BD490844B0F51C0F02D8032088F8050094ED570A88ED290A4D
:208F200098F8050020B103284FD002284DD0E6E0D6ED1E0A94ED441A31EE4A1AF4EEC10A7A
:208F4000F1EE10FA07D8D6ED1D0A70EEE90AC4ED550AA4F858B1B4F8580110B1401EA4F899
:208F60005801B4F8580128B9D4ED550A70EEA80AC4ED550AD4ED550A10EE900AB84202DDE1
:208F800084ED559A06E0F5EEC00AF1EE10FA01D284ED558AD4ED550AB4EEE00AF1EE10FA3D
:208FA00001D9B0EE600A10EE100A88ED290AB0F1824F02DDC8ED29AAA1E0B5EEC00AF1EE69
:208FC00010FA01D288ED298A99E094ED440A8B48FDF7ECFCB4F82201401C80B2A4F8220179
:208FE00032280AD3A4F82251D6ED1F0A96ED1E0A8248FDF7F1FB88ED230A96ED1B0AD8EDDB
:20900000280AB4EEE00AF1EE10FA11DDB0EE480A7A48FDF7C1FB022088F80500B06F7949D1
:20902000884205DA96ED1D0A30EE690A84ED550A96ED1B0AD8ED280A70EECA0AB4EEE00A1F
:20904000F1EE10FA07D21FED9F0A6C48FDF7A4FB032088F80500B06FB0F1834F14DB6A4976
:20906000884211DC98ED290A684910EE100A884202DD88ED29BA21E0B5EEC00AF1EE10FA60
:209080001CD288ED298A19E05D494942884215DB5F49884212DC98ED290A5E4910EE100AFF
:2090A000884204DDB2EE040A88ED290A06E0B5EEC00AF1EE10FA01D288ED298A94ED550A98
:2090C00030EE280A84ED550A10EE100AB84202DD84ED559A06E0B5EEC00AF1EE10FA01D210
:2090E00084ED558A98ED290AD4ED550AB4EEE00AF1EE10FA01D9B0EE600A88ED290A96EDC6
:209100001F0AD4ED310A1FEDCF1A60EE810AB4EEE00AF1EE10FA06DD94ED580A30EE680A91
:2091200084ED580A05E094ED580A30EE280A84ED580A94ED580A10EE100AB84202DD84ED2C
:20914000589A06E0B5EEC00AF1EE10FA01D284ED588A98ED290AD4ED580AB4EEE00AF1EE75
:2091600010FA01D9B0EE600A88ED290AD9F8000010B9D8F80000A0B1A4F81E51D6ED1E0AAA
:2091800096ED1A0AB7EE001AFCF77EFD012803D0C8F8005088ED2B8AD8F8000001284DD0AF
:2091A0006AE0D4ED440A94ED430AB6EE001AFCF76BFD01283FD1D6ED1D0A96ED190AB6EE02
:2091C000001AFCF761FD012835D1D9F8A8001249884230DD98ED2A0AB5EEC00AF1EE10FA3B
:2091E00029D2B4F81E0119E0CDCCCC3D0000664200006642F03A0020BC3B0020B83A00204B
:209200000000FCBD000030410000BC41000070410000A04200002041CDCC4C3E401C80B282
:20922000A4F81E01B0F57A7FB6D9A4F81E510120C8F80000B0E7A4F81E51ADE799ED2A0A6A
:209240001FED171AD8ED2B0A70EE411AF4EEE01AF1EE10FA03DD70EEA80AC8ED2B0A70EE21
:20926000010A98ED2B0AF4EEC00AF1EE10FA03D230EE680A88ED2B0A98ED280A0C4910EE7B
:20928000100A884204DD1FED260A88ED280A06E0B5EEC00AF1EE10FA01D288ED288A98ED6B
:2092A000280A88ED270A034801210171F0E5000000006642BC3B002010B504469FED200A9E
:2092C0002048F0EE400AFDF7F5FB1F491F48FEF71BFB1F4B1F4A922104F17000FDF716FA51
:2092E0001B4B1C4A922104F16400FDF70FFAB0EE000A194A062104F19400FDF73FF9164A52
:209300009FED160A083A032104F1A400FDF736F9114B04212433A3F1100204F5BE70FEF7E5
:209320003AFF0D4AB0EE000A4C32052104F1B400FDF724F9B7EE000A84ED310A10BD00006F
:2093400000000000C039002038000020883C0020F0B40008A8B2000890B90008CDCC4C3D37
:209360007047000070B50446002594F898010726062811D2DFE800F003171F253137D4F8F6
:20938000A80150B1D4F8AC0138B11948C06EB0F1834F01DD84F8986170BD012084F8980109
:2093A000A4F89A5170BDFCF70FFF022084F89801A4F89A5170BDFCF7F7FE032084F89801ED
:2093C00070BDB4F89A01401C80B2A4F89A010428F6D3042084F8980170BDFCF7E5F8052004
:2093E00084F8980170BDFCF7DEF884F8986170BDE439002010B50830FEF7A6F80838103073
:20940000FEF7A2F810381830FEF79EF818382030FEF79AF820382830FEF796F82838303088
:20942000FEF792F830383830FEF78EF838384030FEF78AF840384830FEF786F848385030A8
:20944000FEF782F850386430FDF7A4F964387030FDF7A0F970388430FEF776F884388C30F0
:20946000FEF772F88C389430FDF7DEF89438A430FDF7DAF8A438B430FDF7D6F8B438D43063
:20948000FEF762F8D438DC30FEF75EF8DC38E430FEF75AF8E438EC30FEF756F8EC38F430E8
:2094A000FEF752F8F438FC30FEF74EF8FC3800F59A70FEF749F8A0F59A7000F59E70FEF7DA
:2094C00043F8A0F59E7000F5B470FEF73DF8A0F5B47000F5B870FEF737F8A0F5B87000F5BF
:2094E000BE70FEF75CFEA0F5BE7000F5C470FEF72BF8A0F5C47000F5C870FEF725F8A0F54E
:20950000C8700021243020F8221C4163018701224287C187818780F87C11A0F8E0100D4AFC
:20952000C0F8782180F87411042280F8E4209FED0A0A80ED4A0A80ED4C0A80ED4E0AB2EEB2
:20954000080A80ED4F0AA0F82C11A0F83411243810BD0000880000200000000010B5124891
:20956000FDF7D8FC10487C30FCF749FD0E48A030FDF77AFF0D48FEF7EFFA0D48FDF77AFA63
:209580000B483830FDF776FA09487030FEF7B6FC0848FEF7B3FC0748CC30FEF7BBF9BDE887
:2095A00010400548FEF7B6BD4439002088000020803A0020BC3B0020844100200148FFF74C
:2095C00019BF0000483400200148FDF7EBBC000038420020816841F008018160816809079C
:2095E000FCD4816841F00401816081684907FCD47047521E01290DD002290AD1816B21F45D
:2096000040118163816B4FF4401303EA0252114381637047C16A21F47001C162C16A4FF421
:20962000700303EA02521143C1627047002904D0816841F4006181607047816821F40061D5
:209640008160704710B5144940180FD0B0F5806F16D0B0F5C05F1DD140F20F34204600F022
:2096600073FE2046BDE8104000F060BE40F20934204600F069FE2046BDE8104000F056BE85
:2096800040F20A34204600F05FFE2046BDE8104000F04CBE10BD000000DCFEBF816841F4CE
:2096A0008071816070478168C90703D1816841F0010181607047002A0CD0CA0703D082684C
:2096C00042F480128260890703D5816841F4004181607047CA0703D0826822F48012826069
:2096E0008907F6D5816821F4004181607047012909D0022906D1816821F4E041816081684A
:20970000114381607047816821F4602181608168114381607047000004490A6822F47022C1
:209720000A600A6802430A60704700000424014030B51F24062909D2456B01EB81018C4062
:20974000A54302FA01F42C43446318E00C290AD2056B891F01EB81018C40A54302FA01F4E6
:209760002C4304630BE0102909D2C56A0C3901EB81018C40A54302FA01F42C43C4620725CC
:209780000A2A08D2046902EB42018D40AC438B402343036130BD122AFCD2C4680A3A02EB79
:2097A00042018D40AC438B402343C36030BD50F8802F22F44052026002680A430260704798
:2097C000002A12D0CA0503D5426842F4807242604A0503D5426842F480624260890703D56F
:2097E000816841F0020181607047CA0503D5426822F4807242604A0503D5426822F48062F0
:2098000042608907F0D5816821F002018160704770B504460E460D480088002801D1FCF72F
:2098200017FD4FF6FF70002C0FD0002208490AE014F8013B80EA0305EBB231F8133083EAC8
:209840001020521C92B2B242F2D370BD340000204437002070B505460C462146284600F0CA
:20986000EDF840B104EB840005EB8000816821F00101816070BDFEE770B505460C46214617
:20988000284600F0DBF840B104EB840005EB8000816841F00101816070BDFEE770B5054644
:2098A0000C462146284600F0C9F840B104EB840005EB8000816841F02001816070BDFEE7CE
:2098C00070B504460D462946204600F0B7F898B105EB850004EB8002906820F0010090602A
:2098E00000209060D060106150616068AA000F2191400843606070BDFEE7436889008A4078
:20990000134343607047006889008A40104201D0012070470020704770B506460D461446EC
:209920002946304600F08AF848B305EB850006EB800022680261A1684161218A89B2C16050
:20994000816821F47C52E368616819436369134319438160217E012912D0816821F0400186
:209960008160617E012910D0816821F080018160A17E79B1816841F01001816070BDFEE75A
:20998000816841F040018160EBE7816841F080018160EDE7816821F01001816070BD70B52B
:2099A00006460C4615462146304600F047F838B104EB840006EB800081682943816070BD72
:2099C000FEE7436889008A4013434360704710B58C001346A24001EB810100EB8101022B60
:2099E00004D0042B08D0082B0CD0FEE700681040896801F002010AE000681040896801F077
:209A0000040104E000681040896801F0080110B109B1012010BD002010BD70B506460C46A1
:209A200015462146304600F009F828B104EB840006EB8000456170BDFEE70000024601201F
:209A4000034B9A4202D1042900D90020704700000004024070B506460C46154621463046EB
:209A6000FFF7ECFF30B104EB840106EB8101A8B2C86070BDFEE700B5034600F009F85B1E41
:209A8000012801D1002BF8D1012800D1042000BD00200849CA68D20701D001207047CA68A5
:209AA000D20601D503207047C9684907FBD50220704700000020024000B5034600F00AF8A2
:209AC0005B1E012801D1002BF8D1012800D1042000BD000000200849CA6CD20701D00120D1
:209AE0007047CA6CD20601D503207047C96C4907FBD502207047000000200240F0B5044672
:209B00000D462048204E214F0088B0F5007F26D91F48844211D23846FFF7ADFF00280BD1CD
:209B2000306940F00100306125803846FFF7A3FF316921F001013161F0BD3846FFF7BCFFF4
:209B40000028F9D1306D40F00100306525803846FFF7B2FF316D21F001013165F0BD384674
:209B6000FFF789FF0028F9D1306940F00100306125803846FFF77FFF316921F00101316144
:209B8000F0BD0000E0F7FF1F002002400000FF0FFFFF07080748016941F08001016106498A
:209BA0000988B1F5007F03D9016D41F0800101657047000000200240E0F7FF1F70B5044610
:209BC0002748284D284E0088B0F5007F32D92748844215D23046FFF74EFF00280FD1286906
:209BE00040F0020028616C61286940F0400028613046FFF740FF296921F00201296170BD4B
:209C00003046FFF759FF0028F9D1286D40F0020028656C65E869800700D56C61286D40F02A
:209C2000400028653046FFF747FF296D21F00201296570BD3046FFF71EFF0028F9D1286934
:209C400040F0020028616C61286940F0400028613046FFF710FF296921F00201296170BD1A
:209C6000E0F7FF1F002002400000FF0FFFFF070809480169094A0B06094901D542604160E8
:209C8000084B1B88B3F5007F04D9036D1B0601D5426441647047000000200240230167452F
:209CA000AB89EFCDE0F7FF1F41617047016170472DE9F04301F00F04CD0602D5042A18D040
:209CC000144300224FF00F0C012707FA02F51D401AD0D0F8009096000CFA06F829EA080934
:209CE00004FA06F848EA0908282908D0482908D008E044F00304C26B1A43C263E1E7456173
:209D000000E00561C0F80080521C92B2082ADCD3082207FA02F51D4016D0D0F80490A2F1DE
:209D20000806B6000CFA06F829EA080904FA06F848EA0908282902D0482902D002E045610A
:209D400000E00561C0F80480521C92B2102AE0D3BDE8F0838068084201D0012070470020CF
:209D600070470000F0B5154C002801DAE36900E06368C0F30346420D120185B2C0F301578C
:209D80009540032F07D0C2020CD50322B240934343F0E06209E023F0E062636823F0E0637F
:209DA000636002E0AB4343F0E06201B12A43002801DAE261F0BD6260F0BD000000000140D9
:209DC00010B54FF4A0414FF0006000F067F8FCF7A9F9002010BD00F01F02012191404009DD
:209DE000800000F1E020C0F88011704770B505460E460023002423480168C1F3022107290C
:209E000032D00168C1F3022106292FD00168C1F3022105292DD00168C1F3022104292BD0FF
:209E20000068C0F30220032829D04FF4A06000F02BF802230224C3F104008640C4F10401E8
:209E40000F20C84010403043000105F1E02181F8000405F01F01012088406909890001F1A8
:209E6000E021C1F8000170BD0424E4E701230324E1E702230224DEE703230124DBE70423B0
:209E8000D9E700000CED00E00249084302490860704700000000FA050CED00E0034A1140B3
:209EA000014303480160BFF34F8F704780FFFF1F08ED00E070B50446124EB5683068001D58
