:020000040800F2
:100000006005002045010008650200082102000883
:1000100061020008D501000841030008000000004B
:100020000000000000000000000000009302000833
:100030001F0200080000000091020008950200085D
:100040005F0100085F0100085F0100085F01000810
:100050005F0100085F0100085F0100085F01000800
:100060005F0100085F0100085F0100085F010008F0
:100070005F0100085F0100085F0100085F010008E0
:100080005F0100085F0100085F0100085F010008D0
:100090005F0100085F0100085F0100085F010008C0
:1000A0005F0100085F0100085F0100085F010008B0
:1000B0005F0100085F0100085F0100085F010008A0
:1000C0005F0100085F0100085F0100085F01000890
:1000D0005F0100085F0100085F0100085F01000880
:1000E0005F0100085F0100085F0100085F01000870
:1000F0005F0100085F0100085F0100085F01000860
:100100005F0100085F0100085F0100085F0100084F
:100110001D0300085F0100085F0100085F0100087F
:100120005F0100085F0100085F0100085F0100082F
:10013000DFF80CD000F03CF800480047FD0B000849
:10014000600500200648804706480047FEE7FEE7B6
:10015000FEE7FEE7FEE7FEE7FEE7FEE7FEE7FEE777
:10016000AD0200083101000840EA01039B0703D0FB
:1001700009E008C9121F08C0042AFAD203E011F8E6
:10018000013B00F8013B521EF9D27047D2B201E0A8
:1001900000F8012B491EFBD270470022F6E710B58C
:1001A00013460A4604461946FFF7F0FF204610BDE5
:1001B000064C074D06E0E06840F0010394E80700B4
:1001C00098471034AC42F6D3FFF7B6FF0C1A00087C
:1001D0002C1A000800BFFEE770B503460A46144615
:1001E0004FF6FF70002C18DD002113E05E5C7040BC
:1001F00000250BE000F0010626B14AF2010686EA6E
:10020000600600E0461030466E1CB5B2082DF1DBEA
:100210004E1CB1B2A142E9DB70BD00BFFCE77047E4
:1002200000BFFEE770B50446252000F019FD0A481E
:1002300001F09AFB206809490840B0F1005F09D13C
:100240006568206880F3088800BF206880F309880B
:1002500000BFA84770BD0000003801400000FE2F1D
:1002600000BFFEE77047000010B5002807DA0A0754
:10027000140E054A00F00F031B1FD45403E00A07B5
:10028000130E024A135410BD18ED00E000E400E024
:100290007047704710B504480068401C0249086068
:1002A00000F040F910BD00000400002008B5184817
:1002B000006840F47000164908601648006840F075
:1002C0000100144908600846406840F0800048601A
:1002D0000020009002E00098401C009044F620614D
:1002E00000988842F7D300200A494860C86208464F
:1002F000006809490840074908604FF41F008860FA
:100300000846006820F48020086000F04BFE08BD1D
:1003100088ED00E000100240FFFFF6FE10B5064930
:10032000064801F047FB30B1044801F0CBFAC4B2F3
:10033000204600F02DFF10BD05030500004C0040D5
:1003400000BFFEE702E008C8121F08C1002AFAD168
:1003500070477047002001E001C1121F002AFBD145
:100360007047000010B5002400F0A8FF3048314964
:100370000860002030490870304831490860314C2D
:1003800040F61A1000F0CCFD012805D040F61B10F5
:1003900000F0C6FD012807D100F00CFD4FF480717C
:1003A00024480068FFF7F9FE254800680068401CF3
:1003B00028B1234800680068234988420FD120787B
:1003C000FF2808D06078FF2805D0A078FF2802D049
:1003D00001201E4908701E201D49086023E01548B1
:1003E0000068007801280FD1124800684078012881
:1003F0000AD11649087042F21070154908606FF072
:10040000A50000F0AFFC0EE02078FF2808D060784F
:10041000FF2805D0A078FF2802D001200B490870E2
:100420001E200B49086000F039FB0A49086010BD26
:1004300000BF0020080000201800002000F0030882
:100440001C000020006000085AA5FFFF0C000020DF
:10045000140000201000002010B500F089FF234890
:100460000078002840D000F019FB21490968401AA3
:1004700020490968884237D900201F490968087057
:100480001D49096848701C480068807C401C1A4956
:1004900009688874194800680068401C28B117482A
:1004A00000680068164988420AD14FF4E8321549BD
:1004B000154800F043F890B9144800F0B7FB0EE07F
:1004C0000E4800680068A63048B94FF4E8320E497B
:1004D0000C4800F033F810B90C4800F0A7FB0A48AC
:1004E000FFF7A0FE00BFFEE710BD00000C000020DB
:1004F0001000002014000020080000201C00002034
:100500005AA5FFFF00200208005000085AA5A55A6E
:100510000349086000BF024909680029FBD1704700
:10052000000000200448006820B103480068401E15
:100530000149086070470000000000202DE9F041EB
:1005400006460D461746F00AC002B04202D001200E
:10055000BDE8F081E80AC002A84201D00120F7E717
:10056000F80AC002B84201D00120F1E7F019A84210
:1005700001D20120ECE7002400F094F923E0E00A26
:10058000C002A0420ED1281900F016F940F2053041
:1005900000F0ECF84FF4417000F0E8F840F202305F
:1005A00000F0E4F83159281900F09EF940F20530C6
:1005B00000F0DCF84FF4417000F0D8F840F202305F
:1005C00000F0D4F8241DBC42D9D300F0DFF800209D
:1005D000BEE700002DE9F04105460F46144600260F
:1005E0002046E11704EB9171C1F38708E11704EB92
:1005F00091718910A4EB810111B90FB1042C01DABA
:10060000BDE8F0812B48854202D8B5F1006F00D2D9
:10061000F6E700F047F940F2053000F0A7F84FF494
:10062000417000F0A3F840F2023000F09FF8224839
:10063000854211D1002021490870214800F0BCF802
:1006400040F2053000F092F84FF4417000F08EF85F
:1006500040F2023000F08AF8C5F30A0070B928466B
:1006600000F0AAF840F2053000F080F84FF4417035
:1006700000F07CF840F2023000F078F8002613E039
:1006800057F8261005EB860000F02EF940F20530F1
:1006900000F06CF84FF4417000F068F840F202305E
:1006A00000F064F8701CC6B24645E9DB00F06EF855
:1006B00000BFA5E7FFFF0308005000080C00002062
:1006C0000060000800B50346012200BF00F00CF8EE
:1006D00002465B1E012A01D1002BF7D1012A00D16D
:1006E0000422104600BD000000200A49C96801F03C
:1006F000010109B101200CE00649C96801F01001AF
:1007000009B1032005E00349C96801F0040101B102
:10071000022070470020024000B50346012200BFBE
:1007200000F00CF802465B1E012A01D1002BF7D124
:10073000012A00D10422104600BD000000200A4911
:10074000C96C01F0010109B101200CE00649C96C36
:1007500001F0100109B1032005E00349C96C01F063
:10076000040101B10220704700200240064A02EB5A
:100770009011096800F01F0301229A401143024BB7
:1007800003EB901211607047002002400848006996
:1007900040F080000649086106480088B0F5007FF7
:1007A00004D90846006D40F08000086570470000DD
:1007B00000200240E0F7FF1F30B5054636480088AC
:1007C000B0F5007F48D9354885421ED24FF47020DD
:1007D000FFF778FF0446002C5BD13148006940F0F8
:1007E00002002F49086108464561006940F0400059
:1007F00008614FF47020FFF765FF04462848006940
:1008000020F002002649086143E04FF47020FFF712
:1008100083FF0446002C3CD12148006D40F00200CB
:100820001F49086508464565C06900F0020008B127
:10083000084645611A48006D40F0400018490865B7
:100840004FF47020FFF768FF04461548006D20F054
:100850000200134908651CE04FF47020FFF732FFD7
:100860000446B4B90E48006940F002000C49086122
:1008700008464561006940F0400008614FF470206F
:10088000FFF720FF04460648006920F002000449F3
:100890000861204630BD0000E0F7FF1FFFFF07089A
:1008A000002002400C48006900F0800020B10B4895
:1008B000094948600A4848600A480088B0F5007F46
:1008C00009D90548006D00F0800020B103480249B5
:1008D000486403484864704700200240230167458C
:1008E000AB89EFCDE0F7FF1F70B504460D4600263B
:1008F0002A480088B0F5007F35D92948844219D2AA
:100900004FF47020FFF7DEFE0646002E43D1254847
:10091000006940F001002349086125604FF4702010
:10092000FFF7D0FE06461F48006920F001001D4970
:10093000086130E04FF47020FFF7EEFE064656BB2C
:100940001848006D40F001001649086525604FF415
:100950007020FFF7E1FE06461248006D20F001000E
:100960001049086517E04FF47020FFF7ABFE06460C
:100970008EB90C48006940F001000A490861256001
:100980004FF47020FFF79EFE06460648006920F0EF
:10099000010004490861304670BD0000E0F7FF1F08
:1009A000FFFF07080020024070B504460D460026F0
:1009B00037480088B0F5007F47D93648844222D2B4
:1009C0004FF47020FFF77EFE06463348006840F083
:1009D00002003149FC39C1F8FC00002E56D108460E
:1009E000006940F00100086125604FF47020FFF7B6
:1009F00069FE06462848FC38006920F001002649B7
:100A0000FC39086142E04FF47020FFF785FE06468E
:100A10002148006840F002001F49FC39C1F8FC0081
:100A2000A6BB0846006D40F00100086525604FF444
:100A30007020FFF771FE06461748FC38006D20F065
:100A400001001549FC39086520E04FF47020FFF7DC
:100A500039FE06461048006840F002000E49FC3995
:100A6000C1F8FC0096B90846006940F00100086131
:100A700025604FF47020FFF725FE06460648FC3837
:100A8000006920F001000449FC390861304670BD5E
:100A9000E0F7FF1FFFFF0708FC2002400148006845
:100AA00070470000040000204161704701617047F9
:100AB000F0B5044616460025002201F00F0501F0AE
:100AC000100747B1042E05D145F00305E76B1F431E
:100AD000E76300E0354300201EE0012787401F4008
:100AE000C7B122684FEA800C0F2707FA0CF7BA4308
:100AF000870005FA07F73A43282904D101278740E0
:100B00001F40676105E0482903D1012787401F4046
:100B100027612260471CB8B20828DED3082022E0F3
:100B2000012787401F40E7B16268A0F108074FEA3C
:100B3000870C0F2707FA0CF7BA43A0F10807BF008C
:100B400005FA07F73A43282904D1012787401F40B7
:100B5000676105E0482903D1012787401F402761CD
:100B60006260471CB8B21028DAD3F0BDF0B50A466F
:100B7000002300240021002500F00046B6F1004FBC
:100B800002D11D4EF16901E01B4E7168C0F30345AF
:100B900083B200F44016B6F5401F08D121F0E061A1
:100BA000154E766826F0E066134F7E6012E000F482
:100BB0008016B6F5801F06D1032606FA05F4A14378
:100BC00041F0E06106E0460D360103FA06F6B14356
:100BD00041F0E06122B1460D360103FA06F63143D9
:100BE00000F00046B6F1004F02D1034EF16101E082
:100BF000014E7160F0BD00000000014000240021A2
:100C00004FF0006000F0A4F800F0D0F9FFF7AAFB65
:100C10000AE0FFF721FCFFF741FF001BB0F57A7FE8
:100C200002D9FFF73BFF0446F3E7000010B5044686
:100C3000FFF738FE21460948FFF7B6FE40F20530BF
:100C4000FFF794FD4FF44170FFF790FD40F2023042
:100C5000FFF78CFDFFF79AFD10BD000000F00308C0
:100C600000F01F0201219140024A431142F8231073
:100C70007047000080E100E02DE9F04103460D4699
:100C8000164600240027A0462A48006800F4E060C9
:100C9000B0F5E06F03D100BF4FF0040830E0254805
:100CA000006800F4E060B0F5C06F03D101274FF099
:100CB000030825E01F48006800F4E060B0F5A06F6D
:100CC00002D10227B8461BE01A48006800F4E06031
:100CD000B0F5806F03D103274FF0010810E01548ED
:100CE000006800F4E060B0F5407F03D104274FF0C6
:100CF000000805E04FF4A06000F020F80227B84695
:100D0000C7F1040005FA00F4C8F104010F20C8403F
:100D10003040044324010848C45403F01F0101205B
:100D200088405911890001F1E021C1F80001BDE8B6
:100D3000F08100000CED00E000E400E00249014316
:100D4000024A1160704700000000FA050CED00E057
:100D5000024A0A400243024B1A60704780FFFF1F9D
:100D600008ED00E010B50446FFF79CFD1048FFF7C2
:100D700023FD40F20530FFF7F9FC4FF44170FFF717
:100D8000F5FC40F20230FFF7F1FC21460848FFF77E
:100D9000ABFD40F20530FFF7E9FC4FF44170FFF77F
:100DA000E5FC40F20230FFF7E1FCFFF7EFFC10BD7D
:100DB00000F003080348406A40F08070014948622F
:100DC00070470000001002402DE9F04F8CB007463C
:100DD00000200A904AA090E8004CC068CDE905BE0A
:100DE000CDF810A007900FF21C1ADAE9000ACDE93D
:100DF000020A0FF2101ADAE9000ACDE9000A4448A3
:100E00004068C0F381000B900B9820B1012804D0FA
:100E100002283FD103E03F4A3EE03E4A3CE03C48E6
:100E2000406800F4803CBCF5803F12D13848C06A6D
:100E300000F08048B8F1000F01D1364C00E0364C8C
:100E40003348406800F40039B9F5003F02D1334C13
:100E500000E0324C2E484068C0F383412C48406883
:100E600000F0006008B141F010012948406800F02E
:100E7000804008B141F020010F2901D2891C06E011
:100E80000F2903D33E2901D8491C00E03F2104FB70
:100E900001F201E01F4A00BF00BF1D484068C0F3D7
:100EA000031504A8465D22FA06F319484068C0F30A
:100EB000022502A8465D23FA06F00990144840680E
:100EC000C0F3C2251DF8056023FA06F0089037B17B
:100ED000012F06D0022F06D0032F0AD106E00A9276
:100EE00008E00A9306E009980A9003E008980A903F
:100EF00000E000BF00BF0A980CB0BDE8F08F000012
:100F000000000000000000000102030406070809B9
:100F10000010024000127A00006CDC0200093D0063
:100F20000146074A02EB9110006801F01F030122FD
:100F30009A40104008B1012070470020FCE70000F3
:100F400000100240064A02EB9011096800F01F03EE
:100F500001229A401143024B03EB9012116070473B
:100F600000100240064A02EB9011096800F01F03CE
:100F700001229A409143024B03EB9012116070479B
:100F800000100240064A02EB9011096800F01F03AE
:100F900001229A401143024B03EB901211607047FB
:100FA0000010024010B500F043F810BD10B5124813
:100FB00000684FF47A71B0FBF1F4601EB0F1807FED
:100FC00001D301200FE0601E4FF0E02148610F21A6
:100FD0004FF0FF30FFF748F900204FF0E021886123
:100FE00007200861002008B100BFFEE70021481E6D
:100FF000FFF73AF910BD000040000020000000009B
:10100000010000AAAA00000000000000000000008B
:10101000000000AAAA00000000000000000000007C
:1010200001AAAAAAAA000000000000000000000017
:10103000002000213F4A126842F480323D4B1A6082
:1010400000BF401C3B4A126802F4003119B94FF648
:10105000FF729042F5D1374A126802F400320AB9A1
:1010600000BFFEE7334AD26942F08052314BDA6169
:10107000314A126842F440422F4B1A602D4A52689E
:101080002C4B5A601A4652685A601A46526842F40B
:1010900080625A601A46526822F440325A601A46F8
:1010A000526842F440325A601A465268234B1A4042
:1010B000204B5A601A465268214B1A431D4B5A6006
:1010C0001A46126842F080721A6000BF194A12680C
:1010D00002F00072002AF9D0174A126842F48032F6
:1010E000154B1A6000BF144A526802F48032002A7D
:1010F000F9D0114A126842F400320F4B1A6000BF57
:101100000D4A526802F40032002AF9D0094A5268A6
:1011100022F00302074B5A601A46526842F002025C
:101120005A6000BF034A526802F00802002AF9D050
:10113000704700000010024000700040FFFFC3B77E
:101140000000340830B5A3B00446A1208DF800009B
:10115000E0208DF8010020788DF8020060788DF88D
:10116000030000208DF804006278211D0DF10500B8
:10117000FEF7FAFF6078411D6846FFF72DF8054637
:101180006088A84202D1012023B030BD0020FBE7D7
:1011900010B50446434840784249087008468078B4
:1011A00048700846C07888700846C47000785A288D
:1011B00016D108464078A52812D108468078A12883
:1011C0000ED10846C078E0280AD1012036490870BF
:1011D00088213648FEF7E1FF00203549087010BD30
:1011E00031480078012805D13048047002202E498A
:1011F000087055E02C48007802280BD12B48447029
:1012000003202949087029484078842848DD0020B7
:10121000087045E024480078032808D104202249BA
:1012200008702248407810BB0520087038E01E483E
:101230000078042812D11D48001D1D490978445426
:101240001B480078401C1A490870184840780978F3
:10125000884225DC05201449087021E012480078F6
:10126000052805D11148448006200F49087017E071
:101270000D480078062810D10C48408840EA042028
:101280000A49488088220B48FEF76EFF01200A4970
:10129000087000200449087002E00020024908702C
:1012A00000BF9CE7380000203C000020D800002050
:1012B0003D000020500000202400002010B5002236
:1012C00011463420FFF7D8FC4FF4C060FFF73AFE18
:1012D00040F20460FFF736FE40F20460FFF732FE92
:1012E00040F20260FFF72EFE01211D48FFF73EFC91
:1012F00040F21370FFF726FE4FF48063012218219D
:101300001848FFF7D5FB4FF4006301224821154828
:10131000FFF7CEFB4FF40043012210211248FFF7E4
:10132000C7FB4FF400411048FFF7BEFB0F4800F029
:10133000D3FA4FF4E1310D4800F07CFA04210B4858
:1013400000F054FB0821094800F058FB074800F062
:1013500010FB40F20531054800F01FFB10BD0000F6
:10136000000230000010014000080140004C004025
:1013700010B51848007800B910BD17480078F0285B
:1013800002D100F035FA20E013480078F42802D1A9
:1013900000F0D8F919E01048007810B900F084F88E
:1013A00013E00D480078F12802D100F06BF90CE051
:1013B00009480078F22802D100F096F805E00648C6
:1013C0000078F32801D100F017F9002001490870D6
:1013D00000BFD1E7240000205000002037B588B0BE
:1013E0005A208DF80000A5208DF80100E0208DF82E
:1013F0000200A1208DF803009DF820008DF8040064
:101400009DF821008DF8050000208DF806000024CD
:1014100006E009A8015DE01D0DF80010601CC4B2D3
:101420009DF82100A042F4DC9DF82100411D0DF142
:101430000200FEF7D1FE0546E9B29DF82100C01D6D
:101440000DF8001029129DF8210008300DF8001049
:101450004FF400411248FFF729FB00240DE01DF86E
:101460000410104800F033FA00BF07210D4800F0C7
:1014700085FA0028F9D0601CC4B29DF8210008301C
:10148000A042ECDA00BF0621064800F077FA0028F7
:10149000F9D04FF400410248FFF706FB0BB030BD16
:1014A00000080140004C00400EB50D48FFF74AFE11
:1014B00000B90EBD00200B490870022048700020C2
:1014C000087100210748417101680091416801914C
:1014D0008068024602900098FFF780FF00BFE8E7AF
:1014E00050000020440000202DE9FE430027002585
:1014F0000024A0463A484579007900EB052085B2E2
:10150000374890F80780807900EB08201FFA80F8B0
:101510003348FFF717FE08B902274BE0314800882F
:10152000281A012803D130480088854201DD0327AD
:1015300040E0012D02D100202C4908602848407865
:10154000001F84B2E11704EB91718910A4EB8101B3
:1015500089B926490968264A88182246204908314F
:10156000FFF738F81F48058001272048006820440D
:101570001E4908601EE004271B480088A84219D1B4
:101580002646E11704EB91718910491C4FF6FF7351
:1015900003EA810215490968154BC818104908313A
:1015A000FFF718F80F48058001271048006820440D
:1015B0000E490860F2200F490870032048700D7131
:1015C00029120C48417187710168009141680191AD
:1015D0008068024602900098FFF700FFBDE8FE8396
:1015E00050000020300000202E0000203400002099
:1015F0000050000844000020FEB50025002400260D
:101600001A48FFF79FFD00B9FEBD19480068194947
:101610000968884201D0022514E014484479007911
:1016200000EB042084B21248008881B21248FEF711
:10163000D3FD0646A64201D0032503E00125012083
:101640000E490870F3200E490870012048700846C2
:10165000057101680091416801918068024602901D
:101660000098FFF7BBFE00BFCEE70000500000204F
:10167000340000202800002000500008180000203E
:10168000440000203EB500242848FFF75BFD00B968
:101690003EBD2648C07926490860244880790968FB
:1016A00000EB01202249086020484079096800EBDE
:1016B00001201F4908601D480079096800EB0120DE
:1016C0001B4908601948407A1A4908801748007A6F
:1016D000097800EB0120174908801448C07A1649A0
:1016E00008801248807A097800EB012012490880AE
:1016F0000F480068B0F5E83F01D9042403E0012455
:1017000000200E490880F1200D4908700120487022
:1017100008460471016800914168019180680246A1
:1017200002900098FFF75AFE00BFB1E7500000207A
:10173000280000202E0000202C0000203000002077
:10174000440000200EB52248FFF7FCFC00B90EBD96
:10175000F42020490870042048701F4800780128B0
:1017600001D1087102E002201A49087100211948CC
:1017700041718171C1710168009141680191806876
:10178000024602900098FFF729FE134800780128CE
:101790001BD10A20FEF7BCFE002010490968087022
:1017A0000E49096848700E48FFF740FA4FF4E832D6
:1017B0000C490D48FEF7C2FE10B90C48FFF736FA87
:1017C0000948FEF72FFD00BFFEE700BFBFE700009E
:1017D00050000020440000201800002008000020D5
:1017E0005AA5FFFF00200208005000085AA5A55A7C
:1017F0003EB5002400250D48FFF7A4FC00B93EBD0E
:1018000004B90124F0200A490870012048700846F4
:10181000047101680091416801918068024602905C
:101820000098FFF7DBFD00BFE9E700005000002053
:10183000440000202DE9F04704460D460027B84635
:10184000B94600261D49601A8C421CD006DC1C4893
:10185000204470B1B0F5806F1FD10FE0B0F5806FFC
:1018600016D0B0F56C4F18D10320FFF7ADFA07463C
:1018700014E00220FFF7A8FA07460FE00220FFF766
:10188000A3FA07460AE00220FFF79EFA074605E0A2
:101890000220FFF799FA074600E000BF00BF07EB00
:1018A0005500B0FBF5F64FF6F07006EA000806F0BA
:1018B0000F0948EA0900A060BDE8F087004C00402D
:1018C00000BCFFBF01464868C0F308007047C1F381
:1018D000080242607047000010B504462049601AB3
:1018E0008C4228D006DC1F48204490B1B0F5806FB0
:1018F00033D117E0B0F5806F26D0B0F56C4F2CD106
:1019000040F20E30FFF73EFB40F20E30FFF72AFBAD
:1019100024E040F21140FFF735FB40F21140FFF7A1
:1019200021FB1BE040F21240FFF72CFB40F212407B
:10193000FFF718FB12E040F21340FFF723FB40F2E1
:101940001340FFF70FFB09E040F21440FFF71AFBCA
:1019500040F21440FFF706FB00E000BF00BF10BDDF
:10196000004C004000BCFFBFC16821F40051C160C1
:101970007047C16841F40051C160704710B502461C
:1019800002EB9110006801F01F040123A3401840EE
:1019900008B1012010BD0020FCE710B500EB91124A
:1019A000126801F01F040123A3401A4300EB9113B6
:1019B0001A6010BD70B5024600230024C1F38910DF
:1019C000105801F01F060125B54000EA050302EB9F
:1019D00091500068C1F304460125B54000EA0504B2
:1019E00014B10BB1012070BD0020FCE70A460021B4
:1019F000C16821F004011143C16070470A4600210B
:101A0000C16821F008011143C16070472C1A000819
:101A1000000000204400000044030008701A000881
:101A2000440000201C0500005403000800000000D2
:101A300000000000000000000000000000000000A6
:101A40000000000000000000000000000000000096
:101A50000000000000000000000000000000000086
:101A6000000000000000000000000000000E27073A
:0400000508000131BD
:00000001FF
