:020000040800F2
:200000006005002045010008650200082102000861020008D50100084103000800000000DE
:20002000000000000000000000000000930200081F020008000000009102000895020008C0
:200040005F0100085F0100085F0100085F0100085F0100085F0100085F0100085F01000860
:200060005F0100085F0100085F0100085F0100085F0100085F0100085F0100085F01000840
:200080005F0100085F0100085F0100085F0100085F0100085F0100085F0100085F01000820
:2000A0005F0100085F0100085F0100085F0100085F0100085F0100085F0100085F01000800
:2000C0005F0100085F0100085F0100085F0100085F0100085F0100085F0100085F010008E0
:2000E0005F0100085F0100085F0100085F0100085F0100085F0100085F0100085F010008C0
:200100005F0100085F0100085F0100085F0100081D0300085F0100085F0100085F010008DF
:200120005F0100085F0100085F0100085F010008DFF80CD000F03CF800480047FD0B0008A9
:20014000600500200648804706480047FEE7FEE7FEE7FEE7FEE7FEE7FEE7FEE7FEE7FEE77E
:20016000AD0200083101000840EA01039B0703D009E008C9121F08C0042AFAD203E011F852
:20018000013B00F8013B521EF9D27047D2B201E000F8012B491EFBD270470022F6E710B5C5
:2001A00013460A4604461946FFF7F0FF204610BD064C074D06E0E06840F0010394E807004A
:2001C00098471034AC42F6D3FFF7B6FF0C1A00082C1A000800BFFEE770B503460A46144662
:2001E0004FF6FF70002C18DD002113E05E5C704000250BE000F0010626B14AF2010686EA1B
:20020000600600E0461030466E1CB5B2082DF1DB4E1CB1B2A142E9DB70BD00BFFCE77047E0
:2002200000BFFEE770B50446252000F019FD0A4801F09AFB206809490840B0F1005F09D18C
:200240006568206880F3088800BF206880F3098800BFA84770BD0000003801400000FE2F7A
:2002600000BFFEE77047000010B5002807DA0A07140E054A00F00F031B1FD45403E00A077B
:20028000130E024A135410BD18ED00E000E400E07047704710B504480068401C024908601E
:2002A00000F040F910BD00000400002008B51848006840F47000164908601648006840F03E
:2002C0000100144908600846406840F0800048600020009002E00098401C009044F6206139
:2002E00000988842F7D300200A494860C8620846006809490840074908604FF41F0088603B
:200300000846006820F48020086000F04BFE08BD88ED00E000100240FFFFF6FE10B5064960
:20032000064801F047FB30B1044801F0CBFAC4B2204600F02DFF10BD05030500004C0040FB
:2003400000BFFEE702E008C8121F08C1002AFAD170477047002001E001C1121F002AFBD100
:200360007047000010B5002400F0A8FF304831490860002030490870304831490860314C04
:2003800040F61A1000F0CCFD012805D040F61B1000F0C6FD012807D100F00CFD4FF4807104
:2003A00024480068FFF7F9FE254800680068401C28B1234800680068234988420FD1207821
:2003C000FF2808D06078FF2805D0A078FF2802D001201E4908701E201D49086023E01548CD
:2003E0000068007801280FD112480068407801280AD11649087042F21070154908606FF0E6
:20040000A50000F0AFFC0EE02078FF2808D06078FF2805D0A078FF2802D001200B49087045
:200420001E200B49086000F039FB0A49086010BD00BF0020080000201800002000F00308DC
:200440001C000020006000085AA5FFFF0C000020140000201000002010B500F089FF2348C3
:200460000078002840D000F019FB21490968401A20490968884237D900201F49096808706E
:200480001D49096848701C480068807C401C1A4909688874194800680068401C28B1174814
:2004A00000680068164988420AD14FF4E8321549154800F043F890B9144800F0B7FB0EE0F0
:2004C0000E4800680068A63048B94FF4E8320E490C4800F033F810B90C4800F0A7FB0A48FB
:2004E000FFF7A0FE00BFFEE710BD00000C0000201000002014000020080000201C00002003
:200500005AA5FFFF00200208005000085AA5A55A0349086000BF024909680029FBD1704783
:20052000000000200448006820B103480068401E0149086070470000000000202DE9F04135
:2005400006460D461746F00AC002B04202D00120BDE8F081E80AC002A84201D00120F7E77A
:20056000F80AC002B84201D00120F1E7F019A84201D20120ECE7002400F094F923E0E00AAB
:20058000C002A0420ED1281900F016F940F2053000F0ECF84FF4417000F0E8F840F2023035
:2005A00000F0E4F83159281900F09EF940F2053000F0DCF84FF4417000F0D8F840F20230DA
:2005C00000F0D4F8241DBC42D9D300F0DFF80020BEE700002DE9F04105460F461446002681
:2005E0002046E11704EB9171C1F38708E11704EB91718910A4EB810111B90FB1042C01DA41
:20060000BDE8F0812B48854202D8B5F1006F00D2F6E700F047F940F2053000F0A7F84FF483
:20062000417000F0A3F840F2023000F09FF82248854211D1002021490870214800F0BCF871
:2006400040F2053000F092F84FF4417000F08EF840F2023000F08AF8C5F30A0070B9284620
:2006600000F0AAF840F2053000F080F84FF4417000F07CF840F2023000F078F8002613E0E4
:2006800057F8261005EB860000F02EF940F2053000F06CF84FF4417000F068F840F20230E5
:2006A00000F064F8701CC6B24645E9DB00F06EF800BFA5E7FFFF0308005000080C0000206D
:2006C0000060000800B50346012200BF00F00CF802465B1E012A01D1002BF7D1012A00D131
:2006E0000422104600BD000000200A49C96801F0010109B101200CE00649C96801F01001E1
:2007000009B1032005E00349C96801F0040101B1022070470020024000B50346012200BFD7
:2007200000F00CF802465B1E012A01D1002BF7D1012A00D10422104600BD000000200A496C
:20074000C96C01F0010109B101200CE00649C96C01F0100109B1032005E00349C96C01F0F0
:20076000040101B10220704700200240064A02EB9011096800F01F0301229A401143024B88
:2007800003EB901211607047002002400848006940F080000649086106480088B0F5007F24
:2007A00004D90846006D40F0800008657047000000200240E0F7FF1F30B505463648008840
:2007C000B0F5007F48D9354885421ED24FF47020FFF778FF0446002C5BD13148006940F0AC
:2007E00002002F49086108464561006940F0400008614FF47020FFF765FF04462848006990
:2008000020F002002649086143E04FF47020FFF783FF0446002C3CD12148006D40F00200F5
:200820001F49086508464565C06900F0020008B1084645611A48006D40F040001849086516
:200840004FF47020FFF768FF04461548006D20F00200134908651CE04FF47020FFF732FF83
:200860000446B4B90E48006940F002000C49086108464561006940F0400008614FF4702009
:20088000FFF720FF04460648006920F0020004490861204630BD0000E0F7FF1FFFFF070825
:2008A000002002400C48006900F0800020B10B48094948600A4848600A480088B0F5007F93
:2008C00009D90548006D00F0800020B1034802494864034848647047002002402301674519
:2008E000AB89EFCDE0F7FF1F70B504460D4600262A480088B0F5007F35D92948844219D2DD
:200900004FF47020FFF7DEFE0646002E43D12548006940F001002349086125604FF4702070
:20092000FFF7D0FE06461F48006920F001001D49086130E04FF47020FFF7EEFE064656BBD5
:200940001848006D40F001001649086525604FF47020FFF7E1FE06461248006D20F001007C
:200960001049086517E04FF47020FFF7ABFE06468EB90C48006940F001000A490861256086
:200980004FF47020FFF79EFE06460648006920F0010004490861304670BD0000E0F7FF1F90
:2009A000FFFF07080020024070B504460D46002637480088B0F5007F47D93648844222D25D
:2009C0004FF47020FFF77EFE06463348006840F002003149FC39C1F8FC00002E56D108466A
:2009E000006940F00100086125604FF47020FFF769FE06462848FC38006920F00100264966
:200A0000FC39086142E04FF47020FFF785FE06462148006840F002001F49FC39C1F8FC0029
:200A2000A6BB0846006D40F00100086525604FF47020FFF771FE06461748FC38006D20F0E3
:200A400001001549FC39086520E04FF47020FFF739FE06461048006840F002000E49FC39CB
:200A6000C1F8FC0096B90846006940F00100086125604FF47020FFF725FE06460648FC38E2
:200A8000006920F001000449FC390861304670BDE0F7FF1FFFFF0708FC200240014800683D
:200AA00070470000040000204161704701617047F0B5044616460025002201F00F0501F061
:200AC000100747B1042E05D145F00305E76B1F43E76300E0354300201EE0012787401F4000
:200AE000C7B122684FEA800C0F2707FA0CF7BA43870005FA07F73A43282904D101278740E2
:200B00001F40676105E0482903D1012787401F4027612260471CB8B20828DED3082022E054
:200B2000012787401F40E7B16268A0F108074FEA870C0F2707FA0CF7BA43A0F10807BF0003
:200B400005FA07F73A43282904D1012787401F40676105E0482903D1012787401F402761DF
:200B60006260471CB8B21028DAD3F0BDF0B50A46002300240021002500F00046B6F1004FA6
:200B800002D11D4EF16901E01B4E7168C0F3034583B200F44016B6F5401F08D121F0E061EB
:200BA000154E766826F0E066134F7E6012E000F48016B6F5801F06D1032606FA05F4A143B5
:200BC00041F0E06106E0460D360103FA06F6B14341F0E06122B1460D360103FA06F631430A
:200BE00000F00046B6F1004F02D1034EF16101E0014E7160F0BD000000000140002400211F
:200C00004FF0006000F0A4F800F0D0F9FFF7AAFB0AE0FFF721FCFFF741FF001BB0F57A7F69
:200C200002D9FFF73BFF0446F3E7000010B50446FFF738FE21460948FFF7B6FE40F2053081
:200C4000FFF794FD4FF44170FFF790FD40F20230FFF78CFDFFF79AFD10BD000000F003085E
:200C600000F01F0201219140024A431142F823107047000080E100E02DE9F04103460D4688
:200C8000164600240027A0462A48006800F4E060B0F5E06F03D100BF4FF0040830E025486A
:200CA000006800F4E060B0F5C06F03D101274FF0030825E01F48006800F4E060B0F5A06FC2
:200CC00002D10227B8461BE01A48006800F4E060B0F5806F03D103274FF0010810E01548FA
:200CE000006800F4E060B0F5407F03D104274FF0000805E04FF4A06000F020F80227B84657
:200D0000C7F1040005FA00F4C8F104010F20C8403040044324010848C45403F01F010120B7
:200D200088405911890001F1E021C1F80001BDE8F08100000CED00E000E400E00249014309
:200D4000024A1160704700000000FA050CED00E0024A0A400243024B1A60704780FFFF1F51
:200D600008ED00E010B50446FFF79CFD1048FFF723FD40F20530FFF7F9FC4FF44170FFF756
:200D8000F5FC40F20230FFF7F1FC21460848FFF7ABFD40F20530FFF7E9FC4FF44170FFF79A
:200DA000E5FC40F20230FFF7E1FCFFF7EFFC10BD00F003080348406A40F080700149486269
:200DC00070470000001002402DE9F04F8CB0074600200A904AA090E8004CC068CDE905BE23
:200DE000CDF810A007900FF21C1ADAE9000ACDE9020A0FF2101ADAE9000ACDE9000A4448DD
:200E00004068C0F381000B900B9820B1012804D002283FD103E03F4A3EE03E4A3CE03C48FE
:200E2000406800F4803CBCF5803F12D13848C06A00F08048B8F1000F01D1364C00E0364C37
:200E40003348406800F40039B9F5003F02D1334C00E0324C2E484068C0F383412C484068F4
:200E600000F0006008B141F010012948406800F0804008B141F020010F2901D2891C06E0BD
:200E80000F2903D33E2901D8491C00E03F2104FB01F201E01F4A00BF00BF1D484068C0F3E5
:200EA000031504A8465D22FA06F319484068C0F3022502A8465D23FA06F0099014484068D6
:200EC000C0F3C2251DF8056023FA06F0089037B1012F06D0022F06D0032F0AD106E00A92CF
:200EE00008E00A9306E009980A9003E008980A9000E000BF00BF0A980CB0BDE8F08F00004F
:200F0000000000000000000001020304060708090010024000127A00006CDC0200093D003B
:200F20000146074A02EB9110006801F01F0301229A40104008B1012070470020FCE700002F
:200F400000100240064A02EB9011096800F01F0301229A401143024B03EB90121160704788
:200F600000100240064A02EB9011096800F01F0301229A409143024B03EB901211607047E8
:200F800000100240064A02EB9011096800F01F0301229A401143024B03EB90121160704748
:200FA0000010024010B500F043F810BD10B5124800684FF47A71B0FBF1F4601EB0F1807FBF
:200FC00001D301200FE0601E4FF0E02148610F214FF0FF30FFF748F900204FF0E0218861A8
:200FE00007200861002008B100BFFEE70021481EFFF73AF910BD0000400000200000000007
:20100000010000AAAA0000000000000000000000000000AAAA000000000000000000000027
:2010200001AAAAAAAA0000000000000000000000002000213F4A126842F480323D4B1A60D9
:2010400000BF401C3B4A126802F4003119B94FF6FF729042F5D1374A126802F400320AB949
:2010600000BFFEE7334AD26942F08052314BDA61314A126842F440422F4B1A602D4A526887
:201080002C4B5A601A4652685A601A46526842F480625A601A46526822F440325A601A46A3
:2010A000526842F440325A601A465268234B1A40204B5A601A465268214B1A431D4B5A6008
:2010C0001A46126842F080721A6000BF194A126802F00072002AF9D0174A126842F48032E2
:2010E000154B1A6000BF144A526802F48032002AF9D0114A126842F400320F4B1A6000BFD4
:201100000D4A526802F40032002AF9D0094A526822F00302074B5A601A46526842F0020223
:201120005A6000BF034A526802F00802002AF9D0704700000010024000700040FFFFC3B70F
:201140000000340830B5A3B00446A1208DF80000E0208DF8010020788DF8020060788DF889
:20116000030000208DF804006278211D0DF10500FEF7FAFF6078411D6846FFF72DF8054670
:201180006088A84202D1012023B030BD0020FBE710B504464348407842490870084680782C
:2011A00048700846C07888700846C47000785A2816D108464078A52812D108468078A128D1
:2011C0000ED10846C078E0280AD101203649087088213648FEF7E1FF00203549087010BDD0
:2011E00031480078012805D13048047002202E49087055E02C48007802280BD12B484470B4
:2012000003202949087029484078842848DD0020087045E024480078032808D10420224993
:2012200008702248407810BB0520087038E01E480078042812D11D48001D1D4909784454A6
:201240001B480078401C1A490870184840780978884225DC05201449087021E0124800784B
:20126000052805D11148448006200F49087017E00D480078062810D10C48408840EA04201B
:201280000A49488088220B48FEF76EFF01200A49087000200449087002E00020024908703E
:2012A00000BF9CE7380000203C000020D80000203D000020500000202400002010B5002248
:2012C00011463420FFF7D8FC4FF4C060FFF73AFE40F20460FFF736FE40F20460FFF732FE8C
:2012E00040F20260FFF72EFE01211D48FFF73EFC40F21370FFF726FE4FF480630122182130
:201300001848FFF7D5FB4FF40063012248211548FFF7CEFB4FF40043012210211248FFF72F
:20132000C7FB4FF400411048FFF7BEFB0F4800F0D3FA4FF4E1310D4800F07CFA04210B48C4
:2013400000F054FB0821094800F058FB074800F010FB40F20531054800F01FFB10BD0000BB
:20136000000230000010014000080140004C004010B51848007800B910BD17480078F02803
:2013800002D100F035FA20E013480078F42802D100F0D8F919E01048007810B900F084F8DA
:2013A00013E00D480078F12802D100F06BF90CE009480078F22802D100F096F805E00648DA
:2013C0000078F32801D100F017F900200149087000BFD1E7240000205000002037B588B077
:2013E0005A208DF80000A5208DF80100E0208DF80200A1208DF803009DF820008DF8040095
:201400009DF821008DF8050000208DF80600002406E009A8015DE01D0DF80010601CC4B2C4
:201420009DF82100A042F4DC9DF82100411D0DF10200FEF7D1FE0546E9B29DF82100C01DF3
:201440000DF8001029129DF8210008300DF800104FF400411248FFF729FB00240DE01DF81B
:201460000410104800F033FA00BF07210D4800F085FA0028F9D0601CC4B29DF82100083067
:20148000A042ECDA00BF0621064800F077FA0028F9D04FF400410248FFF706FB0BB030BDB1
:2014A00000080140004C00400EB50D48FFF74AFE00B90EBD00200B49087002204870002097
:2014C000087100210748417101680091416801918068024602900098FFF780FF00BFE8E7DF
:2014E00050000020440000202DE9FE43002700250024A0463A484579007900EB052085B26B
:20150000374890F80780807900EB08201FFA80F83348FFF717FE08B902274BE03148008804
:20152000281A012803D130480088854201DD032740E0012D02D100202C4908602848407857
:20154000001F84B2E11704EB91718910A4EB810189B926490968264A881822462049083167
:20156000FFF738F81F48058001272048006820441E4908601EE004271B480088A84219D146
:201580002646E11704EB91718910491C4FF6FF7303EA810215490968154BC8181049083130
:2015A000FFF718F80F48058001271048006820440E490860F2200F490870032048700D7103
:2015C00029120C484171877101680091416801918068024602900098FFF700FFBDE8FE8328
:2015E00050000020300000202E000020340000200050000844000020FEB5002500240026AB
:201600001A48FFF79FFD00B9FEBD1948006819490968884201D0022514E01448447900797E
:2016200000EB042084B21248008881B21248FEF7D3FD0646A64201D0032503E001250120DA
:201640000E490870F3200E4908700120487008460571016800914168019180680246029045
:201660000098FFF7BBFE00BFCEE70000500000203400002028000020005000081800002013
:20168000440000203EB500242848FFF75BFD00B93EBD2648C0792649086024488079096809
:2016A00000EB01202249086020484079096800EB01201F4908601D480079096800EB012082
:2016C0001B4908601948407A1A4908801748007A097800EB0120174908801448C07A1649F5
:2016E00008801248807A097800EB0120124908800F480068B0F5E83F01D9042403E0012409
:2017000000200E490880F1200D4908700120487008460471016800914168019180680246EA
:2017200002900098FFF75AFE00BFB1E750000020280000202E0000202C0000203000002038
:20174000440000200EB52248FFF7FCFC00B90EBDF42020490870042048701F4800780128AD
:2017600001D1087102E002201A4908710021194841718171C17101680091416801918068C9
:20178000024602900098FFF729FE1348007801281BD10A20FEF7BCFE002010490968087097
:2017A0000E49096848700E48FFF740FA4FF4E8320C490D48FEF7C2FE10B90C48FFF736FA24
:2017C0000948FEF72FFD00BFFEE700BFBFE70000500000204400002018000020080000205A
:2017E0005AA5FFFF00200208005000085AA5A55A3EB5002400250D48FFF7A4FC00B93EBD91
:2018000004B90124F0200A4908700120487008460471016800914168019180680246029078
:201820000098FFF7DBFD00BFE9E7000050000020440000202DE9F04704460D460027B846D0
:20184000B94600261D49601A8C421CD006DC1C48204470B1B0F5806F1FD10FE0B0F5806FF7
:2018600016D0B0F56C4F18D10320FFF7ADFA074614E00220FFF7A8FA07460FE00220FFF72A
:20188000A3FA07460AE00220FFF79EFA074605E00220FFF799FA074600E000BF00BF07EB4A
:2018A0005500B0FBF5F64FF6F07006EA000806F00F0948EA0900A060BDE8F087004C0040AF
:2018C00000BCFFBF01464868C0F308007047C1F3080242607047000010B504462049601A1C
:2018E0008C4228D006DC1F48204490B1B0F5806F33D117E0B0F5806F26D0B0F56C4F2CD1BE
:2019000040F20E30FFF73EFB40F20E30FFF72AFB24E040F21140FFF735FB40F21140FFF777
:2019200021FB1BE040F21240FFF72CFB40F21240FFF718FB12E040F21340FFF723FB40F2A5
:201940001340FFF70FFB09E040F21440FFF71AFB40F21440FFF706FB00E000BF00BF10BD12
:20196000004C004000BCFFBFC16821F40051C1607047C16841F40051C160704710B5024666
:2019800002EB9110006801F01F040123A340184008B1012010BD0020FCE710B500EB9112E1
:2019A000126801F01F040123A3401A4300EB91131A6010BD70B5024600230024C1F389105E
:2019C000105801F01F060125B54000EA050302EB91500068C1F304460125B54000EA05043A
:2019E00014B10BB1012070BD0020FCE70A460021C16821F004011143C16070470A460021C8
:201A0000C16821F008011143C16070472C1A0008000000204400000044030008701A0008C4
:201A2000440000201C050000540300080000000000000000000000000000000000000000C2
:201A4000000000000000000000000000000000000000000000000000000000000000000086
:101A6000000000000000000000000000000E27073A
:20500000985B002095520008FB5F0008A5550008F95F00080B550008FD5F000800000000FE
:20502000000000000000000000000000D551000889550008000000003152000891600008D8
:20504000AF520008AF520008AF520008AF520008AF520008AF520008AF520008AF52000808
:20506000AF520008AF520008AF5200080D550008AF520008AF520008AF520008AF52000887
:20508000AF520008AF520008AF520008AF520008AF520008AF520008AF520008AF520008C8
:2050A000AF520008AF520008AF520008AF520008AF520008AF520008AF520008AF520008A8
:2050C000AF520008AF520008AF520008AF520008AF520008AF520008AF520008AF52000888
:2050E000AF520008AF520008AF520008AF520008AF520008AF520008AF520008AF52000868
:20510000AF520008AF520008AF520008AF520008AF520008AF520008AF520008AF52000847
:20512000AF520008AF520008AF520008AF52000800F002F800F03EF80AA090E8000C824447
:205140008344AAF10107DA4501D100F033F8AFF2090EBAE80F0013F0010F18BFFB1A43F03E
:20516000010318478C6A0000AC6A0000103A24BF78C878C1FAD8520724BF30C830C144BF20
:2051800004680C60704700000023002400250026103A28BF78C1FBD8520728BF30C148BF79
:2051A0000B6070471FB506F05DF900F003F91FBD10B510BD00F042F91146FFF7F3FF04F0F5
:2051C000E3FE00F060F903B4FFF7F2FF03BC00F063F900002C4B19680868B0E8F04F80F34A
:2051E0000988BFF36F8F4FF0000080F3118870470000000008480068006880F308884FF00A
:20520000000080F3148862B661B6BFF34F8FBFF36F8F00DF00BF00BF08ED00E0DFF80C00FB
:20522000016841F470010160704700BF88ED00E0EFF30980BFF36F8F134B1A681EF0100F0B
:2052400008BF20ED108A20E9F04F106009B44FF0BF0080F31188BFF34F8FBFF36F8F05F02C
:205260003BFE4FF0000080F3118809BC19680868B0E8F04F1EF0100F08BFB0EC108A80F380
:205280000988BFF36F8F7047A4000020EFF30580704700000948804709480047FEE7FEE7BA
:2052A000FEE7FEE7FEE7FEE7FEE7FEE7FEE7FEE704480549054A064B70470000BD600008B0
:2052C0003151000898530020985B00209857002098570020032A40F2308010F0030C00F0FA
:2052E000158011F8013BBCF1020F624498BF11F801CB00F8013B38BF11F8013BA2F104023B
:2053000098BF00F801CB38BF00F8013B11F0030300F06280083AC0F0088051F8043B083A2A
:2053200051F804CBA0E80810F5E7121D5CBF51F8043B40F8043BAFF30080D20724BF11F8A9
:20534000013B11F801CB48BF11F8012B24BF00F8013B00F801CB48BF00F8012B70474FF004
:20536000000200B5134694469646203922BFA0E80C50A0E80C50B1F12001BFF4F7AF090739
:2053800028BFA0E80C5048BF0CC05DF804EB890028BF40F8042B08BF704748BF20F8022B8A
:2053A00011F0804F18BF00F8012B7047704770477047000070B5064C7C44064D7D4403E018
:2053C000206820448047241DAC42F9D170BD0000546800005C68000010B5203AC0F00B801A
:2053E000B1E81850203AA0E81850B1E81850A0E81850BFF4F5AF5FEA027C24BFB1E818506F
:20540000A0E8185044BF18C918C0BDE810405FEA827C24BF51F8043B40F8043B08BF704744
:20542000D20728BF31F8023B48BF11F8012B28BF20F8023B48BF00F8012B7047754600F041
:2054400031F8AE4605006946534620F00700854618B020B5FFF72CFFBDE820404FF00006F8
:205460004FF000074FF000084FF0000B21F00701AC46ACE8C009ACE8C009ACE8C009ACE89F
:20548000C0098D46704710B50446AFF300802046BDE81040FFF797BE01491820ABBEFEE712
:2054A00026000200004870473453002070470000054A002803D00121104604F0DBBC0121F8
:2054C000104604F0D5BC0000001001402DE9F04106460C461746B7F5806F14D872B604F0BB
:2054E000ABFC304604F04EFC002507E02188304604F0E8FBA41CB61C6D1CADB2BD42F5D30E
:2055000004F02CFC62B6BDE8F081FEE710B51A4C02220021204604F03EFB01282BD1022210
:205520000021204604F031FB1449154C606A888001F12000134A018A11838188A2F84810AB
:20554000018911860188918141881180418AA2F8541081899184C08911468887084601F05F
:2055600073FB00F09FFB0549606AC880BDE81040084601F000BD10BD000002404842002029
:20558000001000404C3900207047B7EE002AF0EE401A32EE602A22EE011AB0EE410A01EEAB
:2055A000A00A7047FEE77047704700002DE9F04188B0012004F0DAFE4FF4A06004F08CFF09
:2055C000894C0021204604F05FFA884801904015029087480390E0140490052005904FF4F3
:2055E0004050069000208DF81C0001218DF81D108DF81E0001AA0021204604F071FA00219B
:20560000204604F02FFA02220021204604F0ABFA002211460B2004F0CDFC40F2096004F0D3
:205620005BFF40F20A6004F057FF704E4C3E304604F0ECF86F4F384604F0E8F84FF4C0255C
:20564000284604F04DF94FF4807801224146304604F09AF901224146384604F095F92A46A6
:205660000121304604F027F94FF460220121384604F021F90021304604F07DF9002138466B
:2056800004F079F90021304604F0B4F80021384604F0B0F805220121304604F08EF80522D2
:2056A0000121384604F089F801230E220021304604F022F9012302221946304604F01CF9B5
:2056C000012303220221304604F016F901230A220321304604F010F901231A4604213046DF
:2056E00004F00AF9012304220021384604F004F901230D221946384604F0FEF801230B226E
:205700000221384604F0F8F801230C220321384604F0F2F801230F220421384604F0ECF862
:2057200001221146304604F0AAF801221146384604F0A5F8304D022304220021284604F00F
:205740009BFB04231A460021284604F095FB082304220021284604F08FFBDFF8A0800123A0
:2057600004220021404604F087FB102304220021404604F081FB102304220021284604F09A
:205780007BFB082304220021404604F075FB022304220021404604F06FFB04231A4600213F
:2057A000404604F069FB202304220021404604F063FB304604F05BF800F078FD304603F01E
:2057C000EDFF384604F053F800F070FD384603F0E5FF304604F046F80021204604F030F922
:2057E00008B0BDE8F0810000000002404C240140684200200028014000080140001001401B
:205800001FB54FF4C06004F067FE4FF4A06004F01FFC40F2047004F05FFE114C204605F0F7
:2058200071F80021ADF80010ADF80210ADF80410ADF806104FF6FF7202928DF80C10694664
:20584000204605F0D3F80021204605F059F8204605F0C6F89FED030A034880ED000A1FBD05
:20586000001000407D3F553F4842002070B540F2026004F031FE40F2036004F02DFE40F21C
:20588000046004F029FE4FF4C06004F025FE0121204804F04BFB204D01231A4610212846BB
:2058A00004F0EAFA1D4CAB1401221021204604F0E3FAE614334601222821204604F0DCFA4E
:2058C0002315174C01222821204604F0D5FA334601222821204604F0CFFA042301222821FD
:2058E000204604F0C9FA3601334601221021284604F0C2FA082301221021204604F0BCFADA
:205900003146284604F0B4FA2046BDE87040082104F0AEBA000230000008014000100140F4
:20592000000C01402DE9F04F8BB04FF4E06004F0D3FD4FF0804004F0E5FF0024ADF81C4047
:20594000ADF81E40ADF82040ADF8224041F26F7009908DF8284007A94FF0804005F046F8BE
:205960004FF0804005F0B2F800214FF0804005F0B2F800214FF0804004F0C2FF2021480666
:2059800005F086F80120ADF81000ADF81240ADF81440ADF81640ADF81840ADF81A4004AA29
:2059A0000121800704F032FE022104AA480704F02DFE0121C822880704F068FF0221C822D8
:2059C000480704F063FF01217022880704F034FF02217022480704F02FFF40F20B6004F001
:2059E0007BFDA44804F08EFFADF81C404026ADF81E60ADF82040ADF8224040F2EE27099745
:205A00008DF8284007A99B4804F0F0FF0021994804F076FF0021974805F042F80421954887
:205A200005F04CF81021934805F02AF8ADF81040ADF81240ADF81440ADF81640ADF818402D
:205A4000ADF81A4004AA00218A4804F0DFFD04AA0121884804F0DAFD4FF47A72002185484E
:205A600004F014FF4FF47A720121824804F00EFF042200217F4804F0B5FE042201217D4841
:205A800004F0B0FE702200217A4804F0D5FE60220121784804F0D0FE08220021754804F006
:205AA00005FF08220121734804F000FF4FF40068ADF80080ADF802404FF03009ADF8049080
:205AC000ADF806403502ADF80850ADF80A40ADF80C406946674804F089FD40F2026004F067
:205AE000FBFC40F2036004F0F7FCAB1101221821614804F0C1F96B11012218215E4804F052
:205B0000BBF9DFF878A16B1001221821504604F0B3F92B4601221821504604F0ADF940F2A5
:205B20000D6004F0D9FCDFF858B1584604F0EAFEADF81C40ADF81E60ADF82040ADF82240A5
:205B400009978DF8284007A9584604F04FFF0021584604F0D5FE0021584604F0A1FF04212A
:205B6000584604F0ABFF1021584604F089FFADF81040ADF81240ADF81440ADF81640ADF819
:205B80001840ADF81A4004AA0021584604F03EFD04AA0121584604F039FD4FF47A7200212A
:205BA000584604F073FE4FF47A720121584604F06DFE04220021584604F014FE0422012161
:205BC000584604F00FFE70220021584604F034FE60220121584604F02FFE08220021584663
:205BE00004F064FE08220121584604F05FFEADF80080ADF80240ADF80490ADF80640ADF83F
:205C00000850ADF80A40ADF80C406946584604F0EDFC40F2026004F05FFC40F2036004F0B6
:205C20005BFC40F2046004F057FC164C802304221821204604F020F9012304221821504640
:205C400004F01AF9402304221821204604F014F9802304221821084804F00EF9054804F086
:205C6000BFFEA00404F0BCFE584604F0B9FE0BB0BDE8F08F002C014000080140000C0140EA
:205C8000003401400010014030EE600AB0EEC00AB4EEC10AF1EE10FA01D20120704700202D
:205CA000704700002DE9F047834801F081F8824CD4ED080A94ED0E0A804801F073FFD4ED85
:205CC0000B0A94ED110A7E4801F06CFF7D4CD4F8A401016889688847204603F025FC94F888
:205CE000AC017A4A81067848794D7A4CA0F10403A2F104094FF0000625D5296821F0100136
:205D00002960296821F0400129600660286820F001002860286820F0040028601E602068CD
:205D200020F010002060206820F0400020601660206820F001002060206820F004002060C0
:205D4000C9F8006084E05D49B1F8C070B1F9C4C057B1C0F800C0286840F0100028602868A9
:205D600040F0400028600CE0D5F800C02CF0100CC5F800C0D5F800C02CF0400CC5F800C08B
:205D80000660B1F9C2C040F2EE28012F1AD0022F2ED0286820F001002860286820F0040013
:205DA00028601E604649B1F8C050B1F9C400ADB31060206840F010002060206840F0400017
:205DC000206035E0ACF2EE2CCCF1000000B2404501D9404602E0002800DA00201860286816
:205DE00040F001002860286840F004002860D9E7ACF2063CCCF1000001B2414501D94146A7
:205E000002E0002900DA00211960286840F001002860286820F004002860C3E7FFE7206876
:205E200020F010002060206820F0400020601660B1F9C270012D13D0022D27D0206820F049
:205E400001002060206820F004002060C9F80060214801F005FABDE8F047204801F0A4B999
:205E6000A7F2EE27784202B2424501D9424602E0002A00DA0022C9F80020206840F001007B
:205E80002060206840F004002060E1E7A7F20637784203B2434501D9434602E0002B00DA67
:205EA0000023C9F80030206840F001002060206820F004002060CBE74C390020F83A0020D0
:205EC000C83B002048340020382C014038340140202C014020340140EC3900202C3F0020BF
:205EE0000B2004F05CF8384804F00CFD4FF0804004F008FD354804F005FD354804F002FDD7
:205F0000344804F0FFFC344804F0FCFC334804F0F9FC334803F07AFC324803F077FC324C08
:205F20000021204603F0B0FD0321204603F0ACFD2E4804F025FE4FF4C06004F0BFFA40F245
:205F4000026004F0BBFA40F2036004F0B7FA40F2046004F0B3FA40F20B6004F0AFFA4FF448
:205F6000E06004F0ABFA40F2017004F0A7FA40F2027004F0A3FA40F2037004F09FFA40F277
:205F8000047004F09BFA40F20D6004F097FA4FF4A06004F093FA40F2096004F08FFA40F2D2
:205FA0000A6004F08BFA40F20E6004F087FABFF34F8F0F4801680F4A01F4E0611143016055
:205FC000BFF34F8FFEE70000002C01400004004000080040000C0040001000400034014042
:205FE000002401400028014000000240003801400CED00E00400FA05FEE77047FEE7704704
:20600000010100CCCCCCCC000000000000000000040101CCCCCCCC00000000000000000018
:2060200001CCCCCCCCCCCC0000000000000000002DE9F0470546DDF820900E4617469846EB
:2060400012480078002801D100F0D8F80F49032D19D2EFF31180202282F3118805EB450247
:2060600001EBC204183435B126606760C4F8088000212161E160C4F81490C0B280F31188E9
:206080000020BDE8F0874FF0FF30FAE77C42002010B5BF2080F31188BFF34F8FBFF36F8FA7
:2060A00005F0A6F818B104494FF080500860002080F3118810BD000004ED00E082B0164866
:2060C000016841F4700101601448016841F001010160416841F0800141600023019344F60A
:2060E000206102E0019A521C0192019A8A42F9D3416821F0030141600168094A11400160A1
:206100004FF41F018160016821F4802101604360C36202B004F068BA88ED00E00010024084
:20612000FFFFF6FEFEB51948042200F15401CDE9002102900023D20115A1184805F03CF84F
:206140000024174E174F032504EBC40006EBC003002211460120009504F002FF04EB440169
:2061600007EB81018860641CA4B2042CECD30C4B0022483B11460120009504F0F1FE0949C0
:20618000091F0860BDE8FE4004F066BE8C2A00207374617274207461736B0000056400082C
:2061A000283300200400002010B5064C2021204603F05EFE204620230122BDE81040282129
:2061C00003F05ABE000C014010B50948C06E094988420CDA084C202301221021204603F0DD
:2061E0004BFE2046BDE81040202103F043BE10BDEC39002000000C42000C014010B5134CF5
:20620000A8212046FFF7ABF803202061606110A0A06104F1A800E0614FF48050206200200D
:20622000A0626062E0620AA121660C4961661021A1662067E06660670949C0F10F028A5C44
:206240002254401C1028F8D310BD00007C4200205465726D696E616C0000000024530020EB
:20626000C8BB000830B5002100200B4600224AF2010480EA0305ED0702D084EA500000E0E3
:2062800040085B08521C92B2082AF2D3054A22F81100491C89B2FF29E6D9034901200880B4
:2062A00030BD00004C3700203400002000200249401C8842FCD3704740420F00134DDFF81B
:2062C0005080144C4FF0FF364FF400573146E86A04F0B8FE0128F9D1208820B1394640469C
:2062E00003F0C8FD03E03946404603F0C1FD208850B1002222800848826D521C8265022A20
:20630000E4D101214180E1E70122F3E70400002000100140E6000020483400200D4C4FF071
:20632000FF352946A06804F08DFE0128F9D10A4801F078FF084802F081FB074801F08CFFFD
:20634000064801F013FE064801F010FE054801F025F9E6E70400002048340020F83A002065
:20636000C83B0020983C00200C4D0D4C4FF0FF363146686904F066FE0128F9D1D4F8A401DC
:2063800001684A689047064802F026FA054801F043F8044800F0D8FFEAE70000040000202A
:2063A00048340020EC3900200024124EDFF84880124D671E3946306A04F044FE0128F9D1B3
:2063C000641C052C0FDB0024288820B10121404603F050FD03E00121404603F049FD288821
:2063E00028B100202880064803F0A0F8E2E70120F8E700000400002000080140E4000020E9
:20640000483400200EB502258023434A43A101200095FFF70DFE454803F032F8FFF7F0F9A2
:20642000FFF724FAFFF7C2F8FFF77CFA4049414801F020FE3F4CA1883F4800F077FCA28843
:2064400000213E4801F0A0F8E1883B4800F09AFCE2880121394801F097F82189364800F0F5
:2064600039FC22890221354801F08EF86189324800F046FC62890321304801F085F8A18970
:206480002D4800F069FCA28904212C4801F07CF8E189294800F008FCE2890521274801F049
:2064A00073F82748052200F15401CDE900212C0202900023224623A1254804F07DFE254866
:2064C000032300F15401CDE9003102900023224621A1244804F070FE2348029000F1540179
:2064E000CDE900510023224620A1234804F064FE2248012200F15401CDE900210290002329
:2065000022461FA1204804F057FE204CED1E2946206804F097FDFAE7CC3600204A53636F3A
:2065200070655F6932693269326932004834002000F80308944100204C390020983C00208E
:206540003C090020326D73207461736B000000001D6300089011002031306D7320746173FF
:206560006B00000069630008E41900203130306D73207461736B0000A963000838220020ED
:206580003173207461736B00BD620008000000200180426080ED020A704710B5C189D0ED1E
:2065A000020A426800290AD192ED001A31EE201AB4EEC01AF1EE10FA01DD81813BE0038844
:2065C0001C465B1E8B420DD1A41E02EB840494ED001A31EE601AB4EEC01AF1EE10FA01D292
:2065E000818128E04C1E02EB840494ED001A31EE601AB4EEC01AF1EE10FA0CD202EB8104C9
:2066000094ED001A71EE200AF4EEC00AF1EE10FA01DD81810FE000210AE002EB8104D4EDB4
:20662000000AF4EEC00AF1EE10FA03DC491C89B28B42F2DC81818189C18110BD0021818163
:20664000C181704790ED071AF7EE000AD0ED001A70EEC10A60EEA10A41EE000AC0ED000ACB
:2066600090ED031A90ED020A00EE801A80ED031A90ED050AB4EEC01AF1EE10FA02DD80EDA8
:20668000030A08E0D0ED061AB4EEE11AF1EE10FA01D2C0ED031A90ED031AD0ED011A01EEA4
:2066A000A01A80ED041AB4EEC01AF1EE10FA02DD80ED040A08E090ED060AB4EEC01AF1EE06
:2066C00010FA01D280ED040A90ED040A704780ED050A704780ED060A704780ED010AC0ED94
:2066E000020A80ED051AC0ED061A80ED072A704780ED030A704700009FED0A0A80ED000A98
:2067000080ED010A80ED020A80ED050A80ED060A80ED030A80ED040AB7EE000A80ED070A6D
:20672000704700000000000001F073BD10B504462DED028BB0EE408A204601F065FD88B171
:20674000DFED151A9FED151A68EE210A80EE810A71EEC00A124910EE900A884207DDF0EE61
:20676000610A0BE0BDEC028B9FED0E0A10BD10EE900A0D49884201DADFED0C0AB2EE041AE9
:2067800020EE011A81EE200ABDEC028B2046BDE8104001F0FEBC000033335340000080453D
:2067A00033335340000000006F12833A6F12833A01F033BD10EE101A4160084A914204DDB4
:2067C0009FED070A80ED010A7047B1F1804FFBDAB0EE000A80ED010A704700000000164476
:2067E000000016449FED0C0A80ED0D0A002180F82E10DFED0A0AC0ED030A4A1E8261DFED91
:20680000080AC0ED010A416180ED080AB2EE040A80ED090A818570470000A04200000000C0
:2068200000001644F0B50346C3ED000A93ED011AF4EEC10AF1EE10FA02DD052083F82E0078
:2068400093F82E006C4C6D4D0021D8B102274A1EB7EE002A012817D00126DFED691A022853
:2068600028D0032826D0042824D005287CD01846FFF7B8FF586BA84277DD9FED620A83EDF2
:206880000D0AADE09985F5E7DFED5F0AC3ED030A9A61C3ED040A988D18B930EE420A83EDDF
:2068A0000D0A0A2802D3998583F82E70988D401C9885DFE793ED031A30EEC11A83ED041AFB
:2068C000B0EEC11A11EE100AB0F1804F03DBC3ED030A596106E0F0EE000AC3ED040A586914
:2068E000401C5861D3ED040AF5EEC00AF1EE10FA02D29869404298619869002803DD0320A3
:2069000083F82E0001E083F82E705869642805DB642058619A61042083F82E00F0EEE00ADA
:2069200060EEA10AC3ED070A10EE900AB0F17E5F02DD83ED072A08E010EE900A3349884241
:2069400003DADFED330AC3ED070A93F82E0004280CD0D3ED060A93ED071AF8EEE00A01EE9F
:20696000200A83ED0D0A85E725E033E0D3ED0D0AB1EE041A10EE900AA04206DD30EE412A68
:20698000F4EEC20AF1EE10FA00D29E6110EE900AA84206DA30EE010AF4EEC00AF1EE10FA6F
:2069A00000DD9A6193ED060AB8EEC00A40EE210AC3ED0D0A5EE7F4EEC10AF1EE10FA02D230
:2069C00083F82E6056E730EE210A83ED0D0AC3ED030A4FE7A04203DAB2EE040A83ED0D0ABA
:2069E00093F82E0000EE100AB8EE400A83ED0C0A93ED0D0AF0BD0000000020410000A042D9
:206A0000CDCCCC3D0000A04200000000CDCC4C3ECDCC4C3E90F82E10002952D110EE101A72
:206A2000294A1144B1F1C07F4BD880ED0A0ADFED270A60EE200AC0ED080A10EE901A244BBE
:206A40009FED241A5242F2EE041A994202DD80ED081A05E010EE901A914201DAC0ED081A87
:206A6000DFED1D0A60EE200AC0ED090A10EE901A994202DD80ED091A05E010EE901A914299
:206A800001DAC0ED091AF7EE000A30EE600A80ED0D0AD0ED080AB4EEE00AF1EE10FA02DD2D
:206AA000C0ED0D0A08E0D0ED090AB4EEE00AF1EE10FA01D2C0ED0D0A012180F82E10012055
:206AC00070470020704700000000E0BE9A99993F0000A0420000A042CDCCCC3E00B503461A
:206AE0001846FFF77FFE184600BD000010B52DED0A8B72B69FED3E0A80ED030A9FED3D0AED
:206B000080ED040ADFED3C0AC0ED050A80ED060AC0ED070A9FED390A80ED080A62B69FEDFF
:206B2000388ADFED388A9FED389ADFED389AB0EE482AF0EE681AB2EE081AF0EE490AB0EE08
:206B4000690A3348FFF7C9FD9FED32AADFED32AA9FED32BADFED32BA2D48B0EE482AF0EEE8
:206B60004A1AB0EE6A1AF0EE4B0AB0EE6B0A2030FFF7B3FD9FED2CCA2548B0EE482AFAEE6C
:206B8000081AB2EE081ADFED270AB0EE4C0A4030FFF7A3FDB0EE482AF0EE681AB2EE081AE8
:206BA000F0EE490AB0EE690A2048FFF796FD1F48B0EE482AF0EE4A1AB0EE6A1AF0EE4B0A94
:206BC000B0EE6B0A2030FFF788FDB0EE482AB0EE4C0ABDEC0A8BFAEE081AB2EE081A13486E
:206BE000BDE81040DFED120A4030FFF776BD000066661E3CD9CE893B0000043D0000843C8D
:206C00008E8E0E3FCDCCCCBD52499D3860E5503E203B0020C3F5E8BFC3F5E83FBA03E93710
:206C2000F99E113BAC1D1536CF48803FF03B00204FFB14360888A0F6B860B0F5247F02D947
:206C40004FF480500880704730B5B0F86210012929D0B0F86010491C89B2A0F86010B1F55A
:206C6000804F20D3416E41F38F31A0F86810426F42F38F32A0F87820A1F26C714FF496750A
:206C800001234FF40064A94203D9A0F87A30A0F86840A2F26C72AA4203D9A0F87A30A0F8CC
:206CA0007840A0F8623030BD03B5024601A91046FFF7C0FFBDF80410DFED050A00EE101A94
:206CC000B8EE400A20EE200A82ED010A0CBD000066661E3603B5024601A91046FFF7AAFF8A
:206CE000BDF80410DFED050A00EE101AB8EE400A20EE200A82ED130A0CBD000000008436A1
:206D000003B5024601A91046FFF794FFBDF80410DFED050A00EE101AB8EE400A20EE200A06
:206D200082ED070A0CBD0000D9CE893503B5024601A91046FFF77EFFBDF80410DFED050A8E
:206D400000EE101AB8EE400A20EE200A82ED0D0A0CBD00000000043703B5024601A9104669
:206D6000FFF768FFBDF80410DFED050A00EE101AB8EE400A20EE200A82ED0A0A0CBD000086
:206D8000D9CE893503B5024601A91046FFF752FFBDF80410DFED050A00EE101AB8EE400A9B
:206DA00020EE200A82ED100A0CBD000000000437604991ED040ADFED600A30EE200A81EDED
:206DC000040A10EE102A5D4B9A4205DDDFED5C0A30EE600A81ED040AB0F90020D0ED010A40
:206DE00000EE102AB8EEC00A20EE200A80ED020AB0F90C20D0ED040A00EE102AB8EEC00A12
:206E000020EE200A80ED050AB0F91820D0ED070A00EE102AB8EEC00A20EE200A80ED080AC0
:206E2000B0F92420D0ED0A0A00EE102AB8EEC00A20EE200A80ED0B0AB0F93020D0ED0D0A75
:206E400000EE102AB8EEC00A20EE200A80ED0E0AB0F93C20D0ED100A00EE102AB8EEC00A69
:206E600020EE200A80ED110AB0F94820D0ED130A00EE102AB8EEC00A20EE200A80ED140A0C
:206E8000B0F95420D0ED160A00EE102AB8EEC00A20EE200A80ED170A2A48D0ED0E0AB2EEB3
:206EA000040A60EE800AFDEEE00A10EE902A0A80D0ED080A60EE800AFDEEE00A10EE902AA1
:206EC0004A80D0ED110A60EE800AFDEEE00A10EE902A8A80D0ED0B0A60EE800AFDEEE00A22
:206EE00010EE902ACA80D0ED140A60EE800AFDEEE00A10EE902A0A81D0ED020A60EE800A24
:206F0000FDEEE00A10EE900A48810F48D0ED1C0A60EE800AFDEEE00A10EE902A8A81D0EDD4
:206F20001F0A20EE800ABDEEC00A10EE100AC881704700008C000020FCAD803CDA0FC94000
:206F4000DA0FC9404C390020EC39002000213C30C1848184B7EE000A00ED0B0A80ED070A4F
:206F6000816201638163C1874FF400618185818681873C387047C1888288891A89B2018107
:206F8000C2685318C360028A521C92B20282B2F5804F11D39A0B426100EE102AD0ED000AE6
:206FA000B8EE400A20EE200ABCEEC00A10EE102A82830022C2600282826991420DD900EE9E
:206FC000101A8161D0ED000AB8EE400A20EE200ABCEEC00A10EE101AC18370470021C160DD
:206FE000018241618161704730B50346B3F83201904200D802465879022801D0002030BDFC
:2070000000245C71002004E01D18AD790D54401C80B29042F8D31046A3F8324130BD30B55E
:2070200087B00446206800287DD0002525716571A4F8325184F83451008803F04DFA2068D7
:20704000408803F049FA2068808803F045FA2068C08803F041FA4FF4C06003F03DFA20685D
:20706000806803F08DFD2068016A806803F042FD2068C169806803F0D6FD20680169806864
:2070800003F0EDFD20688169806803F0DAFD20684169806803F066FD20680421806803F0F7
:2070A000CAFD20688021806803F0B2FD2068806803F0B4FD206801221821836A406A02F0D5
:2070C000DBFE206801224821036BC06A02F0D4FE2068C06B10B1012102F028FF2068B0F888
:2070E000400003F0F9F9206890F84810406C02F0CBFC2068C06C0090019502950395022073
:207100000490C00205908DF8185001208DF819008DF81A0020686A4690F84810406C02F083
:20712000DFFC206800E00EE0C08803F0D5F9206801221021836B406B02F09EFE2068816B9E
:20714000406B02F095FE07B030BD70B504460E4615462079012826D02068816B406B02F074
:2071600089FE2068324690F84810406C02F039FD20682A4690F84810406C02F04FFD20688A
:20718000012290F84810406C02F09BFC20680821806803F05EFD206890F84810406C02F0CA
:2071A0004FFC0120207170BD70B504462068816809688DB290F84810406C022202F087FCF0
:2071C0000026012819D1680617D5267120680021806803F03EFD2068012290F84810406C8F
:2071E00002F06FFC206890F84810406C02F016FC2068816B406B02F03BFEA80615D560795F
:20720000022801D1A4F832610120607184F834612068806803F0AFFCB4F83221A11D5054D1
:20722000B4F83201401CA4F8320194F83401401CC0B284F83401216802228989884205D3A3
:2072400084F83411B4F8320100B16271B4F83201B0F5967F00D3627170BD00210160704765
:2072600070B504462DED028B354D95ED020AD4ED000A30EE200A84ED000A95ED080AD4ED05
:20728000010A30EE200A84ED010A95ED0E0AD4ED020A30EE200A84ED020A95ED0B0AD4ED9B
:2072A000030A30EE200A84ED030A95ED110AD4ED040A30EE200A84ED040A95ED140AD4ED67
:2072C000050A30EE200A84ED050A95ED0E0AD5ED080A94ED071A00EE201A84ED071A95ED8B
:2072E000110AD5ED0B0A94ED081A00EE201A84ED081AA08D401CA08595ED050A9FED118AD8
:2073000094ED211AF0EE480AFEF73FF984ED210A95ED170A94ED221AF0EE480AFEF735F905
:2073200084ED220A95ED020A94ED261AF0EE480AFEF72BF984ED260ABDEC028B70BD000014
:207340004C3900200AD7233C10B504462DED028BB7EE000AB4F85C0000EE900AB8EE601A33
:20736000C0EE010A94ED0C0A20EE200A84ED180A94ED0D0A20EE200A84ED190A94ED0E0AF5
:2073800020EE200A84ED1A0A94ED0F0A20EE200A84ED1B0A94ED100A20EE200A84ED1C0A4E
:2073A00094ED121A21EE201A84ED1D1A94ED131A21EE201A84ED1E1A94ED151A21EE201A96
:2073C00084ED1F1A94ED161A61EE200AC4ED200A9FED108A94ED251AF0EE480AFEF7D5F826
:2073E00084ED250A94ED231A94ED1A0AF0EE480AFEF7CBF884ED230A94ED241A94ED190AA1
:20740000F0EE480AFEF7C1F884ED240ABDEC028B10BD0000CDCC4C3D90ED000A80ED0C0AC0
:2074200090ED010A80ED0D0A90ED020A80ED0E0A90ED030A80ED120A90ED040A80ED130A0A
:2074400090ED050A80ED0F0A90ED070A80ED100A90ED080A80ED150A90ED090A80ED160ACD
:20746000818DA0F85C109FED0D0A80ED000A80ED010A80ED020A80ED030A80ED040A80ED8D
:20748000050A80ED060A80ED070A80ED080A80ED090A80ED0A0A0021818570470000000084
:2074A0009FED100A80ED000A80ED010A80ED020A80ED030A80ED040A80ED050A80ED070ACF
:2074C00080ED080A0021818580ED210A80ED220A80ED230A80ED250A80ED260A80ED240A67
:2074E0007047000000000000D1ED000AF4EEC00AF1EE10FA0CD2B1F90A3042681A4442600C
:20750000B1F908108A4202DB4160012101807047D1ED010AF4EEC00AF1EE10FAF7DDB1F929
:207520000C104268511A41600029F0DC0021416001807047D1ED000AF4EEC00AF1EE10FA2D
:207540000CDDB1F90A3042681A444260B1F908108A4202DB4160012101807047D1ED010A85
:20756000F4EEC00AF1EE10FAF7D2B1F90C104268511A41600029F0DC002141600180704742
:207580000021018041607047062905D200EB4100A0F86E22A0F87A22704700002DE9F05F47
:2075A00004460026B4F84802401C80B2A4F848024FF00109192801D9A4F84A9204F5257087
:2075C0004FF4807204F580718046FFF70DFDA4F80002062810D90027A4F84872A4F84A723C
:2075E00094F80011D64D5A2903D194F80111A52904D02868401C2860BDE8F09F94F80211ED
:20760000C02901D0A12903D194F80311E02903D02868401C2860EFE7001F81B204F5817010
:2076200002F0DAF90146B4F8000204F1FE02835C521C805C43EA0020814203D02868401CA3
:207640002860D9E75A202070A5204FF0020C6070E020A07094F802010422E07094F8040150
:207660000525207194F8051194F8063141EA032106234FF00A0B4FF00C0A06286CD006DC7D
:20768000062821D2DFE800F012212A49545FE02870D006DC072871D008286DD00F2813D197
:2076A00025E1E12869D0F028F9D12AE16371A77184F8079084F808906272A77284F80B907E
:2076C0000D2584F80C90012624E184F80590A77194F83A020825E07101261BE184F805B071
:2076E000A771B4F80402E071000A2072B4F806026072000AA072B4F80802E072000A20738C
:20770000B4F814026073000AA073B4F86002E073000A112520740126FCE084F805C0A77126
:20772000B4F81802E071000A092520720126F1E084F805C0A771B4F81C02E071000A0925C4
:2077400020720126E6E084F80590A77194F844020825E0710126DDE019B194F80701A4F853
:207760002A0284F80590A77194F82C020825E0710126CFE07AE001E020E0A0E079B194F835
:20778000070194F8081140EA0120A4F86A0294F8090194F80A1140EA0120A4F86C02627184
:2077A000A771B4F86A02E071000A2072B4F86C026072000A0B25A0720126ABE01F2004F887
:2077C000050F6770B4F8FF01A070000AE070B4F801022071000A6071B4F80502A071000ABF
:2077E000E071B4F809022072000A6072B4F80F02A072000AE072B4F855022073000A607375
:20780000B4F85702A073000AE073B4F859022074000A6074B4F85B02A074000AE074B4F853
:2078200007022075000A6075B4F80B02A075000AE075B4F813022076000A607694F83502A4
:20784000A07694F83602E07694F839022077B4F837026077000AA077B4F83B02E077000A73
:20786000262584F82000641F012653E079B194F8070106280BD294F8081194F8092104EB31
:20788000400041EA0221A0F86E12A4F8929284F805A00725A771002004EB4002691C92F8BD
:2078A0007A3289B26355B2F87A22130A4A1C95B26354401C80B20628EED301262AE084F838
:2078C00005A00725A771002004EB4002691C92F8863289B26355B2F88622130A4A1C95B298
:2078E0006354401C80B20628EED3012612E084F8459284F80590A771082584F80790012658
:2079000008E084F8469284F80590A771082584F807900126002E3FF47EAEA81E81B2A01C59
:2079200002F05AF8691C89B26055030A481C82B2635421464046BDE8F05FFFF706BC000099
:20794000A0000020C0F8941200F52570FFF767BB10B500F52570FFF780FCA0F5257000F28A
:207960002E20002120F82E1C20F8041C782202804FF4117343804FF41673438141830123E0
:20798000838320F8182C40F23F228287DC22C2878175A0F22E2010BD7CB5052000900124F4
:2079A000ADF80640ADF80440114E0421304602F0B5FA0546A102304602F0B0FA0543E1022D
:2079C000304602F0ABFA05430A4945B14A6810194860052802DB009848600C807CBD4868C7
:2079E000001B48600028F9DC0020486008807CBD000C0140983400202DE9F0412DED028B17
:207A000084B01E26ADF808600125ADF80C500A27ADF80A709FED580A8DED000A9FED570A0B
:207A20008DED010A564C94ED1B0A69465548FFF75BFD4FF49670ADF80800ADF80C50ADF843
:207A40000A709FED510A8DED000A9FED500A8DED010A94ED1A0A4B4869461030FFF744FD78
:207A600094ED1E0A474869461830FFF73DFDB2EE020A8DED000AB2EE068A8DED018A94EDC1
:207A80001A0A404869462030FFF754FD94ED1E0A3C4869462830FFF74DFDB1EE040A8DED59
:207AA000000A8DED018A40F6B830ADF808006427ADF80C70ADF80A6094ED1A0A6946344861
:207AC000FFF738FD94ED1E0A314869460830FFF731FDADF80870ADF80C504FF00308ADF841
:207AE0000A80B2EE0C0A8DED000AB2EE080A8DED010A94ED190AB0EEC00A22486946303006
:207B0000FFF7F2FC94ED1D0AB0EEC00A1D4869463830FFF7E9FCADF80870ADF80C50ADF857
:207B20000A80B3EE090A8DED000AB3EE060A8DED010A94ED180AB0EEC00A124869464030C9
:207B4000FFF7D2FCADF80860ADF80C50ADF80A80B3EE0E0A8DED000A9FED0E0A8DED010ABE
:207B600094ED1B0A074869460830FFF7E3FC04B0BDEC028BBDE8F081000068420000664202
:207B8000EC390020583400200000A042000096427C35002000000C420149016070470000B9
:207BA000E4BB00082DE9F04104462DED048BB0EE608ADFEDD39A10EE100A08EE900A10EE7D
:207BC000100AC4F8BC00CF4890ED149A18EE900ACD49884202DDDFEDCD8A06E018EE900AC9
:207BE000CB49884201DAF2EE028A207904F14806002548B301287DD16079C64FF0B3022832
:207C000046D0012806D003287AD0B0EE690A84ED250A657194ED250A94ED291AB4EEC10A72
:207C2000F1EE10FA01D9B0EE410A10EE100A84ED250AB949B94AB2EE081AFAEE081A884245
:207C40007EDD84ED251A88E044F8B85FB0EE690A04ED0B0A04ED070A04ED040A04ED030A48
:207C600025816581A58104ED210A04ED200A04ED190A04ED180A04ED110A00E008E004ED2F
:207C8000100A3046BDEC048BBDE8F041FEF730BD94ED270A30EE490AA14910EE100A884275
:207CA00002DDB1EE040A06E010EE100A9D49884201D9B9EE040AD4ED220A70EE600AF0EE68
:207CC000E00A10EE900AB84201DD84ED220A04F1680094ED220A8046FEF7B4FC84ED260A97
:207CE00094ED290A4046FEF7F2FC94ED290AB1EE400A01E0CDE003E04046FEF7EBFC89E787
:207D0000D4ED230A30EE600A874910EE100A884202DD9FED860A06E010EE100A84498842AB
:207D200001D99FED840A04F128008046FEF78AFC84ED250A94ED290A4046FEF7C8FC00E07E
:207D400007E094ED290A4046B1EE400AFEF7C2FC60E7904201D9C4ED251ADFED770A80EEC8
:207D6000A80AD4ED250AB4EEE00AF1EE10FA01DBB0EE600A84ED250AF0EE690A78EE600A47
:207D800030EE600A10EE100A884202DDB0EE410A05E010EE100A904201D9B0EE610AD4ED3E
:207DA000240A70EE600AF0EEE00A10EE900AB84201DD84ED240A94ED240A3046FEF742FC9E
:207DC00010EE100A5D4ADFED5E0A5E499FED5E1A904202DDB0EE600A05E010EE100A884285
:207DE00001D9B0EE410A206801280CD1D4F8B000904202DDC4ED2C0A03E0884201D984ED26
:207E00002C1A94ED2C0A19EE100A50490122884201DDC4F8B82019EE100A4D49884201DAF0
:207E2000C4F8B850D4F8B800012819D084ED2A0A94ED2A0ADFED470A60EE200AFDEEE00A24
:207E4000C4ED2D0A18EE100A4349B0F17F5F0CDBD4F8C80088420AD2401CC4F8C80006E028
:207E6000BFEE000A84ED2A0AE2E7C4F8C850D4F8C800884202D3A4F8C02002E00220A4F8BA
:207E8000C000B5EEC00AF1EE10FA06D2C23465802580BDEC048BBDE8F08110EE100A2F4996
:207EA000DFED2F0A884209DA20EE200AC234BDEEC00A10EE100A60802580EAE79FED291A30
:207EC00030EE410ADFED281A30EE218A18EE100A884202DDB0EE418A06E0B5EEC08AF1EE7E
:207EE00010FA01D2B0EE698AC23440F2A320608028EE200ABDEEC00A10EE100A2080C8E72D
:207F0000000000004C3900200000A0420000A042000010410AD7233C00004041000040C1E5
:207F20000000A0400000A0C00000964200009642000096C2000096C2000016446666E63F56
:207F40006666E63F6666E6BF6666E6BF00006742000066420000C842A08601006666663F5B
:207F600000803B446666663F6E12033D90ED260A80ED250A7047000010B50830FEF7BCFB28
:207F800008382830FEF7B8FB28384830FEF7B4FB48386830FEF7B0FB68389FED0A0A80EDC0
:207FA000280AB2EE080A80ED290A9FED070A80ED2F0A0021417180ED2A0A016080ED2C0A82
:207FC00010BD0000000066420000000010B50168072300204FF6FF720AE031F810409442C5
:207FE00004D1441C31F81440944203D0401C80B29842F2D310BD70B505462C1D002241F21E
:20800000481040F6B86134F81230834202D924F8120003E08B4201D224F81210521C92B20A
:20802000062AF0D30C21281D01F0D6FC28820722291D2868BDE87040FDF748BA0A4600F1E3
:208040000E0100F09AB80A4600F1080100F095B80A4600F10A0100F090B80A46011D00F066
:208060008CB80A4600F10C0100F087B80A46811D00F083B82DE9F05F04468B46C4F800B03A
:208080002046FFF7A3FF80464FF6FF7101EA48090726D4F800A0251D4FF48057B8F1070F77
:2080A00017D0B8F1000F51D0A9F102025946201DFDF710F9A9F102091FFA89F1201D01F023
:2080C0008BFCA8F101083AF81810814228D0002024E00E225946201DFDF7FCF80C21201DE0
:2080E00001F07AFC218A814245D00020761E03E025F81070401C80B2B042F9DB0C21201DA4
:2081000001F06AFC20820722211D2068BDE8F05FFDF7DCB925F81070401C80B24045F9DB76
:208120001FFA88F0761E03E025F81070401C80B2B042F9DB0C21201D01F04EFC20820722D6
:20814000211D2068BDE8F05FFDF7C0B90020761E03E025F81070401C80B2B042F9DB0C2143
:20816000201D01F039FC20820722211D2068BDE8F05FFDF7ABB9BDE8F09F0020A2F6B863B8
:20818000B3F5247F02D94FF4805201200A807047704730B500230288511E89B2446804EBB4
:2081A0008105D5ED000AF4EEC00AF1EE10FA01D2114619E0D4ED000AF4EEC00AF1EE10FA55
:2081C00010DD002110E05A18520804EB8205D5ED000AF4EEC00AF1EE10FA01DD114601E0E8
:2081E000521C93B29942EED88068042202EBC102024400EBC100D2ED000A90ED001A40EEED
:20820000010AB0EE600A30BD0088002800D0012070470180426083607047002101808160C6
:208220004160704772B690F88420D0F8AC1162F3000190F88C2062F3410190F8702162F37E
:20824000041190F8502062F34511027E62F38611C0F8AC1162B670472DE9F04104462DED0B
:20826000028BFE4F97ED1A0AB2EE048AFC4D20EE080ABCEEC00A10EE100AA5F8040297ED32
:208280001E0A20EE080ABCEEC00A10EE100AA5F80602F44991ED290A20EE080ABCEEC00AE3
:2082A00010EE100AA5F80C02EF4A92ED290A20EE080ABCEEC00A10EE100AA5F81002384637
:2082C00094F8083190ED190AD0ED1D0A0026022B45D094F80901022841D0A5F81462A5F86C
:2082E000086294F80801022852D0A5F80A6294F80901022855D0A5F80E6297ED1B0A60EE41
:20830000080AFCEEE00A10EE900AA5F85A0294F8080102284ED094F8090102284AD0A5F892
:208320005E62A5F85C62D14890ED1F0AD0ED200AB4EEE00AF1EE10FA01DAB0EE600ADFED58
:20834000CC0A40EE080ABDEEE00A10EE100AA5F86002238CC248B0F81802E3BB41E030EE03
:20836000201A21EE081ABCEEC11A11EE100AA5F8080297ED1C1AD7ED1F1A31EE211A21EE2D
:20838000081ABCEEC11A11EE100AA5F81402A8E720EE080ABCEEC00A10EE100AA5F80A0286
:2083A000A5E720EE880ABCEEC00A10EE100AA5F80E02A2E7D7ED180A20EE881ABCEEC11AB4
:2083C00011EE100AA5F85C0220EE200A20EE080ABCEEC00A00E006E010EE100AA5F85E02E2
:2083E000A1E7238D13B140F0010001E020F0010020F00200A5F81802D4F8C0312BB1D4F830
:20840000C43113B140F0040001E020F0040020F00800A5F81802B4F8843013B9B4F88C3017
:2084200013B140F0100001E020F0100020F04000A5F81802B4F8403013B9B4F8483013B160
:2084400040F0800001E020F08000A5F8180294F8503063F30820A5F81802B5F82A028307A0
:2084600001D5C00728D0D4F8AC0140F00400C4F8AC0105F22A25288820F0020028806888B1
:2084800020F0020040F001006880AE86A5F22A25B5F85C32B5F86C029FED760A834227D970
:2084A000181A0A281DDD94ED590ADFED730A30EE600A84ED590A21E0D4F8AC0120F0040047
:2084C000C4F8AC01B5F82A0220F00100A5F82A02B5F82C0240F0020020F00100A5F82C0297
:2084E000D6E7D4ED590A30EEC00A84ED590A05E0D4ED590A30EE800A84ED590A94ED590A76
:208500005E4B10EE100A984204DDB2EE080A84ED590A08E0B5EEC00AF1EE10FA03D29FEDBA
:20852000580A84ED590AB5F86A0200EE100AB8EE400ADFED541A20EE210A81ED280A10EEE3
:20854000103ADFF844C1DFED510ADFF84481B3EE0E1A634502DDC1ED280A05E010EE103AD5
:20856000434501DA81ED281A00EE100AB8EE400A20EE210A82ED280A10EE100A604502DD7A
:20858000C2ED280A05E010EE100A404501DA82ED281A94F8080194F80911884200D20846C7
:2085A00005F23A2528703B4890ED0C0ABCEEC00A10EE101A6970384A92ED0C0ABCEEC00AB7
:2085C00010EE101A297190ED0D0A20EE080ABDEEC00A10EE100A688092ED0D0A20EE080AFA
:2085E000BDEEC00A10EE100AE880287BA5F23A25A8B1B4F80601401C80B2A4F80601D4F8E4
:20860000AC1141F00801C4F8AC1105280FD32348012101704170C806FDF762FC07E0A4F889
:208620000661D4F8AC0120F00800C4F8AC01B5F89202DFF86C80012863D105F26E25404668
:208640002988FFF70AFDB8F804101648FEF76EFB69884046FFF70AFD26E00000EC3900202D
:20866000983C0020F83A0020C83B0020483400200000C8436F12833A0BD7A33B000040416B
:2086800000000000CDCCCC3D00006842000068420000F041883A0020C03A002000BF0020D8
:2086A000944100204C390020B8F806104848FEF769FBA9884046FFF7C6FCB8F808104448AE
:2086C000FEF708FBE9884046FFF7C2FCB8F80A103F48FEF715FB29894046FFF7C2FCB8F805
:2086E0000C103B48FEF738FB69894046FFF7A6FCB8F80E103648FEF7D7FA0220A884A5F2AC
:208700006E25B5F89202022807D194F8080120B93048FFF770FCA5F89262B8F8040005F2FF
:208720007A252880B8F806006880B8F80800A880B8F80A00E880B8F80C002881B8F80E002F
:208740006881D7ED1A0AB6EE000AB0EE401A00EE881AFCEEC10A10EE900AA881D7ED1E0AB0
:20876000B0EE401A00EE881AFCEEC10A10EE900AE881D7ED1B0AB0EE401A00EE881AFCEE60
:20878000C10A10EE900A2882D7ED190AB0EE401A00EE881AFCEEC10A10EE900A6882D7ED62
:2087A0001D0AB0EE401A00EE881AFCEEC10A10EE900AA882D7ED180A00EE880ABCEEC00AB9
:2087C00010EE100AE882BDEC028BBDE8F08100004C390020944100202DE9F04704462DED80
:2087E000028B84B08B4FD7F88400DFF82C82DFF82C9201260025B3EE098A04F1640A404509
:2088000001DC484504DAA4F8CE6084ED1F8A08E0A4F8CE5097ED210A5046FDF787FF84ED5A
:208820001F0AD7F88800404501DC484504DAA4F8D06084ED208A08E0A4F8D05097ED220AB0
:208840005046FDF773FF84ED200ADFED758ACDED008A9FED748A8DED018A4FF41677ADF86E
:2088600008704FF03C08ADF80A80ADF80C6094ED1F0A694604F18400FEF736FECDED008A7E
:208880008DED018AADF80870ADF80A80ADF80C6094ED200A694604F18C00FEF725FE94ED02
:2088A0001F8A94ED200AB4EEC08AF1EE10FA01DAB0EE408A04F19400B0EE480AFDF76DFE74
:2088C000B0EE480A04F1B400FDF767FE5648007960BB5648007948BBB4F88C00012825D004
:2088E000B4F88400012821D0B4F8C800401C80B2A4F8C80041F27071884203D3A4F8C810A0
:20890000A4F8CA50B4F8CA004949A0B1B4F8A000B4F8C82012B1022800D3022091F8432298
:20892000824200D91046A4F8CC0008E0A4F8C850A4F8CA60E6E791F84302A4F8CC003D4AF0
:20894000B4F8CC303B481432062B43D2DFE803F0030D18232E3981F8445241F2C121036865
:2089600043F001030360116034E0142381F844324FF42261036843F001030360116029E06D
:208980001E2381F844324FF4B461036843F00103036011601EE0282381F844324FF43471B9
:2089A000036843F001030360116013E0322381F844324FF4F071036843F0010303601160F0
:2089C00008E05A2381F844320021036843F0010303601160B4F8CC0018B10120FCF768FDF2
:2089E00002E00020FCF764FDB4F8C00005280BD2114901EB800090ED000A84ED310A04B0FE
:208A0000BDEC028BBDE8F087B5EE000A84ED310AF5E70000EC39002000D040450000C8422B
:208A20000000C84200009642F83A0020C83B0020983C0020200C0040B4BB00082DE9F05FA3
:208A400004462DED088B208C4100B4F8400041EA8000C4F8B001218D4A00B4F8481042EA06
:208A60008103C4F8B431218AB4F8502041EA4201C4F8B811B4F88450B4F88C2045EA4202CC
:208A8000C4F8BC21002801D101B90AB1012000E00020C4F8C0010BB901B90AB1012100E0F5
:208AA0000021C4F8C41194F808210025DFF81094DFF81084022A03D194F80921022A03D08F
:208AC000C9F80050C8F80050D4F8AC2153079FEDFE8A01D410B109B184ED598A510701D59C
:208AE00084F80851218E19B184F80851A4F81C514FF0040A18B184F808A1A4F81C5194F87A
:208B0000080141F2883BF2EE00AADFEDF09AF04FF04EB0EE00AAB2EE0EBAB2EE089ADFED3B
:208B2000EE8AA8B302285ED0042826D084F80851E348057194F8AC01400701D584F8095146
:208B4000208F18B184F80951A4F81E51D4F8C40118B184F809A1A4F81E5194F80901002873
:208B60007ED002287DD004287CD084F80951D5480571BDEC088BBDE8F09FA4F81C51D048BE
:208B80000571D4F8C0010028D4D184F80851D1E7FFE7B4F81C01401CA4F81C01C848002183
:208BA0000171B4F81C01B0F57A7FC3D994F8AC014007BFD49FEDC90A84ED530AC9F80050EF
:208BC00084ED550AA4F85851C548FDF70BFEA4F81C5196ED1A0A84ED430A022084F8080161
:208BE00089F80550A6E799F8050070B9D4F80C01A0F18341B1F5701F04D9BA490844B0F51F
:208C00001C0F02D8032089F8050094ED590A89ED290A99F8050020B1032853D0022851D019
:208C2000EAE0D6ED1A0A94ED431A31EE4A1AF4EEC10AF1EE10FA07D8D6ED190A70EEE90A76
:208C4000C4ED550AA4F858B1B4F8580110B1401EA4F85801B4F8580148B9D4ED550A02E03E
:208C6000DBE103E2CDE170EEA80AC4ED550AD4ED550A10EE900AB84202DD84ED559A06E0AE
:208C8000F5EEC00AF1EE10FA01D284ED558AD4ED550AB4EEE00AF1EE10FA01D9B0EE600AA4
:208CA00010EE100A89ED290AB0F1824F02DDC9ED29AAA1E0B5EEC00AF1EE10FA01D289EDF9
:208CC000298A99E094ED430A8548FDF7A3FEB4F82001401C80B2A4F8200132280AD3A4F84D
:208CE0002051D6ED1C0A96ED1A0A7D48FDF79AFD89ED230A96ED1B0AD9ED280AB4EEE00A54
:208D0000F1EE10FA11DDB0EE480A7548FDF752FD022089F80500B06E7349884205DA96EDDE
:208D2000190A30EE690A84ED550A96ED1B0AD9ED280A70EECA0AB4EEE00AF1EE10FA07D28F
:208D40009FED6A0A6648FDF735FD032089F80500B06EB0F1834F14DB6549884211DC99ED2B
:208D6000290A644910EE100A884202DD89ED29BA21E0B5EEC00AF1EE10FA1CD289ED298A8B
:208D800019E058494942884215DB5B49884212DC99ED290A594910EE100A884204DDB2EEDA
:208DA000040A89ED290A06E0B5EEC00AF1EE10FA01D289ED298A94ED550A30EE280A84ED23
:208DC000550A10EE100AB84202DD84ED559A06E0B5EEC00AF1EE10FA01D284ED558A99EDFE
:208DE000290AD4ED550AB4EEE00AF1EE10FA01D9B0EE600A89ED290A96ED1C0AD4ED310A7B
:208E00009FED3A1A60EE810AB4EEE00AF1EE10FA06DD94ED5A0A30EE680A84ED5A0A05E012
:208E200094ED5A0A30EE280A84ED5A0A94ED5A0A10EE100AB84202DD84ED5A9A06E0B5EE64
:208E4000C00AF1EE10FA01D284ED5A8A99ED290AD4ED5A0AB4EEE00AF1EE10FA01D9B0EE6C
:208E6000600A89ED290AD4ED530A70EEA80AC4ED530A96ED191AF7EE001A31EE211AB4EEF2
:208E8000E01AF1EE10FA02D284ED531A06E0F5EEC00AF1EE10FA01D284ED538AD4ED530A82
:208EA000B4EEE00AF1EE10FA01D9B0EE600A89ED290AD9F8000010B9D8F80000A8B31FE0EE
:208EC000F83A0020C83B002000000000CDCC4C3E00004041EC3900206F12833ACDCC4C3FD2
:208EE000883A00200000FCBD00003041000016440000BC41000070410000A042000020411B
:208F0000A4F81C51D6ED1E0A96ED1A0AB7EE001AFCF7BAFE012803D0C9F8005089ED2C8A13
:208F2000D9F80000012833D050E0FFE7D4ED440A94ED430AB6EE001AFCF7A6FE012824D1CE
:208F4000D6ED1D0A96ED190AB6EE001AFCF79CFE01281AD1D8F8A800FE49884215DD99ED21
:208F60002A0AB5EEC00AF1EE10FA0ED2B4F81C01401C80B2A4F81C01B0F57A7FD0D9A4F894
:208F80001C510120C9F80000CAE7A4F81C51C7E798ED2A0A9FEDF01AD9ED2C0A70EE411A16
:208FA000F4EEE01AF1EE10FA03DD70EEA80AC9ED2C0A70EE010A99ED2C0AF4EEC00AF1EE60
:208FC00010FA03D230EE680A89ED2C0A99ED280AE24910EE100A884204DD9FEDE10A89EDE3
:208FE000280A06E0B5EEC00AF1EE10FA01D289ED288A99ED280A89ED270ADA4801210171F3
:2090000098E5A4F81E51D8480571D4F8C40100287FF4AFAD84F80951ABE5D3480021017196
:20902000B4F81E01401C80B2A4F81E01B0F57A7FF2D994F8AC014007EED41FED580A84ED92
:20904000540AC8F8005084ED570AA4F86051C748FDF7C8FBA4F81E5196ED1E0A84ED440A48
:20906000022084F8090188F8055082E598F8050070B9D4F81001A0F18341B1F5701F04D90A
:20908000BB490844B0F51C0F02D8032088F8050094ED590A88ED290A98F8050020B1032811
:2090A0004FD002284DD0E6E0D6ED1E0A94ED441A31EE4A1AF4EEC10AF1EE10FA07D8D6EDFF
:2090C0001D0A70EEE90AC4ED570AA4F860B1B4F8600110B1401EA4F86001B4F8600128B942
:2090E000D4ED570A70EEA80AC4ED570AD4ED570A10EE900AB84202DD84ED579A06E0F5EE6E
:20910000C00AF1EE10FA01D284ED578AD4ED570AB4EEE00AF1EE10FA01D9B0EE600A10EE00
:20912000100A88ED290AB0F1824F02DDC8ED29AAA1E0B5EEC00AF1EE10FA01D288ED298AC2
:2091400099E094ED440A8948FDF764FCB4F82201401C80B2A4F8220132280AD3A4F8225140
:20916000D6ED1F0A96ED1E0A8048FDF75BFB88ED230A96ED1B0AD8ED280AB4EEE00AF1EE9A
:2091800010FA11DDB0EE480A7848FDF713FB022088F80500B06F7749884205DA96ED1D0A4C
:2091A00030EE690A84ED570A96ED1B0AD8ED280A70EECA0AB4EEE00AF1EE10FA07D21FED21
:2091C000B50A6A48FDF7F6FA032088F80500B06FB0F1834F14DB6849884211DC98ED290AF1
:2091E000664910EE100A884202DD88ED29BA21E0B5EEC00AF1EE10FA1CD288ED298A19E041
:209200005B494942884215DB5D49884212DC98ED290A5C4910EE100A884204DDB2EE040A39
:2092200088ED290A06E0B5EEC00AF1EE10FA01D288ED298A94ED570A30EE280A84ED570A4B
:2092400010EE100AB84202DD84ED579A06E0B5EEC00AF1EE10FA01D284ED578A98ED290AA2
:20926000D4ED570AB4EEE00AF1EE10FA01D9B0EE600A88ED290A96ED1F0AD4ED310A1FED19
:20928000E51A60EE810AB4EEE00AF1EE10FA06DD94ED5A0A30EE680A84ED5A0A05E094EDEE
:2092A0005A0A30EE280A84ED5A0A94ED5A0A10EE100AB84202DD84ED5A9A06E0B5EEC00A97
:2092C000F1EE10FA01D284ED5A8A98ED290AD4ED5A0AB4EEE00AF1EE10FA01D9B0EE600A49
:2092E00088ED290AD4ED540A70EEA80AC4ED540A96ED1D1AF7EE001A31EE211AB4EEE01AD9
:20930000F1EE10FA02D284ED541A06E0F5EEC00AF1EE10FA01D284ED548AD4ED540AB4EE52
:20932000E00AF1EE10FA01D9B0EE600A88ED290AD9F8000010B9D8F8000078B3A4F81E5130
:20934000D6ED1E0A96ED1A0AB7EE001AFCF79CFC012819E0CDCC4C3ECDCCCC3D00006642A2
:2093600000006642F83A0020C83B0020C03A00200000FCBD000030410000BC4100007041DE
:209380000000A0420000204103D0C8F8005088ED2C8AD8F80000012833D050E0FFE7D4EDA9
:2093A000440A94ED430AB6EE001AFCF76DFC012824D1D6ED1D0A96ED190AB6EE001AFCF718
:2093C00063FC01281AD1D9F8A8002A49884215DD98ED2A0AB5EEC00AF1EE10FA0ED2B4F8D7
:2093E0001E01401C80B2A4F81E01B0F57A7FD0D9A4F81E510120C8F80000CAE7A4F81E5116
:20940000C7E799ED2A0A1FED2C1AD8ED2C0A70EE411AF4EEE01AF1EE10FA03DD70EEA80A29
:20942000C8ED2C0A70EE010A98ED2C0AF4EEC00AF1EE10FA03D230EE680A88ED2C0A98EDF3
:20944000280A0D4910EE100A884204DD1FED3C0A88ED280A06E0B5EEC00AF1EE10FA01D2B9
:2094600088ED288A98ED280A88ED270A034801210171D1E5CDCC4C3E00006642C83B0020E5
:2094800010B504469FED200A2048F0EE400AFDF72DFB1F491F48FEF755FA1F4B1F4A9221C2
:2094A00004F17000FDF740F91B4B1C4A922104F16400FDF739F9B0EE000A194A062104F1F5
:2094C0009400FDF765F8164A9FED160A083A032104F1A400FDF75CF8114B04212433A3F1E8
:2094E000100204F5C270FEF794FE0D4AB0EE000A4C32052104F1B400FDF74AF8B7EE000A77
:2095000084ED310A10BD000000000000C839002038000020983C0020B8B6000870B40008C3
:2095200058BB0008CDCC4C3D7047000070B50446002594F8A0010726062811D2DFE800F081
:2095400003171F253137D4F8B00150B1D4F8B40138B11948C06EB0F1834F01DD84F8A06100
:2095600070BD012084F8A001A4F8A25170BDFCF72BFE022084F8A001A4F8A25170BDFCF7BA
:2095800013FE032084F8A00170BDB4F8A201401C80B2A4F8A2010428F6D3042084F8A001FB
:2095A00070BDFCF701F8052084F8A00170BDFBF7FAFF84F8A06170BDEC39002010B508304C
:2095C000FDF7DEFF08381030FDF7DAFF10381830FDF7D6FF18382030FDF7D2FF20382830FF
:2095E000FDF7CEFF28383030FDF7CAFF30383830FDF7C6FF38384030FDF7C2FF403848301F
:20960000FDF7BEFF48385030FDF7BAFF50386430FDF7CEF864387030FDF7CAF870388430C8
:20962000FDF7AEFF84388C30FDF7AAFF8C389430FDF704F89438A430FDF700F8A438B430B0
:20964000FCF7FCFFB438D430FDF79AFFD438DC30FDF796FFDC38E430FDF792FFE438EC3019
:20966000FDF78EFFEC38F430FDF78AFFF438FC30FDF786FFFC3800F59A70FDF781FFA0F597
:209680009A7000F59E70FDF77BFFA0F59E7000F5B870FDF775FFA0F5B87000F5BC70FDF755
:2096A0006FFFA0F5BC7000F5C270FEF7B6FDA0F5C27000F5C870FDF763FFA0F5C87000F5A0
:2096C000CC70FDF75DFFA0F5CC700021243020F8221C4163018701224287C187818780F882
:2096E0008411A0F8E0100D4AC0F8802180F87C11042280F8E4209FED0A0A80ED4C0A80ED26
:209700004E0A80ED500AB2EE080A80ED510AA0F83411A0F83C11243810BD0000880000201D
:209720000000000010B51248FDF710FC10487C30FCF765FC0E48A030FDF7B2FE0D48FEF79E
:209740002BFA0D48FDF7CAF90B483830FDF7C6F909487030FEF710FC0848FEF70DFC0748DB
:20976000D030FEF7F5F8BDE810400548FEF710BD4C39002088000020883A0020C83B0020B1
:20978000944100200148FFF719BF0000483400200148FDF723BC000048420020816841F041
:2097A0000801816081680907FCD4816841F00401816081684907FCD47047521E01290DD0BF
:2097C00002290AD1816B21F440118163816B4FF4401303EA0252114381637047C16A21F45B
:2097E0007001C162C16A4FF4700303EA02521143C1627047002904D0816841F40061816028
:209800007047816821F400618160704710B5144940180FD0B0F5806F16D0B0F5C05F1DD115
:2098200040F20F34204600F073FE2046BDE8104000F060BE40F20934204600F069FE2046F1
:20984000BDE8104000F056BE40F20A34204600F05FFE2046BDE8104000F04CBE10BD0000CA
:2098600000DCFEBF816841F48071816070478168C90703D1816841F0010181607047002A3D
:209880000CD0CA0703D0826842F480128260890703D5816841F4004181607047CA0703D0B1
:2098A000826822F4801282608907F6D5816821F4004181607047012909D0022906D1816814
:2098C00021F4E04181608168114381607047816821F4602181608168114381607047000067
:2098E00004490A6822F470220A600A6802430A60704700000424014030B51F24062909D224
:20990000456B01EB81018C40A54302FA01F42C43446318E00C290AD2056B891F01EB8101DF
:209920008C40A54302FA01F42C4304630BE0102909D2C56A0C3901EB81018C40A54302FA1B
:2099400001F42C43C46207250A2A08D2046902EB42018D40AC438B402343036130BD122A2C
:20996000FCD2C4680A3A02EB42018D40AC438B402343C36030BD50F8802F22F4405202607B
:2099800002680A4302607047002A12D0CA0503D5426842F4807242604A0503D5426842F4C9
:2099A00080624260890703D5816841F0020181607047CA0503D5426822F4807242604A05BC
:2099C00003D5426822F4806242608907F0D5816821F002018160704770B504460E460D4869
:2099E0000088002801D1FCF73DFC4FF6FF70002C0FD0002208490AE014F8013B80EA0305E3
:209A0000EBB231F8133083EA1020521C92B2B242F2D370BD340000204C37002070B50546A1
:209A20000C462146284600F0EDF840B104EB840005EB8000816821F00101816070BDFEE767
:209A400070B505460C462146284600F0DBF840B104EB840005EB8000816841F001018160DB
:209A600070BDFEE770B505460C462146284600F0C9F840B104EB840005EB8000816841F09E
:209A80002001816070BDFEE770B504460D462946204600F0B7F898B105EB850004EB80024D
:209AA000906820F00100906000209060D060106150616068AA000F2191400843606070BDA0
:209AC000FEE7436889008A40134343607047006889008A40104201D0012070470020704766
:209AE00070B506460D4614462946304600F08AF848B305EB850006EB800022680261A1681A
:209B00004161218A89B2C160816821F47C52E368616819436369134319438160217E012938
:209B200012D0816821F040018160617E012910D0816821F080018160A17E79B1816841F07F
:209B40001001816070BDFEE7816841F040018160EBE7816841F080018160EDE7816821F0A9
:209B60001001816070BD70B506460C4615462146304600F047F838B104EB840006EB8000CF
:209B800081682943816070BDFEE7436889008A4013434360704710B58C001346A24001EB57
:209BA000810100EB8101022B04D0042B08D0082B0CD0FEE700681040896801F002010AE033
:209BC00000681040896801F0040104E000681040896801F0080110B109B1012010BD0020D6
:209BE00010BD70B506460C4615462146304600F009F828B104EB840006EB8000456170BD1C
:209C0000FEE7000002460120034B9A4202D1042900D90020704700000004024070B5064665
:209C20000C46154621463046FFF7ECFF30B104EB840106EB8101A8B2C86070BDFEE700B5A8
:209C4000034600F009F85B1E012801D1002BF8D1012800D1042000BD00200849CA68D2070B
:209C600001D001207047CA68D20601D503207047C9684907FBD502207047000000200240F5
:209C800000B5034600F00AF85B1E012801D1002BF8D1012800D1042000BD00000020084920
:209CA000CA6CD20701D001207047CA6CD20601D503207047C96C4907FBD502207047000000
:209CC00000200240F0B504460D462048204E214F0088B0F5007F26D91F48844211D2384661
:209CE000FFF7ADFF00280BD1306940F00100306125803846FFF7A3FF316921F00101316169
:209D0000F0BD3846FFF7BCFF0028F9D1306D40F00100306525803846FFF7B2FF316D21F099
:209D200001013165F0BD3846FFF789FF0028F9D1306940F00100306125803846FFF77FFFFE
:209D4000316921F001013161F0BD0000E0F7FF1F002002400000FF0FFFFF070807480169EC
:209D600041F08001016106490988B1F5007F03D9016D41F08001016570470000002002404F
:209D8000E0F7FF1F70B504462748284D284E0088B0F5007F32D92748844215D23046FFF7C6
:209DA0004EFF00280FD1286940F0020028616C61286940F0400028613046FFF740FF29696E
:209DC00021F00201296170BD3046FFF759FF0028F9D1286D40F0020028656C65E869800705
:209DE00000D56C61286D40F0400028653046FFF747FF296D21F00201296570BD3046FFF7AC
:209E00001EFF0028F9D1286940F0020028616C61286940F0400028613046FFF710FF296983
:209E200021F00201296170BDE0F7FF1F002002400000FF0FFFFF070809480169094A0B06C6
:209E4000094901D542604160084B1B88B3F5007F04D9036D1B0601D5426441647047000034
:209E60000020024023016745AB89EFCDE0F7FF1F41617047016170472DE9F04301F00F040C
:209E8000CD0602D5042A18D0144300224FF00F0C012707FA02F51D401AD0D0F800909600DA
:209EA0000CFA06F829EA080904FA06F848EA0908282908D0482908D008E044F00304C26B79
